:020000040800F2
:1000000030D000205D020008AB270008C1250008A1
:10001000A9270008E10F00085D2F0008000000007C
:100020000000000000000000000000009D0100082A
:10003000E30F000800000000F9010008AD270008E8
:1000400077020008770200087702000877020008AC
:10005000770200087702000877020008770200089C
:10006000770200087702000877020008770200088C
:10007000770200087702000877020008770200087C
:100080007702000877020008AD0E0008770200082A
:10009000770200087702000877020008770200085C
:1000A000770200087702000877020008770200084C
:1000B0007702000877020008B128000877020008DC
:1000C000770200087702000877020008770200082C
:1000D00077020008F12E0008152F0008392F0008BC
:1000E000770200087702000877020008770200080C
:1000F00077020008770200087702000877020008FC
:1001000077020008770200087702000877020008EB
:1001100077020008770200087702000877020008DB
:1001200077020008770200087702000877020008CB
:1001300077020008770200087702000877020008BB
:1001400077020008770200087702000877020008AB
:10015000770200087702000877020008770200089B
:10016000770200087702000877020008770200088B
:1001700077020008770200087702000800000000FC
:100180007702000877020008DFF80CD000F030FC9E
:10019000004800475D40000830D000202C4B196813
:1001A0000868B0E8F04F80F30988BFF36F8F4FF015
:1001B000000080F3118870470000000008480068C4
:1001C000006880F308884FF0000080F3148862B65E
:1001D00061B6BFF34F8FBFF36F8F00DF00BF00BF6B
:1001E00008ED00E0DFF80C00016841F470010160E7
:1001F000704700BF88ED00E0EFF30980BFF36F8F19
:10020000134B1A681EF0100F08BF20ED108A20E96A
:10021000F04F106009B44FF0500080F31188BFF325
:100220004F8FBFF36F8F05F065F84FF0000080F33C
:10023000118809BC19680868B0E8F04F1EF0100F6B
:1002400008BFB0EC108A80F30988BFF36F8F704746
:10025000BC010020EFF3058070470000064880478E
:1002600006480047FEE7FEE7FEE7FEE7FEE7FEE79B
:10027000FEE7FEE7FEE7FEE75D28000889010008CB
:100280002DE9F05F0546002092469B4688460646CB
:10029000814640241BE0284641464746224600F05E
:1002A0009CF953465A46C01A914110D3114618463C
:1002B000224600F083F92D1A67EB01084F462246CB
:1002C0000120002100F07AF917EB00094E41201EB1
:1002D000A4F10104DFDC484631462A464346BDE826
:1002E000F09F0000014610B509683C22B1FBF2F313
:1002F00002FB1313B1FBF2F11D480360B1FBF2F3F3
:1003000002FB1313B1FBF2F118224360B1FBF2F3CD
:1003100002FB1313B1FBF2F183600A1D0723B2FB4A
:10032000F3F403FB142282618A0040F2B55102F615
:100330006C32B2FBF1F344334361B2FBF1F301FBE6
:1003400013218908C1613B2903D3027D920700D0A4
:10035000491C0022074C13460261E25C8A4203D822
:10036000891A5B1C0361F8E7491CC16010BD0000DD
:1003700004CC0020285E000840EA01039B0703D05C
:1003800009E008C9121F08C0042AFAD203E011F8D4
:10039000013B00F8013B521EF9D27047D2B201E096
:1003A00000F8012B491EFBD270470022F6E710B57A
:1003B00013460A4604461946FFF7F0FF204610BDD3
:1003C000421C10F8011B0029FBD1801A704730B580
:1003D00005460020034600E05B1C934205D2EC5C1E
:1003E000C85C201A01D1002CF6D130BD0246C9B23A
:1003F00000E0401C0378002BFBD102E003788B4225
:1004000003D0401E9042F9D2002070470FB400B5CF
:100410008DB010A909900B9000914FF0FF300A9019
:1004200000200C9005480690054807906A4609A8E8
:100430000F9900F0F7F80DB05DF814FB41060008C5
:100440005F0600082DE9FF5F1D464FF0FF3BD5E931
:10045000014691465F464FF00008A9697F1C01984C
:100460008847296A824688470028F6D1BAF1FF3FBB
:100470000CD024F4C064002E19DD600614D5BAF146
:100480002B0F09D0BAF12D0F0ED103E0584604B05E
:10049000BDE8F09F44F48064A9697F1C01988847F7
:1004A000761E8246002E02DDBAF1300F03D0B9F17C
:1004B000000F26D032E0A969761E44F400747F1C38
:1004C000019888478246002E05DDBAF1780F06D0E4
:1004D000BAF1580F03D0B9F1000F10D01EE0B9F1F6
:1004E000000F02D0B9F1100F18D1A969761E24F4BB
:1004F00000747F1C019888478246102002E0082083
:1005000000E00A20814609E008FB0908A969761E77
:1005100044F400747F1C019888478246002E05DD54
:100520004946504600F069F80028EDDAE96901987B
:100530008847A00502D46FF00100A8E7E00725D1A5
:10054000600613D5600502D5C8F1000000E0404602
:1005500029680A1D2A600968220501D5087015E07E
:10056000220701D5088011E008600FE02868011D0E
:1005700029600068210502D580F8008006E0210787
:1005800002D5A0F8008001E0C0F8008038467EE780
:1005900030B50B46014600202022012409E021FA53
:1005A00002F59D4205D303FA02F5491B04FA02F550
:1005B0002844151EA2F10102F1DC30BD202A04DB23
:1005C000203A00FA02F1002070479140C2F1200366
:1005D00020FA03F3194390407047202A04DB203AA5
:1005E00021FA02F00021704721FA02F3D040C2F153
:1005F000200291400843194670473A2800D230380B
:1006000020F02002412A01D3A2F13700884201D311
:100610004FF0FF307047000002681144137801600A
:1006200018467047D16004495161044911620021A4
:100630001161114600F006BA19060008390A0008CF
:10064000426842B1016811F8013B23B1521EC0E972
:100650000012184670470121C160881E7047426829
:100660005AB1C368016843B983688B4205D0491EFB
:10067000521CC0E90012002070474FF0FF30704755
:100680002DE9FE4F804681EA0300C00F0C46009022
:1006900021F0004123F00045B8EB0200A94105D24A
:1006A0004046214690461C460B46024623F0004039
:1006B000104347D0270DC7F30A00C3F30A51029035
:1006C000401A019040286BDAC3F3130040F4801BFA
:1006D0000098924620B10023D2EB030A63EB0B0B88
:1006E00001985946C0F140025046FFF767FF0646A1
:1006F0000D4650465946019A00F08CF910EB08005F
:100700006141002487EA115284EAE7731A4340D01A
:10071000009A62B3019A012A4FEA075215DC001BC6
:1007200061EB02014FF0004202EA0752CDE90042BC
:10073000001C41F5801132462B4600F028FB03B027
:10074000BDE8F08F40462146F9E7001B61EB02014E
:10075000001C41F5801300185B412018A2F500171A
:1007600047EB030140EAD570B6196D4111E06D0801
:100770004FEA360645EAC0754FEA0752001B61EBA7
:100780000201001C41F5801149084FEA30000019B0
:10079000514132462B4603B0BDE8F04F00F0E8BAB5
:1007A0000098012240000023D0EB020263EBE073CB
:1007B000009821464FEAE074B8EB000061EB0401B9
:1007C000E9E783F000435BE781F0004158E72DE95A
:1007D000FE4F81EA030404F0004421F0004100943C
:1007E0004FF0000B23F0004350EA01045ED052EAC0
:1007F00003045BD0C3F30A54C1F30A552C44A4F29A
:10080000F3340194A0FB0254C1F3130141F48011AD
:10081000C3F3130343F4801301FB024400FB034EB4
:10082000840A970A44EA815447EA8357A4FB07687D
:1008300002958D0A05FB07854FEA932C04FB0C54A7
:100840002705029D4FEA065847EA1637B5EB08051B
:100850006EEB070C870E920E47EA811742EA83126D
:10086000A7FB0201B6EB0B0164EB00042B0D43EA7E
:100870000C335E1844EB1C50DA465146E7FB02018C
:10088000C5F313044FEA0B3343EA14534FEA04321F
:10089000019C43EA0603A4F10C040294009CCDE9F8
:1008A00000B400F074FA03B0BDE8F08F00200146F8
:1008B000F9E72DE9F04D81EA030404F0004B21F043
:1008C000004514464FF0000A23F0004150EA0502AB
:1008D00020D054EA01021DD0C5F30A570246C5F3E1
:1008E0001303C1F31300C1F30A5640F4801543F417
:1008F0008013A7EB0608101BD64608F2FD3873EBF1
:10090000050002D308F1010801E092185B41B8F13B
:10091000000F03DA00200146BDE8F08D00204FF4FF
:100920008011064684460EE0171B73EB050705D3BE
:10093000121B63EB050306434CEA010C49084FEA1E
:10094000300092185B4150EA0107EDD152EA0300F2
:1009500012D082EA040083EA0501084305D0101B87
:10096000AB4106D20122002306E000224FF00043F3
:1009700002E06FF0010253101AEB06004CEB085135
:1009800010EB0A0041EB0B01BDE8F04D00F0F0B9AF
:10099000C1F30A52C1F3130140F2FF3341F4801155
:1009A0009A4202DA00200146704740F233439A42ED
:1009B000A2F2334202DC5242FFF70FBEFFF7FEBD48
:1009C00030B5041E71F1000404DB4FF000444042D6
:1009D00064EB0101141E73F1000405DB1C464FF0AB
:1009E0000043524263EB0403994208BF904230BD7A
:1009F000064C074D06E0E06840F0010394E807006C
:100A000098471034AC42F6D3FFF7C2FB985E00085B
:100A1000B85E0008202A06DBCB17203A41FA02F024
:100A200043EAE07306E041FA02F3D040C2F120024B
:100A30009140084319467047C0B24FF4F05100F09E
:100A4000F5B900002DE9F34F8BB04FF0000801F12C
:100A50000C000C464FF0010B46460DF1080A0190C0
:100A60006269012101989047051E2DD0252D2CD0BB
:100A7000216A8847C0B16269012101989047216AC3
:100A800088470028F7D1411E62690198904700E02D
:100A9000761CA1690B988847216A88470028F7D1FE
:100AA000E1690B988847DBE7A1690B9888470746FF
:100AB000A84201D1761CD3E7E1690B9888477F1CD7
:100AC00002D1B8F1000F6FD046E1002762693D46C0
:100AD0003946019890472A2804D16269012101987A
:100AE00090470125DFF884926269012101989047BF
:100AF000A0F130010A290AD24F45E5DC07EB870156
:100B000000EB4107303FDFD445F01005ECE7E90684
:100B100001D46FF000476C280AD04C2814D0682804
:100B200015D06A280DD074281CD07A281AD01DE060
:100B300062690121019890476C2802D045F00405B4
:100B400014E045F002050DE045F020050AE0626979
:100B5000012101989047682802D045F0080505E07A
:100B600045F400656269012101989047C4E9015785
:100B700065283DD019DC58287AD00CDC452837D0C0
:100B800004DC252826D0412831D131E046282FD059
:100B900047282CD12CE05B2877D0612828D0632807
:100BA0007CD0642823D15AE0D0E06F2848D008DCFC
:100BB00066281DD067281BD0692821D06E2816D141
:100BC00027E0702845D0732868D0752847D078284A
:100BD0000DD14DE0A1690B988847054625283FF4C3
:100BE00069AFE1690B9888476D1C3FF46AAFB3E0C9
:100BF00023466A466FF001000B99AFF300809EE038
:100C000045F040006060A80723464FF0000236D44C
:100C10003EE0E8077FF447AF2068011D21600068CF
:100C2000290501D506701BE7290701D5068017E7BE
:100C3000A90703D5F117C0E9006111E706600FE7C6
:100C400045F040006060A80723464FF0080216D424
:100C50001EE040F60E0125EA0100606016E045F056
:100C600040006060A80723464FF00A0207D40FE057
:100C700045F040006060A80708D5234610226FF0B9
:100C800001000B99AFF3008059E007E023461022E2
:100C90006FF001000B99FFF7D5FB50E04FF0000912
:100CA0004F464B46632802D05B2806D040E0E8065A
:100CB00001D40120A06001273AE062690121019876
:100CC00090475E2805D14FF00109626949460198B5
:100CD0009047216939B900210A46534643F821203B
:100CE000491C0829FADBB0B3216969B9C11700EBC7
:100CF000D16253110AEB830122F01F02821A0120F4
:100D00000B68904003430B60626901210198904792
:100D10005D28E8D1B9F1000F09D00020514651F803
:100D20002020D24341F82020401C0828F7DB02ABEA
:100D3000224600976FF001000B99AFF30080002866
:100D40000CDA401C08D1BBF1000F05D04FF0FF308A
:100D50000DB0BDE8F08FFFE74046F9E7E90701D1A4
:100D600008F1010806444FF0000B79E6CCCCCC0C1E
:100D700010B5141E73F1000408DA401C41F10001A3
:100D800092185B411A4301D120F0010010BD2DE9FA
:100D9000F04D92469B4611B1B1FA81F202E0B0FAF1
:100DA00080F220329046FFF709FC04460F4640EAE5
:100DB0000A0041EA0B0153465A46084313D0114634
:100DC00053EA010019D0C8F140025046FFF705FC74
:100DD00005460E46504659464246FFF7EFFB08438C
:100DE00005D0012004E020463946BDE8F08D002002
:100DF000054346EAE0762C4337430A986305E40A44
:100E0000A0EB08000022FD0A44EA47540A3002D54C
:100E100000200146E9E7010510196941DDE90845AF
:100E200000196941BDE8F04DA2E700007F2801D913
:100E3000002208E0064A02EB5002C007127800D1F7
:100E4000120902F00F020120904008407047000094
:100E5000345E000870B58C1810F8015B15F00703BC
:100E600001D110F8013B2A1106D110F8012B03E043
:100E700010F8016B01F8016B5B1EF9D12B0705D44B
:100E80000023521E0DD401F8013BFAE710F8013B94
:100E9000CB1A921C03E013F8015B01F8015B521EB0
:100EA000F9D5A142D8D3002070BD0000014800F060
:100EB00043B900003C050020464910B54A6822F4B9
:100EC00040324A604A6843681A434A6001684A6887
:100ED00022F480724A6001684A68036942EA032288
:100EE0004A6001684A6822F040724A6001684A68B4
:100EF00083681A434A6001688A6822F400628A6043
:100F000001688A68C3681A438A60816A6FF07062F8
:100F1000D14201688A6822F070628A6001688A683A
:100F20000CD0836A1A438A6001688A6822F04052B2
:100F30008A6001688A68C36A1A4301E022F040525D
:100F40008A6001688A6822F002028A6001688A6801
:100F5000037E42EA43028A6090F82010002901686B
:100F60004A680FD042F400624A6001684A6822F47D
:100F700060424A6001684A68174C436A04EB433395
:100F80001A4301E022F400624A600168CA6A22F44E
:100F90007002CA620168CA6A838B104C04EB035367
:100FA0001A43CA6201688A6822F400728A60016882
:100FB0008A6890F8303042EA43228A6001688A6881
:100FC00022F480628A6001688A68406942EA80206F
:100FD000886010BD0023014000E0FFFF0000F0FF2B
:100FE000FEE770477047000078B50024009490F841
:100FF0003C20012A19D0012280F83C200A680723EE
:101000000568092A13D9EE680A3A02EB42029340B6
:101010009E43EE600B788A680A3B03EB43039A40D9
:101020000368DD682A43DA6010E0022078BD2E698B
:1010300002EB420293409E432E610B788A6803EBD9
:1010400043039A4003681D692A431A614A681F23B3
:10105000072A13D205686E6B521E02EB8202934080
:101060009E436E630B790A885B1E92B203EB830387
:101070009A4003685D6B2A435A6327E005680D2A8E
:1010800012D22E6BD21F02EB820293409E432E633C
:101090000B790A88DB1F92B203EB83039A40036843
:1010A0001D6B2A431A6311E0EE6A0D3A02EB8202CD
:1010B00093409E43EE620B790A880D3B92B203EB9C
:1010C00083039A400368DD6A2A43DA62164B056897
:1010D000144A9D4206D10D68122D03D1556845F47E
:1010E0008005556005689D4218D10B68102B01D012
:1010F000112B13D1536843F400035360096810297E
:101100000CD10A490A4A0968B1FBF2F101EB8101ED
:10111000490000E0491E00910029FBD180F83C40C5
:10112000002078BD0023014000200140B8010020CC
:1011300040420F007047704770B504460068016870
:101140004268C1F34001C2F3401251B34AB3216C6B
:10115000C90603D4216C41F400712164816811F047
:10116000405F17D1217EA9B9C16A11F4700F02D076
:10117000816849050ED4416821F020014160206C4E
:1011800020F480702064206CC00403D4206C40F0F4
:10119000010020642046FFF7CDFF21686FF01200A8
:1011A0000860206801684268C1F38001C2F3C01280
:1011B00089B382B3216CC90603D4216C41F4005178
:1011C0002164816811F4401F1ED1816B11F4401F0E
:1011D00002D08168490517D44168490514D4816853
:1011E00011F0405F10D1217E71B9416821F080017A
:1011F0004160206C20F480502064206CC00503D432
:10120000206C40F0010020642046FFF7EBFE2168CF
:101210006FF00C00086020680168426811F0010F4F
:10122000C2F380120ED06AB10068C0070AD0206CE9
:1012300040F480302064204600F046F821686FF0CA
:1012400001000860206801684268C1F34011C2F3E0
:10125000806200290DD0002A0BD0616C41F00201A0
:1012600061646FF0200505602046FFF764FF206889
:10127000056070BD70B504004FF0000503D0206C10
:10128000002610B107E0012070BD204600F01EF8D6
:10129000666484F83C60206CC00610D4206C20F496
:1012A000885040F0020020642046FFF705FE666487
:1012B000206C20F0020040F00100206400E00125D5
:1012C00084F83C60284670BD7047000010B586B0B9
:1012D000044614216846FFF768F8154920688842DB
:1012E00024D114480021026842F480720260006830
:1012F00000F4807005900F481438026842F0010233
:101300000260006800F001000590072000900320B3
:10131000CDE901016946084800F022F800220521C4
:10132000122000F087F9122000F076F906B010BD07
:1013300000200140443802400000024090F835107F
:10134000022903D08021416501207047052180F8E2
:1013500035100068016821F001010160002070472C
:101360002DE9F84FDFF87CB100224FF001084FF073
:10137000030A4FF00F090BF1040E00BF0B6808FAC7
:1013800002F42340A3426ED14D68022D01D0122DEC
:101390000ED1D50800EB850CDCF820505607F70E6F
:1013A00009FA07F6B5430E69BE402E43CCF820601B
:1013B000066855000F790AFA05FC07F0030726EACC
:1013C0000C06AF40374307604E68012E05D0022E51
:1013D00003D0112E01D0122E0ED18668CF6826EAD6
:1013E0000C06AF40374387604668A6430C79C4F3C8
:1013F0000014944034434460C6688C6826EA0C06A6
:10140000AC403443C4604C68E40065D5364C256874
:1014100045F480452560246822F0030504F48044E7
:101420000094324C2E19D6F8084895072F0F09FA68
:1014300007F5AC432E4DA84201D1002524E02D4DE7
:10144000A84201D101251FE02B4DA84201D1022560
:101450001AE02A4DA84201D1032515E0284DA842E3
:1014600002D1042510E037E0264DA84201D1052520
:101470000AE0254DA84201D1062505E0234DA842EA
:1014800001D1072500E00825BD402543C6F80858CE
:10149000DBF800405D464E689C43F60300D51C43D4
:1014A0002C60DEF8004075464E689C43B60300D5BC
:1014B0001C432C600B4D08352C684E689C43F6028B
:1014C00000D51C432C60074D0C352C684E689C439E
:1014D000B60200D51C432C60521C102AFFF44EAFFC
:1014E000BDE8F88F003C0140443802400030014024
:1014F000000002400004024000080240000C0240CC
:10150000001002400014024000180240001C02407B
:101510000AB1816170470904FBE700000148806857
:1015200070470000AC010020024881680278114435
:1015300081607047AC0100200B4810B5016841F490
:1015400000710160016841F480610160016841F44B
:1015500080710160032000F08DF8002000F006F893
:1015600000F03EF8002010BD003C024010B50146DE
:1015700088B000221E2000F05DF81E2000F04CF81C
:1015800013480024016841F004010160006805A9C6
:1015900000F004000690684600F016F900F034F9F7
:1015A0000C494000B0FBF1F10C480B4A491E0260A7
:1015B00040F2E732C0E90324C0E9011400F09BFBCC
:1015C00010B1012008B010BD044800F0C1FBF9E7DC
:1015D0004038024040420F00000800401C07002035
:1015E0000C4882B0016841F480410160006800F459
:1015F000804000900748001F016841F08051016061
:101600000068002200F0805000900F21901E02B070
:1016100000F010B844380240002809DB00F01F0237
:10162000012191404009800000F1E020C0F8001144
:1016300070470000F0B40E4B1B680C46C3F3022346
:10164000C3F10705042D00D90425191D072901D26E
:10165000002300E0DB1E012606FA05F1491E2140A9
:1016600099409E40761E16403143F0BC01F08EBC7E
:101670000CED00E0064900F0070208684FF6FF0392
:10168000184040EA0220034A1043086070470000F7
:101690000CED00E00000FA052DE9F0470E460500CC
:1016A00065D0DFF81481D8F80000F7B200F00F0021
:1016B000B04207D288F80070D8F8000000F00F00A0
:1016C000B04254D128683D4C810712D5400703D55C
:1016D000206840F4E05020602878000703D5206897
:1016E00040F4604020602068A96820F0F0000843C2
:1016F00020602878C0072DD0304968680839012853
:1017000012D0022813D0032811D0096889070029B4
:101710002DDA216821F0030101432160FFF7FEFE6D
:10172000814641F2883A0EE009688903EFE70968CB
:101730008901ECE7FFF7F2FEA0EB0901514502D960
:101740000320BDE8F0872068696800F00C00B0EB6A
:10175000810FEFD1D8F80010404601F00F01B142DF
:1017600007D90770006800F00F00B04201D00120D7
:10177000E7E72878400705D52068E96820F4E050BD
:10178000084320602878000706D52068296920F4DE
:10179000604040EAC100206000F056F82168084A25
:1017A000C1F30311515CC840064908600020FFF7EF
:1017B000DDFE0020C5E70000003C02400838024082
:1017C000105E0008B80100200F2202600C4A136866
:1017D00003F003034360136803F0F00383601368AE
:1017E00003F4E053C36012684FF4E05303EAD202FB
:1017F00002610448006800F00F00086070470000B4
:1018000008380240003C0240044805490068096865
:10181000044AC1F38221515CC8407047B8010020DE
:1018200008380240205E000804480549006809683D
:10183000044AC1F34231515CC8407047B8010020EE
:1018400008380240205E0008154810B5006810F006
:101850000C02144813D01449042A0FD0082A0ED1C0
:101860000F4C241F2268236802F03F025B0207D559
:101870002068C0F38810A0FB010106E0084610BDF7
:101880002168C1F38811A1FB00010023FEF7F8FCD9
:101890002168C1F30141491C4900B0FBF1F010BDC2
:1018A000083802400024F40040787D012DE9F84F0B
:1018B000050076D02878DFF8F8B2BE4CC00749D0D2
:1018C000DBF800105846C1F38101012908D00068F7
:1018D000C0F3810002280AD1201D0068400206D50D
:1018E0002068800336D568680028E2D032E0686856
:1018F000B0F5803F10D0B0F5A02F206810D020F4B4
:1019000080302060206820F4802020606868A0B1CA
:10191000FFF704FE06460CE0206840F48030F4E750
:1019200040F480202060F7E7FFF7F8FD801B642873
:1019300073D820688003F7D50CE0FFF7EFFD06466B
:1019400005E000BFFFF7EAFD801B6428F0D820689F
:101950008003F7D42878DFF8608280074FF0000911
:101960003ED5DBF80010584611F00C0F09D0006886
:10197000C0F3810002280BD18D48001F006840028F
:1019800006D42068800715D5E868012809D111E040
:10199000E868B8B10120C8F80000FFF7BFFD0646AF
:1019A00005E002E1FFF7BAFD801B0228C0D82068DD
:1019B0008007F7D52068296920F0F80040EAC100C7
:1019C00020600DE0C8F80090FFF7A8FD064604E08F
:1019D000FFF7A4FD801B02281FD820688007F7D4DA
:1019E0002878000722D5724E744869696C3671B147
:1019F00001210160FFF792FD074604E0FFF78EFD2D
:101A0000C01B022809D830688007F7D50EE0C0F85F
:101A10000090FFF783FD074605E083E0FFF77EFDBA
:101A2000C01B02287ED830688007F7D4287840078A
:101A300068D5DFF87CA100270AF1380ADAF800003F
:101A4000C0000BD4DAF8001041F08051CAF8001041
:101A5000DAF80000012700F080500090584E3068FE
:101A6000C00510D4306840F480703060FFF756FD38
:101A7000009005E0FFF752FD0099401A022851D866
:101A80003068C005F6D54A4EA868683601280FD0E0
:101A90000528306810D020F001003060306820F058
:101AA00004003060A868B8B1FFF738FD00900FE07F
:101AB000306840F00100F4E740F004003060F7E7E0
:101AC000FFF72CFD0099411A41F28830814264D819
:101AD00030688007F4D50EE0FFF720FD009007E0A6
:101AE000FFF71CFD0099411A41F28830814254D819
:101AF00030688007F4D42FB1DAF8001021F080515B
:101B0000CAF80010A869C0B3DBF80010C1F3810166
:101B100002294AD00228484607D0C8F86000FFF7DB
:101B2000FDFC00E039E005463AE04746C8F86000B1
:101B3000FFF7F4FC064604E0FFF7F0FC801B0228E8
:101B40002BD820688001F7D4D5E907010843A96A9A
:101B50001C4A490802EB01416A6A41EA82110843C2
:101B600095F82C1040EA01611148001F0160012026
:101B70003866FFF7D3FC054605E014E0FFF7CEFC1E
:101B8000401B022809D820688001F7D50BE000BF70
:101B9000FFF7C4FC401B022802D90320BDE8F88FE0
:101BA00020688001F4D40020F8E70120F6E7000067
:101BB000083802400038024000004742800E474289
:101BC000007000400000FFFF70B5040005D0002544
:101BD000A56294F8510010B106E0012070BD84F8B0
:101BE0005050204600F030F8022084F85100206860
:101BF000016821F040010160D4E901010843D4E902
:101C000003121143084361690843218B01F40071F9
:101C10000843E1690843216A0843A16A084321682F
:101C20000860A069042101EA1040616A0843216844
:101C300048602068C16921F40061C16165650120C7
:101C400084F85100002070BD10B586B00446142100
:101C50006846FEF7AAFB13492068884220D1124843
:101C60000021026842F480520260006800F4805053
:101C700005900D481438026842F0010202600068C5
:101C800000F001000590E02000900220CDE9010164
:101C9000032003900520049069460448FFF760FB89
:101CA00006B010BD00300140443802400000024040
:101CB0007047704770B590F83C20012A19D0012474
:101CC00000F83C4F0222427050F83C3C5A689D6834
:101CD00022F070060A684968324325F080052943DE
:101CE0005A6050F83C2C9160447000210170084605
:101CF00070BD022070BD10B5040003D094F83D0003
:101D000010B107E0012010BD002084F83C002046FF
:101D100000F00CF8022084F83D00211D206800F03E
:101D2000CDFD012084F83D00002010BD08B50068FD
:101D3000B0F1804F08D10548016841F00101016010
:101D4000006800F00100009008BD0000403802402B
:101D50000168CA6842F00102CA600068816801F047
:101D60000701062903D0016841F00101016000204C
:101D7000704770B5044690F83C00012817D0012543
:101D800084F83C50022084F83D002068826822F0EC
:101D9000770222F47F4282600868502830D00DDC40
:101DA00020284DD005DC98B310283BD148E0022014
:101DB00070BD302844D0402834D139E0602828D084
:101DC000702806D0B0F5805F2CD0B0F5005F29D127
:101DD0000AE0CB68D1E90121206800F0D3FD20683A
:101DE000816841F0770109E0CB68D1E901212068E1
:101DF00000F0C8FD2068816841F48041816011E0F5
:101E0000CA684968206800F0CFFD5021206807E0CB
:101E100016E0CA684968206800F018FE6021206852
:101E200000F0BAFD84F83D50002084F83C0070BDFD
:101E3000CA684968206800F0B7FD40212068EFE7D4
:101E4000226801461046EBE7704700002DE9F0419B
:101E5000044690F83C000D4601283DD0012684F848
:101E60003C60022084F83D00AAB3042A46D02068D2
:101E7000082A55D0D5E90027E968036A23F480537E
:101E80000362D0F81CC0036A2CF4407C4CEA07279C
:101E90004FF6FF7C27F470470CEA013139434FF4C9
:101EA000204723F4204307EA02321A43C161026249
:101EB0002068C16921F44061C1612068C169AA68D4
:101EC00041EA0221C0F81C1084F83D60002084F82B
:101ED0003C00BDE8F08101E00220FAE7D5E90012FC
:101EE000EB68206800F072FD2068816921F00C0128
:101EF000816120688169AA6811430FE0D5E9001269
:101F0000EB68206800F0B4FD2068816921F440612D
:101F1000816120688169AA6841EA02218161D3E771
:101F2000D5E9002C2F7B016A21F480710162C1691F
:101F3000036A21F0030141EA0C0121F0F00C39079A
:101F40004FF420674CEA116123F4206307EA022270
:101F50001A43C16102622068C16921F00C01C161AC
:101F60002068C169AA681143ACE710B5040003D02A
:101F700094F83D0010B107E0012010BD002084F866
:101F80003C00204600F00CF8022084F83D00211DA2
:101F9000206800F093FC012084F83D00002010BD73
:101FA00030B587B0044614216846FEF7FEF91B4998
:101FB0002068884230D11A480024016841F00201AB
:101FC0000160006800F002000590154810380168B3
:101FD00041F002010160016801F002010591016810
:101FE00041F0040101600068022500F00400059042
:101FF00001200090CDE9015469460A48CDE9034526
:10200000FFF7AEF9C0200090CDE9015469460648BB
:10201000CDE90345FFF7A4F907B030BD0004004047
:1020200040380240000402400008024070B50446F7
:10203000006801694FF00005C943890715D4C168DC
:10204000C943890711D4E91E016101202077206866
:1020500080698007204602D0FFF7F6FE04E000F01A
:1020600098F8204600F096F8257720680169C94362
:10207000490717D4C168C943490713D46FF0040155
:102080000161022020772068806910F4407F20469B
:1020900002D0FFF7D9FE04E000F07BF8204600F004
:1020A00079F8257720680169C943090716D4C16802
:1020B000C943090712D46FF0080101610420207799
:1020C0002068C0698007204602D0FFF7BDFE04E00B
:1020D00000F05FF8204600F05DF825772068016980
:1020E000C943C90617D4C168C943C90613D46FF0E0
:1020F00010010161082020772068C06910F4407F3A
:10210000204602D0FFF7A0FE04E000F042F820468F
:1021100000F040F8257720680169C943C90708D154
:10212000C168C943C90704D1891E0161204600F076
:1021300033F820680169C943090609D4C168C94355
:10214000090605D46FF0800101612046FFF7B0FD5C
:1021500020680169C943490609D4C168C9434906D1
:1021600005D46FF040010161204600F01FF820689F
:102170000169C94389060BD4C168C943890607D4DC
:102180006FF0200101612046BDE87040FFF791BD6E
:1021900070BD70477047000000680349884201D154
:1021A000FFF7C2B970470000000800407047704751
:1021B00010B504460068C16821F49071C1602068C0
:1021C000416921F001014161206841694FF020021D
:1021D0004B064FF000010FD5436923F040034361E4
:1021E000606B48B108490165606BFFF7A7F848B11B
:1021F000606B016D884705E0E18584F83A20204650
:10220000FFF7D5FF002010BDB72A00087047000077
:1022100070B5026804461068D168536910F00F0F5A
:1022200050D003F0010501F4907635435DD0C2072C
:1022300005D0CA0503D5E26B42F00102E263420712
:1022400005D5DA0703D0E26B42F00202E2638207AF
:1022500005D5DA0703D0E26B42F00402E26302071D
:1022600005D5DA0703D0E26B42F00802E263E26BC5
:10227000002A33D0800604D5880602D5204600F017
:1022800032FC20684069E16BC0F38010090700D47C
:1022900028B3204600F019FC2068416949061AD588
:1022A000416921F040014161606BA0B11B490165AA
:1022B000606BFFF743F8002810D0606B016DBDE83C
:1022C00070400847830610D58B060ED52046BDE822
:1022D000704000F008BC2046FFF798FF70BD204614
:1022E000FFF794FF0020E06370BD030606D50B06E0
:1022F00004D52046BDE8704000F096BD4006F3D5F9
:102300004806F1D5D168204621F04001D160202156
:1023100084F8391000F053F970BD0000A72A0008B6
:1023200070B5040004D094F83900002510B106E01F
:10233000012070BD84F83850204600F023F8242096
:1023400084F839002068C16821F40051C16020463A
:1023500000F014FC2068016921F4904101612068BB
:10236000416921F02A0141612068C16841F40051AE
:10237000C160E563202084F8390084F83A00002029
:1023800070BD0000F0B587B0044614216846FEF722
:102390000CF8404A236840490224012503260727F8
:1023A0003E4893421ED13C4A1432136843F0100356
:1023B0001360126802F0100205920A6842F00102EE
:1023C0000A60096801F00101059171028DE8F200CF
:1023D0006946FEF7C5FF002205212520FFF72AF9EF
:1023E000252030E02C4ADFF8B8C0103263452ED1EA
:1023F000136843F400331360126802F4003205924C
:102400000A6842F001020A600A6802F001020592BD
:102410000A6842F008020A60096801F008010591A3
:1024200008218DE8F2006946FEF79AFF20208DE82A
:10243000F10069461B48FEF793FF00220521262084
:10244000FFF7F8F82620FFF7E7F807B0F0BD1648C9
:102450008342FAD1106840F480201060106800F4C4
:1024600080200590086840F002000860086869460E
:1024700000F0020005904FF440608DE8F1000B4839
:10248000FEF76EFF002205212720FFF7D3F8272053
:10249000D9E700000010014030380240000002403F
:1024A00000440040000C024000480040000402408C
:1024B00090F83A30202B22D1F9B1F2B190F83830AF
:1024C000012B1CD081628285C2850021C16322223A
:1024D00080F83A2080F838100168CA6842F48072A7
:1024E000CA6001684A6942F001024A610068C16835
:1024F00041F02001C1600020704701207047022098
:10250000704770472DE9F843044690F839001F469C
:1025100016460D46202850D1A5B19EB194F838003A
:1025200001284AD0012084F838004FF00008C4F890
:102530003C80212084F83900FEF7F0FFA684814614
:10254000E68426E00120BDE8F883E08C401EE084AC
:10255000A0684B46B0F5805F4FF000024FF080015D
:102560002046009703D000F090FCE8B90DE000F0A1
:102570008CFCC8B928882168C0F30800486020692D
:1025800008B16D1C05E0AD1C03E0216815F8010BD6
:102590004860E08C0028D8D14B46002240212046DC
:1025A000009700F072FC08B10320CCE7202084F8EB
:1025B000390084F838800020C5E70220C3E770475F
:1025C000FEE700007FB500241148009401940294B6
:1025D0000E49039401604FF48031C0E90114046195
:1025E000047680F820400B49C0E90A140125C56132
:1025F000C46080F830404561FEF73CFECDE90045FF
:10260000694603480294FEF7EFFC7FBD00200140BD
:102610003C0500200100000F70B586B0142168460B
:10262000FDF7C3FE22480024016841F0200101604B
:10263000016801F020010591016841F0800101600D
:10264000016801F080010591016841F0010101601C
:10265000016801F001010591016841F0020101608A
:10266000016801F002010591016841F00401016077
:10267000016801F004010591016841F00801016061
:1026800000680C4E00F008004FF4C0650590002271
:1026900029463046FEF73CFF01200095CDE90104B4
:1026A000694630460394FEF75BFE06B070BD00003D
:1026B00030380240001402400C480B494FF40072BD
:1026C00001604FF48271416000218160C16001614D
:1026D000C0E905121022C0E90721416281620A2186
:1026E000C162FFF771BA000000300140840500208C
:1026F00010B586B00024104800940194029403940D
:1027000004944FF080410594C0E900148460C460D3
:1027100004618461FFF7EFFA4FF48050009069463E
:102720000548FFF726FB049404A903480594FFF726
:10273000C1FA06B010BD0000DC05002010B586B05F
:1027400000241848059404940094019402941449B8
:102750000394C0E900144FF6FF71C0E9024104611F
:102760008461FFF702FC049404A90E480594FFF766
:10277000A1FA0120CDE900400420CDE90240002269
:1027800069460848FFF762FB042269460548FFF7DF
:102790005DFB082269460348FFF758FB06B010BDF1
:1027A000000400401C060020FEE7704710B55020D2
:1027B00080F31188BFF34F8FBFF36F8F03F0D4F80E
:1027C00018B104494FF080500860002080F3118850
:1027D00010BD000004ED00E030B593B03021684634
:1027E000FDF7E3FD14210CA8FDF7DFFD19480025D6
:1027F000016841F080510160006800F08050119044
:102800001548016841F4804101600068022400F429
:1028100080401190012003901020049000940694B1
:102820000820CDE90750A820CDE9090404200B9029
:102830006846FFF73BF80CA90F2081E831004FF400
:10284000A0500F90E002109005210CA8FEF724FF85
:1028500013B030BD4038024000700040104801689D
:1028600041F4700101600F48016841F0010101600D
:102870000C4A00210832116002680B4B1A400260BA
:10288000031D0A4A1A60026822F480220260054889
:102890000C3001600249580680390860704700001A
:1028A00088ED00E000380240FFFFF6FE1030002403
:1028B0000148FFF7BBBB00001C070020F0B5026811
:1028C000254C264D264E274F274B4FF0804CA042DB
:1028D00009D0604507D0A84205D0B04203D0B84225
:1028E00001D0984204D122F0700E4A6842EA0E02EA
:1028F000A0421BD0604519D0A84217D0B04215D0D5
:10290000B84213D0984211D0184DA8420ED0184D9D
:10291000A8420BD0174DA84208D0174DA84205D0A9
:10292000164DA84202D0164DA84203D122F440759C
:10293000CA682A434D6922F080022A4302608A68ED
:10294000C2620A688262A04201D0984201D109693C
:10295000016301214161F0BD00000140000400401D
:1029600000080040000C004000040140004001400D
:10297000004401400048014000180040001C004095
:102980000020004010B5846842EA032224F47F440A
:102990000A432243826010BD826822F070020A431B
:1029A00042F007018160704710B5036A046A24F0A1
:1029B00001040462846924F0F00444EA021423F060
:1029C0000A020A438461026210BD000070B5046A05
:1029D00024F0010404628469056A154EB04214D0E3
:1029E000B0F1804F11D0134EB0420ED0124EB04213
:1029F0000BD0124EB04208D0114EB04205D0114E4D
:102A0000B04202D0104EB04203D124F0030414436C
:102A100001E044F001041A0724F0F00444EA1262D1
:102A200025F00A0301F00A0119438261016270BDB9
:102A3000000001400004004000080040000C00407D
:102A400000040140004001400018004010B5036A36
:102A500023F0100303628369046A23F4704343EA9A
:102A6000023224F0A00343EA01118261016210BD29
:102A700030B5046A24F0100404628469056A24F401
:102A8000407444EA022222F470444FF6FF7202EAD4
:102A900003322243A02425F0A00304EA01111943C4
:102AA0008261016230BD10B5806B0021C185C18497
:102AB000FFF7ACFB10BD10B5806B0021C185202154
:102AC00080F83A10FFF773FB10BD0168CA6822F462
:102AD0009072CA6001684A6922F001024A612021AD
:102AE00080F83A10704710B590F83A10222901D0BA
:102AF000022010BD8168B1F5805F11D00169002905
:102B000001681FD0496801F07F03816A4A1C826214
:102B10000B70C18D491E0904090CC18518D02BE02A
:102B20000269816A002A0268526805D0D2B20A801E
:102B3000816A491C8162ECE7C2F308020A80816A5B
:102B4000891CF7E74A68816A4B1C83620A70E0E7D8
:102B50000168CA6822F02002CA600168CA6822F4CB
:102B60008072CA6001684A6922F001024A6120212C
:102B700080F83A10FFF7C5FC002010BD2DE9F041A8
:102B8000044600680169E26821F440511143016183
:102B90002169A068E269084361691143226808431A
:102BA000D16849F20C6399430143D16020684169BF
:102BB000A26921F4407111434161E2696425B2F5D3
:102BC000004F9748974922684FF032083FD08A4219
:102BD00001D082427CD1FEF727FE00EBC00101EB61
:102BE000001061688900B0FBF1F6FEF71DFE00EBF6
:102BF000C00101EB001061688900B0FBF1F0B0FB8F
:102C0000F5F06FF01801484306EB800108EB011066
:102C1000B0FBF5F000F0F006FEF706FE00EBC00199
:102C200001EB001061688900B0FBF1F0B0FBF5F03A
:102C300006EB0016FEF7F8FD00EBC00101EB0010FB
:102C400061688900B0FBF1F7FEF7EEFDD2E08A4241
:102C500001D082423DD1FEF7E7FD00EBC00101EB60
:102C6000001061684900B0FBF1F0B0FBF5F006011F
:102C7000FEF7DAFD00EBC00101EB001061684900CE
:102C8000B0FBF1F7FEF7D0FD00EBC00101EB001047
:102C900061684900B0FBF1F0B0FBF5F06FF018018E
:102CA000484307EB800108EBC100B0FBF5F000F0F2
:102CB000F80006EB4006FEF7B7FD00EBC00101EBA4
:102CC000001061684900B0FBF1F7FEF7ADFD3CE094
:102CD00055E0FEF799FD00EBC00101EB00106168C3
:102CE0004900B0FBF1F0B0FBF5F00601FEF78CFDFA
:102CF00000EBC00101EB001061684900B0FBF1F787
:102D0000FEF782FD00EBC00101EB00106168490095
:102D1000B0FBF1F0B0FBF5F06FF01801484307EBA2
:102D2000800108EBC100B0FBF5F000F0F80006EB05
:102D30004006FEF769FD00EBC00101EB0010616881
:102D40004900B0FBF1F7FEF75FFD00EBC00101EBBE
:102D5000001061684900B0FBF1F0B0FBF5F06FF0D6
:102D60001801484307EB800108EBC100B0FBF5F008
:102D700000F00700216830448860BDE8F081FEF76C
:102D800043FD00EBC00101EB001061688900B0FB5E
:102D9000F1F6FEF739FD00EBC00101EB00106168B0
:102DA0008900B0FBF1F0B0FBF5F06FF0180148437B
:102DB00006EB800108EB0110B0FBF5F000F0F00627
:102DC000FEF722FD00EBC00101EB001061688900F5
:102DD000B0FBF1F0B0FBF5F006EB0016FEF714FDCA
:102DE00000EBC00101EB001061688900B0FBF1F756
:102DF000FEF70AFD00EBC00101EB001061688900DD
:102E0000B0FBF1F0B0FBF5F06FF01801484307EBB1
:102E1000800108EB0110B0FBF5F000F00F00A9E70E
:102E2000001401400010014090F83910212901D010
:102E3000022070478168B1F5805F016A0BD04A1C9F
:102E40000262026809785160C18C491E0904090CAC
:102E5000C1840ED017E009880268C1F308015160EF
:102E600001690029016A02D0491C0162ECE7891C52
:102E7000FBE70168CA6822F08002CA600068C16886
:102E800041F04001C160002070472DE9F0419846B3
:102E900017460E460446069D1DE0681C1BD02DB14A
:102EA000FEF73CFBA0EB0800A84214D92068C168DB
:102EB00021F4D071C1602068416921F001014161B4
:102EC000202084F8390084F83A00002084F8380083
:102ED0000320BDE8F0812068006836EA000004D0D5
:102EE0000020B842D9D00020F3E70120F9E7000024
:102EF000074810B500680068C043800602D400206F
:102F000001F076FABDE810400148FFF781B90000F2
:102F10005C060020074810B500680068C0438006C2
:102F200002D4012001F064FABDE810400148FFF727
:102F30006FB900009C060020074810B500680068C3
:102F4000C043800602D4022001F052FABDE81040CE
:102F50000148FFF75DB90000DC060020FEE7000035
:102F60007CB5044600201D46164600290BD0491E9C
:102F7000CDE90041044B6A462946304600F0E8F8A6
:102F8000009A002111707CBD7F3800080907090EE6
:102F9000002804DB00F1E02080F80014704700F006
:102FA0000F0000F1E02080F8141D704702E008C80F
:102FB000121F08C1002AFAD170477047002001E0B3
:102FC00001C1121F002AFBD1704700002DE9FF5FED
:102FD00082B00021DDE90430020DDDF840B003438A
:102FE00018D044F61050A2F2FF3242431514119843
:102FF00001281FD0A5EB0B00401C5FEA000A4FF030
:1030000000064E4FDFF83891B046504615D5CAF14C
:10301000000413E0119801244AA3012801D16FEAAA
:103020000B010298119AC0E90031C0E9024206B0D2
:10303000BDE8F09FCBF10000DFE704460021404AE5
:10304000491842EB0450CDE9001012E0E00707D028
:1030500032463B4640464946FDF7B9FB8046894625
:1030600032463B4610461946FDF7B1FB06460F4671
:103070006410002CEAD1DDE90401DDE90023BAF196
:10308000000F06DAFDF7A3FB42464B46FDF79FFB18
:1030900005E0FDF70EFC42464B46FDF70AFC0446F0
:1030A0000E460022284BFDF78BFC03D84FF0FF3073
:1030B000014607E00022254B20463146FDF7E0FAA5
:1030C000FDF766FC102409E0002C0ADB0A2200232D
:1030D000FDF7D6F8039B30321A55641E50EA010200
:1030E000F2D1641C039AC4F111031444119A012A09
:1030F00003D0012208430DD10AE0084304D0002088
:103100004FF0110B119072E7A3EB0B056D1E0DE054
:103110005B4504DD4FF0000205F1010504E003DA30
:103120004FF00002A5F10105002AECD00298119998
:10313000C0E90231C0E9004579E700000000144011
:103140000000F03F300000000000F0430000E03FCE
:103150002DE9FF4F95B09B468946064600250FE2B4
:10316000252877D100242746F84A0121059400E05C
:10317000044316F8013F203B01FA03F01042F7D157
:1031800030782A2811D06FF02F033078A0F1300268
:10319000092A16D8059A44F0020402EB820203EBD6
:1031A00042021044761C0590EFE759F8042B059273
:1031B000002A03DA504244F40054059044F002041B
:1031C000761C30782E2816D116F8010F44F004042E
:1031D0002A280DD06FF02F023078A0F13003092B90
:1031E00009D807EB870302EB4303C718761CF3E704
:1031F00059F8047B761C30786C280FD006DC4C28FC
:1032000017D068280DD06A2814D104E0742810D093
:103210007A280FD10DE044F400140AE044F480143D
:1032200001E044F440147278824202D104F5801423
:10323000761C761C307866280BD013DC582877D0A3
:1032400009DC002875D04528F6D04628F4D0472858
:103250001AD19DE118E0632835D0642879D065281B
:1032600012D195E1702873D008DC6728F1D0692865
:103270006FD06E280DD06F2806D1B5E073282CD002
:10328000752875D0782874D05A46179990476D1CC8
:1032900075E1C4F30250022809D003280DD0D9F8F3
:1032A000001004280DD00D6009F1040967E1D9F878
:1032B0000010EA17C1E90052F6E7D9F800100D80B6
:1032C000F2E70D70F0E719F8041B8DF800100020EC
:1032D0008DF80100EA46012003E059F804AB4FF0F5
:1032E000FF3061074FF0000102D40DE008F1010149
:1032F0008846B9420FDA8045F8DB1AF80810002931
:10330000F4D108E008F1010188468142FADB1AF89D
:1033100008100029F6D105985B46A0EB0807214666
:103320003846179A00F094FA284400EB080507E0A5
:103330004DE029E10DE01AF8010B5A461799904724
:10334000B8F10108F7D25B4621463846179A13E1D7
:1033500042E00A220092C4F302524FF0000A022A0D
:1033600008D059F804CB032A4FEAEC710AD00DE0DB
:1033700029E02AE009F1070121F00702F2E802C181
:10338000914609E00FFA8CFC4FEAEC71042A03D154
:103390004FFA8CFC4FEAEC71002907DA0A4600214B
:1033A000DCF1000C61EB02012D2202E0220504D5C4
:1033B0002B228DF80420012203E0E20701D0202215
:1033C000F7E7904659E00A2102E010220DE01021B3
:1033D0004FF0000A00910BE010224FF0000A44F079
:1033E00004040827009203E008224FF0000A00922C
:1033F000C4F30252022A05D059F804CB0021032A53
:1034000008D009E009F1070121F00702F2E802C142
:10341000914605E01FFA8CFC042A01D10CF0FF0C48
:103420004FF00008220728D5702806D0009B83F0B3
:10343000100353EA0A0305D00EE040228DF8042061
:10344000012208E05CEA010206D030228DF8042057
:103450008DF8050002229046009B83F0080353EA92
:103460000A030AD15CEA010201D1620705D53022C4
:103470008DF804204FF001087F1E582804D034A096
:1034800003900EA802900DE036A0F9E7534660467F
:10349000009AFCF7F5FE84460398825C0298401E71
:1034A000029002705CEA0100F0D1029806A9081AA5
:1034B00000F1200A600702D524F4803400E00127DF
:1034C000574502DDA7EB0A0000E0002000EB0A01EF
:1034D000009005984144401A0590E00306D45B46ED
:1034E0002146179A059800F0B3F90544002706E035
:1034F00001A85A46C05D179990476D1C7F1C47452F
:10350000F6DBE0030CD55B462146179A059800F0E0
:103510009FF9054404E030205A46179990476D1CE6
:103520000099481E00900029F5DC08E002980299F5
:103530005A460078491C0291179990476D1CBAF1C0
:103540000001AAF1010AF1DC65E10000092801008F
:103550003031323334353637383961626364656609
:1035600000000000303132333435363738394142CB
:10357000434445460000000000F058F90544761C1D
:10358000307800287FF4ECAD19B02846BDE8F08F04
:10359000620700D4062709F1070222F0070CFCE8B5
:1035A0000223E14603F000485FEA080C02D00FF264
:1035B000702C0DE05FEA045C02D50FF2682C07E086
:1035C0005FEAC47C02D00FF2602C01E0AFF2700C15
:1035D0004FF0FF3823F00043CDF850C065280CD0E1
:1035E00006DC452809D046281DD047283DD13DE0BE
:1035F000662818D067287ED138E00021112F01DB22
:10360000112000E0781CCDE9000106A90EA8FFF703
:10361000DDFCDDE90F010E9A03910021009207F114
:10362000010A04914DE04FF000400097CDE90110F0
:1036300006A90EA8FFF7CAFCDDE90F0203920E9B54
:1036400011990022DDF80CA00093049211B9791CA5
:1036500000EB010AB7EB0A0004D4C0F1FF3007F118
:10366000010A0490AAEB0700019044E0012F00DA60
:1036700001270021112F01DD112000E03846CDE99E
:10368000000106A90EA8FFF7A1FCDDE90F010E9AC3
:103690000391002104910092BA4621070CD40399AA
:1036A000514500DA8A46BAF1010F05DD009AAAF108
:1036B0000101515C302908D0B84202DA10F1040F40
:1036C00006DA0121CDE9011015E0AAF10101E9E7CF
:1036D000002805DC049901440491AAEB000102E0F2
:1036E000411C514500DD8A460499401A401C019056
:1036F0004FF000400290200704D40198504501DBB0
:10370000CDF8048000208DF84F0002980DF14F078E
:10371000B0F1004F25D02B200E9002984FF00208F8
:1037200000280CDA404202902D200E9007E00A217A
:103730000298FCF72DFF3031029007F8011DB8F117
:103740000001A8F10108F2DC02980028EFD1791EEF
:103750000E980870307800F0200040F0450007F81F
:10376000020D12A8C01B00F107081498007800B1E0
:10377000012000EB0A01019801EBE071059841443A
:10378000401A401E0590E00306D45B462146179A76
:10379000059800F05DF805441498007818B15A4671
:1037A000179990476D1CE00324D55B462146179A74
:1037B000059800F04DF805441CE00498002807DB4C
:1037C000DDE90301884203DD0098405C179901E0C0
:1037D000179930205A469047049805F10105401C7E
:1037E00004900198401E019004D12E205A4617994A
:1037F00090476D1CBAF10001AAF1010ADDDC05E079
:1038000017F8010B5A46179990476D1CB8F1000143
:10381000A8F10108F4DC5B462146179A0598ABE64F
:103820002D0000002B000000200000002DE9F041D9
:10383000044600251E461746880404D405E0394690
:103840002020B0476D1C641EF9D52846BDE8F081E4
:103850002DE9F041044600251E469046C80301D5D7
:10386000302700E02027880404D505E0414638468B
:10387000B0476D1C641EF9D52846BDE8F0814A6842
:10388000002A06D00A68531C0B6010704868401E5E
:103890004860704708B500208DF8000000F0F0FA8D
:1038A0000CA001F075FA01460F4B55220FA000F055
:1038B000B7FB15A000F0B4FB144D4FF0FF342246C7
:1038C0006946286801F034FF9DF8000000F0FCF91B
:1038D000F5E700002E2E5C5372635C6170705F63CD
:1038E0006F72652E63000000385D00085B25733A37
:1038F00025642025735D207461736B20636F72658E
:1039000020737461727400000D0A00009801002099
:1039100008B50020009000F0B3FA0DA001F038FACD
:103920000146104B892210A000F07AFB15A000F090
:1039300077FB154D4FF0FF3422466946286801F0A9
:10394000F7FE05221149009800F0EEFCF4E70000B4
:103950002E2E5C5372635C6170705F6D61696E2EB8
:1039600063000000715D00085B25733A2564202523
:10397000735D207461736B206D61696E2073746177
:10398000727400000D0A00009C0100202C00002031
:1039900008B50020009000F073FA0DA001F0F8F9CE
:1039A0000146104B40F24F120FA000F039FB15A05A
:1039B00000F036FB144D4FF0FF342246694628686C
:1039C00001F0B6FE04221149009800F0ADFCF4E7C6
:1039D0002E2E5C5372635C6170705F6D6F64656DF9
:1039E0002E6300007A5D00085B25733A256420256C
:1039F000735D207461736B206D6F64656D207374EB
:103A0000617274000D0A0000A00100205400002023
:103A100010B5044601460F22034801F0C7FA2046BC
:103A2000BDE8104001F044BBDC06002010B50020CA
:103A300000F026FA06A001F0ABF90146084B24225B
:103A400008A000F0EDFA0BA000F0EAFA002010BD8B
:103A50002E2E5C5372635C64656275672E63000092
:103A6000845D00085B25733A25642025735D204F33
:103A70004B0000000D0A00004FF0FF307047704708
:103A800070B500240CA000F0CBFA11A000F0C8FA29
:103A9000104D08E010A000F0C3FA0DA000F0C0FA2D
:103AA000641C0E2C06D204EB840005EB80010A692D
:103AB000002AEFD1002070BD5B44454255475D3E72
:103AC000737570706F727420636D643A000000004B
:103AD0000D0A0000740000205B44454255475D3EDE
:103AE00009257309257000004FF0FF3070474FF033
:103AF000FF30704710B5032000F0C2F907A001F0B5
:103B000047F90146094B4FF4D97209A000F088FA31
:103B10000DA000F085FA4FF0FF3010BD2E2E5C5343
:103B200072635C64656275672E630000945D0008D3
:103B30005B25733A25642025735D20434D44206541
:103B400072726F72000000000D0A00004FF0FF302B
:103B500070474FF0FF30704700B587B005AA04A941
:103B6000CDE9001203AB02AA12A1FCF74FFC042816
:103B700012D0032000F084F913A001F009F90146E6
:103B8000154B40F2E51215A000F04AFA1CA000F017
:103B900047FA012007B000BDBDF91430BDF910206F
:103BA000BDF90C10BDF9080000F061F8FFF730FF17
:103BB0000020EFE76D6F76653A25642C25642C258F
:103BC000642C2564000000002E2E5C5372635C643C
:103BD000656275672E6300009D5D00085B25733A82
:103BE00025642025735D204D4F564520504152419C
:103BF0004D45544552204552524F520D0A00000087
:103C00000D0A00004FF0FF307047000010B5032090
:103C100000F036F907A001F0BBF80146094B40F26D
:103C2000751209A000F0FCF90DA000F0F9F94FF0B1
:103C3000FF3010BD2E2E5C5372635C646562756745
:103C40002E6300008B5D00085B25733A25642025F8
:103C5000735D20434D44206572726F720000000056
:103C60000D0A00004FF0FF307047002070472DE92B
:103C7000F0410746984615460E4600240F2001F0F5
:103C800005F8F52101705F21417008218170022241
:103C9000C27001714771390A8171C671310A0172AE
:103CA0004572290A817280F80B804FEA182101734E
:103CB0001146425C491C2244D4B20D29F9DBE14390
:103CC0004173BDE8F081000010B51A4A002100BF21
:103CD00012F83130834217D102EBC100406810B1B5
:103CE000BDE810400047002000F0CAF812A001F023
:103CF0004FF80146154B442215A000F091F91EA083
:103D000000F08EF9002010BD491C0529E0D30320E6
:103D100000F0B6F808A001F03BF801460B4B4A2230
:103D200016A000F07DF914A000F07AF94FF0FF30F2
:103D300010BD0000040000202E2E5C5372635C61F5
:103D400070705F636F72652E63000000285D00086D
:103D50005B25733A25642025735D20636F726520AF
:103D60006D7367202825642920686173206E6F2099
:103D700068616E646C6572000D0A00005B25733A21
:103D800025642025735D20756E6B6E6F776E2063E2
:103D90006F7265206D73672028256429000000007C
:103DA00010B501F04DF8002010BD10B501F06EF80F
:103DB000002010BD10B501F08FF8002010BD0020CC
:103DC00070470020704700002DE9F0418846074603
:103DD0000025194E0BE02046FCF7F2FA0246214678
:103DE0003846FCF7F4FAE8B16D1C0E2D06D205EB4F
:103DF000850006EB800420690028ECD1022000F049
:103E00003FF80EA000F0C4FF0146104B4FF40172C2
:103E10000FA000F005F916A000F002F94FF0FF30F6
:103E2000BDE8F08105EB850006EB800041460269A4
:103E30003846BDE8F0411047740000202E2E5C5338
:103E400072635C64656275672E630000A65D00089E
:103E50005B25733A25642025735D20434D44206E15
:103E60006F742070726F6365737365640000000087
:103E70000D0A0000EFF30580002800D001207047F4
:103E800038B5044601F06AFD4FF47A71B0FBF1F0E9
:103E900000906846FCF726FAD0E90121036811A0DA
:103EA00000F0BEF8052C0ED2DFE804F00305070988
:103EB0000B0010A408E010A406E010A404E010A475
:103EC00002E010A400E010A401F034FD10B100F0F5
:103ED00059FB00E00DA02246BDE8384001460CA089
:103EE00000F09EB8253032643A253032643A2530ED
:103EF0003264000044000000570000004900000048
:103F00004500000046000000000000006F73000044
:103F1000205B25735D5B25735D0000002DE9F04794
:103F200081460E46002431A000F07AF8214631A0E7
:103F300000F076F8641C102CF8DB2CA000F070F870
:103F4000002421462DA000F06BF8641C102CF8DB37
:103F50002BA000F065F8002444E0E01704EB10709B
:103F6000012101EB201127A000F05AF8254604F1A9
:103F7000100705E019F8051024A000F051F86D1C99
:103F8000BD4201DAB542F5DBB54211D130070FD0A1
:103F9000F01706EB1070002520F00F00301AC0F16A
:103FA000100803E01BA000F03BF86D1CA845F9DCED
:103FB0000EA000F035F80DE019F80410A1F1200072
:103FC0005F2803D314A000F02BF802E013A000F048
:103FD00027F8641CBC4201DAB442EDDB08A000F013
:103FE0001FF83C46B442B8DBBDE8F0872020202013
:103FF0000000000025582020000000002558000087
:104000000D0A00002530326420200000253032786F
:1040100020000000202020002E000000256300006A
:104020000FB410B5FEB04FF4FA7421466846FCF7A1
:10403000BCF981AB21466846809AFEF791FF68463D
:10404000FCF7BEF982B26946034800F0AFFF7EB0CC
:1040500010BC5DF814FB00005C06002098B0FDF772
:104060006BFAFEF7B9FBFEF7D7FAFEF741FBFEF756
:10407000A9FAFEF721FB424840494FF4E1350024FC
:104080000160C0E901540C26C460C0E904468461A3
:10409000C461FEF745F93A483A4940300160C0E949
:1040A0000154C460C0E904468461C461FEF738F974
:1040B0003348354980300160C0E90154C460C0E92B
:1040C00004468461C461FEF72BF9FEF737FB00F06C
:1040D00075FE2E4D002201212868159015A800F0CC
:1040E00011FA2B4C00220121A0616868169016A8D5
:1040F00000F008FAE0610121A06900F015FAD5E9A5
:104100000201CDE90F0100210FA800F0E0F9E06005
:10411000D5E90401CDE91101002111A800F0D7F97A
:104120002061D5E90601CDE91301002113A800F0B3
:10413000CEF96061142205F120016846FCF71CF9F4
:104140000021684600F0C7F92060142205F134010F
:1041500005A8FCF711F9002105A800F0BCF9606082
:10416000142205F148010AA8FCF706F900210AA863
:1041700000F0B1F9A06000F0A5F9FEE700100140E1
:104180005C0600200044004000480040B45D000888
:104190008C0100201CB504460020FFF771FE0BA027
:1041A00000F0F6FD0146A21C6078CDE900020C4B40
:1041B00016220CA0FFF734FF16A0FFF731FF61783D
:1041C000A01CFFF701FE00201CBD00002E2E5C533A
:1041D00072635C6170705F6D61696E2E63000000D8
:1041E000415D00085B25733A25642025735D2075C9
:1041F0007361727431207265636965766520256428
:104200002062797465732C20646174613A2025738F
:10421000000000000D0A000038B504460020FFF73A
:104220002FFE0AA000F0B4FD0146607800900C4B10
:104230001F220CA0FFF7F4FE16A0FFF7F1FE617835
:10424000A01CFFF76BFE002038BD00002E2E5C5333
:1042500072635C6170705F6D61696E2E6300000057
:10426000515D00085B25733A25642025735D20624B
:104270006C7565746F6F74682072656369657665C7
:104280002025642062797465732C20646174613A1E
:10429000200000000D0A000038B504460020FFF79A
:1042A000EFFD08A000F074FD0146607800900A4B15
:1042B00028220AA0FFF7B4FE11A0FFF7B1FE0020EC
:1042C00038BD00002E2E5C5372635C6170705F6DB0
:1042D00061696E2E63000000615D00085B25733A22
:1042E00025642025735D20757361727433207265B7
:1042F00063696576652025642062797465730000C2
:104300000D0A000000207047002070470146002081
:10431000842900D0C81C70470020704700207047D7
:104320000020704700207047F8B504460020451E65
:1043300023E0237811F83060B3421DD101EBC000B7
:10434000416819B120468847054610E00020FFF774
:1043500097FD11A000F01CFD014620780090124B43
:104360005F2212A0FFF75CFE19A0FFF759FE20465E
:1043700000F09EFE2846F8BD401C9042D9DB032089
:10438000FFF77EFD04A000F003FD014620780090B9
:10439000054B66220FA0E5E72E2E5C5372635C6D21
:1043A00073672E6300000000115D00085B25733AFF
:1043B00025642025735D20636D6420256420686179
:1043C00073206E6F2068616E646C6572000000007F
:1043D0000D0A00005B25733A25642025735D207566
:1043E0006E6B6E6F776E20636D6420256400000035
:1043F00008B500238DF8000003481A466946006896
:1044000001F038F908BD0000980100202DE9F843BB
:1044100006461C4690460D46D81C00F037FC4FF06F
:10442000FF37009078B100F8015B224600F8014B9D
:104430004146FBF7A1FF0099002021448870A6B1F6
:10444000022E0FD116E00320FFF71AFD0DA000F099
:104450009FFC01460F4B2F220FA0FFF7E1FD16A096
:10446000FFF7DEFD3846BDE8F88300231A466946AB
:10447000124803E0002312481A466946006801F01A
:1044800049F8F0E72E2E5C5372635C6D73672E6300
:1044900000000000045D00085B25733A25642025B8
:1044A000735D206D7367206D616C6C6F6320666156
:1044B000696C6564000000000D0A00009C0100208A
:1044C000A001002010B500F0D5FE002010BD03C8EB
:1044D000002200F0B7BF3EB504460D46B0F9080013
:1044E000FFF714FF02A9CDE90001208A2B4682B212
:1044F000D4E9001001F0F2F9012801D000203EBDFE
:1045000002983EBD08B500680090012907D0002040
:1045100013460246012103A001F072FB08BD0120F1
:10452000F6E70000000000002DE9FC4100250746E9
:104530002E4601950C0000D10124FFF79BFC00964C
:1045400090B101AB22460921384601F0A5FB0128B4
:1045500012D1019888B10A494FF080500860BFF32A
:104560004F8FBFF36F8F08E00023224604213846A7
:1045700001F092FB012800D0FF252846BDE8FC8110
:1045800004ED00E008B90648006808B1343070470F
:10459000502080F31188BFF34F8FBFF36F8FFEE77A
:1045A000BC0100202DE9F041184C0F460546666914
:1045B0002068001D00F003FD38B9206890F82C1029
:1045C00001208840A1698143A161681C07D137B1EE
:1045D0002168BDE8F0410E48091D00F029BD2068A2
:1045E0003544B5424560216805D2A068BDE8F04178
:1045F000091D00F005BD6068091D00F001FD206B7C
:10460000854200D22563BDE8F0810000BC01002096
:10461000780800202DE9F041054600F015FD2E4CEC
:104620002069401C206120682C4F10B1E06940B324
:104630002DE025602069012829D1002606EB86009F
:1046400007EB800000F0CEFC761C072EF6D3234843
:104650008C3000F0C7FC2148A03000F0C3FC1F489C
:10466000B43000F0BFFC1D48C83000F0BBFC1B4854
:10467000DC3000F0B7FC19488C3060601430A0606A
:1046800005E02068E96AC06A884200D82560E06ACF
:10469000401CE062E96A0120A26988401043A061E1
:1046A00001EB810007EB8000291D00F0C1FC00F048
:1046B000EBFCE06900280CD02068E96AC06A8842F7
:1046C00007D207494FF080500860BFF34F8FBFF308
:1046D0006F8FBDE8F0810000BC0100209C07002026
:1046E00004ED00E010B500F0AFFC0E4CA068A0B9DE
:1046F0000D4800F077FC0C48143000F073FC0A48B9
:1047000020601430606000220C210A2000F09AFE24
:10471000A06010B105A100F035FDBDE8104000F02B
:10472000B3BC0000F80100208C080020546D7251C9
:104730000000000030B4026C0B46002A0BD0C168A8
:104740001144C1604468A14201D30168C16030BC1A
:104750001846FBF711BE30BC70472DE9F041856B60
:10476000174604460026026C82B1C7B1E068FBF729
:1047700003FEE168206C091AE1602268914202D2CE
:104780006168081AE060022F16D017E02068A8B907
:10479000606801F04DF90646002060600EE0A068F8
:1047A000FBF7EAFD216CA0680844A06061688842BC
:1047B00004D32068A06001E005B16D1E6D1CA563E7
:1047C0003046BDE8F08110B50446006B00F070FC87
:1047D0002046BDE8104000F06BBC00000F484CF2D2
:1047E0005031420705D0C01D0C4A20F00700821A44
:1047F000891A0B4A00230144C2E900030839103A20
:1048000021F0070111604B600B600B1AC0E9001327
:1048100093604FF000405360D0607047B4080020B0
:104820001C020020144E154CA6F1C8074FF080580A
:10483000DFF84C9012E000BF00F006FCF068C5689D
:10484000281D00F0BCFB2069401E2061E068401E6E
:10485000E06000F019FC2846FFF7B5FFE06800288B
:10486000EAD138680128F9D9C9F80080BFF34F8F21
:10487000BFF36F8FF2E7000064080020BC01002046
:1048800004ED00E02DE9F0479A46DDE90984814610
:104890006FF00303206B03EB82021044089D20F0AD
:1048A0000706700707D0502080F31188BFF34F8FA1
:1048B000BFF36F8FFEE723180A5C83F834200A5C8D
:1048C00012B1401C1028F6D3002784F84370072D3E
:1048D00000D30625E562C4E91157201D00F08DFBC9
:1048E00004F1180000F089FB2461C5F1070064623F
:1048F000A061E76484F8507052464946304600F0A3
:1049000031FA2060B8F1000F01D0C8F80040BDE8CE
:10491000F087000030B5114900E011460A68824274
:10492000FBD34B685C18844203D14068184448604C
:10493000084643681C18944209D1084C103C24686E
:10494000A24209D052681A4442600A6812680260A2
:10495000814200D0086030BD0460F9E71C020020ED
:1049600070B5002441600B4D0061914206D8D11A08
:104970008269914206D2011D686807E09A4203D21B
:10498000994201D3012403E0011D286800F038FB9F
:10499000204670BDF801002010B5044600F054FB1D
:1049A000A06B28B15FF0000400F06EFB204610BD44
:1049B0000124F9E730B587B02B4D4BE0049800286F
:1049C00048DB069C606910B1201D00F0F8FA02A8CF
:1049D00000F0B6F8024604980A283BD2DFE800F05F
:1049E0000505053A263705053A260598A1690346C7
:1049F00001442046FFF7B4FF00B3616A20468847B0
:104A0000E069012826D1002000900598A1690023C3
:104A100042181946204601F03FF978B9502080F33A
:104A20001188BFF34F8FBFF36F8FFEE70598A0612A
:104A300028B1811813462046FFF792FF0AE0502064
:104A400080F31188BFF34F8FBFF36F8FFEE72046CF
:104A500000F02EFB002204A9A86800F069FE0028DF
:104A6000ACD107B030BD0000F80100202DE9FC41B9
:104A70000F46054600F036FC01A800F061F8044638
:104A8000019818B101F05AF8BDE8FC81224EAFB18F
:104A900070680068A8B30027291B3A46B06800F088
:104AA00085FB01F04BF80028EED11C494FF08050F7
:104AB0000860BFF34F8FBFF36F8FE5E7A542EBD8D8
:104AC00001F03CF830682746C068C468201D00F03B
:104AD00076FAE069012810D1A0692B4641193A46BF
:104AE0002046FFF73DFF40B10020034601460090FD
:104AF0002A46204601F0D0F820B1616A2046884756
:104B0000C2E707E0502080F31188BFF34F8FBFF357
:104B10006F8FFEE70127BFE7F801002004ED00E0FA
:104B200006484168096829B14168C968C968496887
:104B3000016370474FF0FF31FAE70000BC0100202D
:104B400070B5054600F00AFF064E044630698442FF
:104B500003D200F009F8012000E000202860204680
:104B6000346170BDF8010020F8B5194D1FE0C06830
:104B7000C4680668201D00F022FA616A2046884752
:104B8000E069012813D1A0693044B04206D92461FC
:104B90006060211D286800F033FA08E00020034619
:104BA000014600903246204601F076F838B1286878
:104BB00001680029DBD16968C5E90010F8BD502003
:104BC00080F31188BFF34F8FBFF36F8FFEE70000B4
:104BD000F801002008484068401C4FF0500080F366
:104BE000118804D0BFF34F8FBFF36F8FFEE7BFF381
:104BF0004F8FBFF36F8FFEE724020020074C206821
:104C0000016841B1C0680021D0F80000FFF72EFF15
:104C1000FFF7D0FEF3E701210020F7E7F8010020BD
:104C20002DE9F041044600F00FFA94F9455004F1E3
:104C3000240609E0606A48B1304600F045FF08B13B
:104C400000F0DEFA6D1E6DB2002DF3DC4FF0FF3682
:104C500084F8456000F018FA00F0F6F994F9445031
:104C600004F1100709E0206948B1384600F02CFF34
:104C700008B100F0C5FA6D1E6DB2002DF3DC84F8AA
:104C80004460BDE8F04100F0FFB900002DE9F041BB
:104C90000546002700F026FB314E306808B9FFF7C3
:104CA0009DFDF06805424BD1C5B3083568070ED0AD
:104CB00005F00700C0F108000544680707D0502040
:104CC00080F31188BFF34F8FBFF36F8FFEE72DB3D3
:104CD0007068854234D82248103001460C6801E0E3
:104CE00020460C466168A94202D221680029F7D10A
:104CF00031688C4224D007682168016060680837F9
:104D0000411B10290FD96019420708D0502080F3A9
:104D10001188BFF34F8FBFF36F8FFEE710E0416044
:104D20006560FFF7F7FD61687068401A7060B268EF
:104D3000904200D2B060F06801430020C4E9000155
:104D400000F0FCFE780707D0502080F31188BFF3F5
:104D50004F8FBFF36F8FFEE73846BDE8F08100004C
:104D60000C02002010B5031F4FF080741C601B1F45
:104D700021F001011960191F044B0B6014390A60FE
:104D8000091F6FF0020244380A6010BDD54B0008BD
:104D900010B504462F21FBF729FB08B12F2105E0B0
:104DA0005C212046FBF722FB28B15C212046FBF763
:104DB0001DFB401C10BD204610BD000010B500F0CA
:104DC000B1F8012251020248FCF7A2FB002010BDFD
:104DD0000014024010B500F017F802480168491CA1
:104DE000016010BD0000002070470000054B03EB80
:104DF000001081600021C26041600121017000202B
:104E0000704700008C04002070B500240B4E25462E
:104E100006EB0410017801290AD14168491C416060
:104E20008268914204D90570C16809B1C56088479C
:104E3000641C0B2CECDB002070BD00008C040020F7
:104E40003221024A0020FFF7D1BF0000514E000876
:104E500010B50D480B4CC08D621CC0F1C800C3B228
:104E600000210846FFF7D2FA0748FDF7A1F9C8214B
:104E7000601CFBF79AFAC822611C0348FDF718FB77
:104E8000002010BD300200205C0600203221024AC2
:104E90000120FFF7ABBF00009D4E000810B50D4884
:104EA0000B4CC08D621CC0F1C800C3B201210020B0
:104EB000FFF7ACFA0748FDF77BF9C821601CFBF748
:104EC00074FAC822611C0348FDF7F2FA002010BDF5
:104ED000F90200209C0600203221024A0220FFF73E
:104EE00085BF0000E94E000810B50D480B4CC08D81
:104EF000621CC0F1C800C3B202210020FFF786FA8D
:104F00000748FDF755F9C821601CFBF74EFAC82287
:104F1000611C0348FDF7CCFA002010BDC20300203D
:104F2000DC06002010B50020FEF7AAFF0EA0FFF758
:104F30002FFF0146104B192210A0FFF771F815A0A2
:104F4000FFF76EF8C82214491448FDF7B1FA124968
:104F5000C822C9311248FDF7ABFABDE81040C8229B
:104F600010491148FDF7A4BA2E2E5C5372635C758C
:104F7000736172742E6300001D5D00085B25733A37
:104F800025642025735D20757361727420696E69D4
:104F9000740000000D0A0000310200205C060020B1
:104FA0009C060020C3030020DC06002010B532233D
:104FB000FDF7A8FA002801D04FF0FF3010BDD0E96E
:104FC000013201699A60D0E901235A604A6882423D
:104FD00001D182684A60002202610868401E0860B0
:104FE0000868704700F108014FF0FF32C0E9011274
:104FF000C1600161002101607047002101617047BB
:1050000030B50B685A1C02D000F1080202E00269B8
:1050100004E02246546825689D42FAD953684B60E3
:1050200099608A60516008610168491C016030BD67
:1050300042684A6093688B60936859609160086128
:105040000168491C01607047502080F31188BFF34C
:105050004F8FBFF36F8F0A494868401C4860012892
:105060000CD10848006810F0FF0F07D0502080F3E3
:105070001188BFF34F8FBFF36F8FFEE770470000BB
:105080002402002004ED00E00849486828B1401ED1
:10509000486001D180F311887047502080F3118857
:1050A000BFF34F8FBFF36F8FFEE700002402002095
:1050B00070B5002827D0144DA0F108046168E86895
:1050C000014207D1502080F31188BFF34F8FBFF307
:1050D0006F8FFEE722683AB1502080F31188BFF34A
:1050E0004F8FBFF36F8FFEE78143616000F0FAF8E6
:1050F00060686968084468602046FFF70BFCBDE8FB
:10510000704000F01BBD70BD0C0200204FF0E0208D
:1051100000210161816105494FF47A720968B1FB90
:10512000F2F1491E4161072101617047B801002079
:1051300010B5FBF78FF8114910280ED300F1E020CD
:1051400090F8F0030A78904207D2502080F311883B
:10515000BFF34F8FBFF36F8FFEE709480068896880
:1051600000F4E060884207D9502080F31188BFF333
:105170004F8FBFF36F8FFEE710BD000024020020A9
:105180000CED00E010B5084B002200BF53F8324090
:105190001CB1521C082AF9D310BD43F8321003EB9E
:1051A000C201486010BD00005C07002070B51546C4
:1051B0000E460446FFF748FF94F944100020491CAE
:1051C00001D184F8440094F94510491C01D184F8B8
:1051D0004500FFF759FFA06B28B92A46314604F174
:1051E000240000F02BF82046BDE87040FFF718BD02
:1051F00002498A6A0260496941607047BC01002027
:105200000149012048627047BC01002010B50C46DE
:1052100050B1094909681831FFF7F2FE2046BDE890
:1052200010400121FFF7BEB9502080F31188BFF371
:105230004F8FBFF36F8FFEE7BC01002070B514469F
:105240000D4668B10A4909681831FFF7F1FE0CB143
:105250004FF0FF3521462846BDE87040FFF7A2B960
:10526000502080F31188BFF34F8FBFF36F8FFEE79D
:10527000BC0100201CB517480024CDE9004023469E
:105280004FF4807214A1164800F028FB012803D1C6
:1052900000F0DEFC012809D0401C1AD1502080F318
:1052A0001188BFF34F8FBFF36F8FFEE7502080F35D
:1052B0001188BFF34F8FBFF36F8F06484FF0FF3158
:1052C000343801630121C1614461BDE81C4000F034
:1052D0003FB81CBDF001002049444C4500000000CF
:1052E000254800080248816B491C81637047000013
:1052F000BC0100201448816B11B10121416270474B
:10530000002141628169B1FA81F1C1F11F0101EB14
:1053100081020E4951F822306BB101EB820101F19B
:1053200008034A6852684A609A4201D152684A604A
:10533000D16801607047502080F31188BFF34F8F10
:10534000BFF36F8FFEE70000BC0100209C07002028
:105350001CB537480168374A914207D1502080F385
:105360001188BFF34F8FBFF36F8FFEE7006831499D
:10537000491E884207D1502080F31188BFF34F8F18
:10538000BFF36F8FFEE72C4908780190FF2008706B
:1053900008788DF800009DF800009DF8002000F0CE
:1053A000F000904207D0502080F31188BFF34F8F58
:1053B000BFF36F8FFEE79DF80000204B00F0500018
:1053C00018700720986005E09DF8002052008DF8C5
:1053D0000020401E9DF800201206F5D49860032896
:1053E00007D0502080F31188BFF34F8FBFF36F8F2A
:1053F000FEE74FF440709860019808700C48203028
:10540000016841F470010160016841F07041016080
:10541000FFF77CFE00205860FAF7E4FE08480168B8
:1054200041F040410160FAF7C9FE00201CBD0000B8
:1054300000ED00E071C20F4100E400E02402002012
:1054400034EF00E070B50E46050013D0D6B105FB71
:1054500006F04830FFF71AFC040009D004F14801B7
:1054600020468EB10160C0E90F56012100F00EF810
:10547000204670BD502080F31188BFF34F8FBFF3DB
:105480006F8FFEE70020E4E70060ECE770B50D46A3
:10549000040025D0FFF7D8FDD4E90F20216802FBD6
:1054A000001161600021A1632168A1600A46D4E96E
:1054B0000F01401E00FB0121E16021464FF0FF304B
:1054C00001F8440F487004F110008DB1FFF78AFD18
:1054D00004F12400FFF786FDFFF7D6FD012070BD23
:1054E000502080F31188BFF34F8FBFF36F8FFEE71B
:1054F00021690029F0D000F0E7FA0028ECD0044937
:105500004FF080500860BFF34F8FBFF36F8FE3E71A
:1055100004ED00E02DE9FF4782B01D468A464FF0BA
:105520000008040003D0BAF1000F08D011E05020A9
:1055300080F31188BFF34F8FBFF36F8FFEE7206CAE
:1055400038B1502080F31188BFF34F8FBFF36F8FB6
:10555000FEE7022D0AD1E06B012807D0502080F32E
:105560001188BFF34F8FBFF36F8FFEE700F0E8F9AC
:105570003F4F4FF000094FF0805648B9049838B1BA
:10558000502080F31188BFF34F8FBFF36F8FFEE77A
:10559000FFF75AFDA06BE16B884207D3022D05D0BF
:1055A0000498D0B1B8F1000F1AD01EE02A46514637
:1055B0002046FFF7D2F8616A19B104F1240000F027
:1055C00083FA20B13E60BFF34F8FBFF36F8FFFF7B9
:1055D0005BFD012006B0BDE8F087FFF755FD22E036
:1055E0006846FFF705FE4FF00108FFF74DFDFFF796
:1055F00079FEFFF729FD94F94400401C01D184F89D
:10560000449094F94500401C01D184F84590FFF77F
:105610003BFD04A9684600F027F930B12046FFF7AA
:10562000FFFA00F08BFA0020D4E7FFF70DFDA06B26
:10563000E16B884213D1FFF727FD04F110000499B4
:10564000FFF7E4FD2046FFF7EBFA00F077FA0028B9
:105650009ED13E60BFF34F8FBFF36F8F98E7FFF788
:1056600013FD2046FFF7DCFA00F068FA90E700002F
:1056700004ED00E02DE9F0471F46904689460400FE
:1056800003D0B9F1000F08D011E0502080F3118849
:10569000BFF34F8FBFF36F8FFEE7206C38B1502000
:1056A00080F31188BFF34F8FBFF36F8FFEE7022F98
:1056B0000AD1E06B012807D0502080F31188BFF396
:1056C0004F8FBFF36F8FFEE7FFF732FD5020EFF3F0
:1056D000118680F31188BFF34F8FBFF36F8FA06BDC
:1056E000E16B884206D3022F04D0002086F3118894
:1056F000BDE8F08794F945503A4649462046FFF701
:105700002CF8681C04D06D1C84F845500120EDE78E
:10571000606A0028FAD004F1240000F0D5F90028CE
:10572000F4D0B8F1000FF1D00121C8F80010EDE776
:105730002DE9F747002683B08A46040003D0BAF16A
:10574000000F08D011E0502080F31188BFF34F8F75
:10575000BFF36F8FFEE7206C38B1502080F31188C3
:10576000BFF34F8FBFF36F8FFEE700F0E9F8DFF86C
:10577000F4804FF000094FF0805748B9059838B1D0
:10578000502080F31188BFF34F8FBFF36F8FFEE778
:10579000FFF75AFCA56BC5B151462046FEF7CAFF7C
:1057A0006D1EA563206950B104F1100000F08CF962
:1057B00028B1C8F80070BFF34F8FBFF36F8FFFF7AA
:1057C00063FC012006B0BDE8F087059808B11EB162
:1057D00006E0FFF759FC27E06846FFF709FD0126C0
:1057E000FFF752FCFFF77EFDFFF72EFC94F9440013
:1057F000401C01D184F8449094F94500401C01D12B
:1058000084F84590FFF740FC05A9684600F02CF8A5
:10581000002820460AD0FFF703FA00F08FF920464F
:10582000FFF7BAF80028B3D00020CBE7FFF7B4F8B1
:1058300090B104F124000599FFF7E8FC2046FFF73A
:10584000EFF900F07BF90028A2D1C8F80070BFF38F
:105850004F8FBFF36F8F9BE72046FFF7E1F900F012
:105860006DF995E704ED00E02DE9F0410C460500E7
:1058700011D0C4B1FFF7E8FB174B5A696E68206876
:10588000911B471C17D02F689B6A9F4219D09642E4
:1058900017D8012410E0502080F31188BFF34F8FF8
:1058A000BFF36F8FFEE7502080F31188BFF34F8F57
:1058B000BFF36F8FFEE70024FFF7E6FB2046BDE84D
:1058C000F081884205D9401A20602846FFF790FCF5
:1058D000F1E700202060DCE7BC0100202DE9FF5F3C
:1058E0008346DDE90E87994616468A469000FFF703
:1058F000CDF905001AD05420FFF7C8F9040012D0E2
:1059000025630021CDE90241CDE900874B463246AF
:1059100051465846FEF7B6FF2046FEF77BFE0120B3
:1059200004B0BDE8F09F2846FFF7C2FB4FF0FF3000
:10593000F6E700000148006870470000BC01002045
:105940000548C16919B1806B18B10020704701206A
:105950007047022070470000BC01002001484069E8
:1059600070470000BC0100202DE9F0412E4C0027BB
:10597000A06B40B1206A401C2062606A00B1012720
:105980003846BDE8F0816669761C666113D16068AF
:10599000006838B1502080F31188BFF34F8FBFF3F8
:1059A0006F8FFEE76068A1686160A060A06A401C1C
:1059B000A062FFF7B5F8206BDFF87080864209D34C
:1059C0006068006880B16068C068C56868688642C1
:1059D0000DD220632068C06A00EB800158F82100D6
:1059E0000128CAD90127C8E74FF0FF30F1E7281D89
:1059F000FFF7E5FAA86A18B105F11800FFF7DFFA1A
:105A0000E86A0121A26981401143A16100EB800194
:105A100008EB8100291DFFF70BFBE86A2168C96AC2
:105A20008842CDD30127CBE7BC0100209C07002092
:105A300070B504004FF0000140D0214D2868844229
:105A400007D0502080F31188BFF34F8FBFF36F8FC3
:105A5000FEE7A06C38B1401EA064636CE26A9A4213
:105A60002CD040B12AE0502080F31188BFF34F8F33
:105A7000BFF36F8FFEE7201DFFF7A1FA114A012146
:105A800050B9E06A00EB800352F8233023B9AB69C8
:105A900001FA00F08343AB61606CE062C0F1070083
:105AA000A061E06AAB6981401943A96100EB800005
:105AB00002EB8000211DFFF7BBFA0121084670BDF3
:105AC000BC0100209C0700202DE9F041C068C4689B
:105AD000ACB104F118000746FFF771FA154DA86B39
