:020000040800F2
:10000000F80401205D020008B53800084B340008F0
:10001000B138000819120008A542000800000000CD
:100020000000000000000000000000009D0100082A
:100030007713000800000000F9010008B938000833
:1000400077020008770200087702000877020008AC
:10005000770200087702000877020008770200089C
:10006000770200087702000877020008770200088C
:10007000770200087702000877020008770200087C
:10008000770200087702000877020008770200086C
:10009000770200087702000877020008770200085C
:1000A00077020008093A0008770200087702000882
:1000B00077020008193A0008293A00087702000878
:1000C000770200087702000877020008770200082C
:1000D0007702000845420008654200088542000892
:1000E000770200087702000877020008770200080C
:1000F000393A000877020008770200087702000802
:1001000077020008770200087702000877020008EB
:1001100077020008770200087702000877020008DB
:100120001D12000877020008770200087702000815
:1001300077020008770200087702000877020008BB
:1001400077020008770200087702000877020008AB
:10015000770200087702000877020008770200089B
:10016000770200087702000877020008770200088B
:1001700077020008770200087702000800000000FC
:100180007702000877020008DFF80CD000F054FD79
:1001900000480047295C0008F80401202C4B19682E
:1001A0000868B0E8F04F80F30988BFF36F8F4FF015
:1001B000000080F3118870470000000008480068C4
:1001C000006880F308884FF0000080F3148862B65E
:1001D00061B6BFF34F8FBFF36F8F00DF00BF00BF6B
:1001E00008ED00E0DFF80C00016841F470010160E7
:1001F000704700BF88ED00E0EFF30980BFF36F8F19
:10020000134B1A681EF0100F08BF20ED108A20E96A
:10021000F04F106009B44FF0500080F31188BFF325
:100220004F8FBFF36F8F07F053FB4FF0000080F349
:10023000118809BC19680868B0E8F04F1EF0100F6B
:1002400008BFB0EC108A80F30988BFF36F8F704746
:10025000B4010020EFF30580704700000648804796
:1002600006480047FEE7FEE7FEE7FEE7FEE7FEE79B
:10027000FEE7FEE7FEE7FEE7A53900088901000872
:1002800001804280436070472DE9F04F82B046689C
:1002900053680193058847884B88002000900888A0
:1002A000874201BFB2F800C06545528893421EBF25
:1002B0006FF0020002B0BDE8F08F9FED412A4FEAD7
:1002C000970EC7F3400B00BFDDE9000202EB800A86
:1002D0004A6898464FF00009B0EE420AB4465FEA19
:1002E0000E0025D092ED001ADCED001A02EB83021D
:1002F000DCED010A01EE810A92ED001A02EB8302A5
:10030000401ED2ED001A02EB830200EE810A9CED42
:10031000021ADCED030A00040CF1100C000C01EED3
:10032000210A92ED001A02EB830200EE810AD9D174
:1003300017F0030026D0ACF10404A2EB830210F006
:10034000010F08D002EB8302D4ED010A92ED001AEE
:10035000241D00EE810A5FEA0B0013D002EB830C30
:10036000D4ED010A9CED001A02EBC302401E00EE20
:10037000810AD4ED020A92ED001A04F1080400EE9D
:10038000810AEBD109F10100AAEC010A1FFA80F9F8
:10039000486800EB8902A8F101001FFA80F8B8F163
:1003A000000F99D1009806EB8706184480B20090A0
:1003B000681E05042D0C87D102B00020BDE8F08F27
:1003C000000000002DE9F05F0546002092469B46A4
:1003D00088460646814640241BE02846414647465B
:1003E000224600F037FB53465A46C01A914110D3BB
:1003F00011461846224600F01EFB2D1A67EB010835
:100400004F4622460120002100F015FB17EB0009A2
:100410004E41201EA4F10104DFDC484631462A4645
:100420004346BDE8F09F0000014610B509683C2234
:10043000B1FBF2F302FB1313B1FBF2F11D480360B1
:10044000B1FBF2F302FB1313B1FBF2F1182243608C
:10045000B1FBF2F302FB1313B1FBF2F183600A1D4F
:100460000723B2FBF3F403FB142282618A0040F2FB
:10047000B55102F66C32B2FBF1F344334361B2FB87
:10048000F1F301FB13218908C1613B2903D3027DEC
:10049000920700D0491C0022074C13460261E25C1F
:1004A0008A4203D8891A5B1C0361F8E7491CC160C2
:1004B00010BD0000CC000120288B000840EA010399
:1004C0009B0703D009E008C9121F08C0042AFAD20A
:1004D00003E011F8013B00F8013B521EF9D27047CE
:1004E000D2B201E000F8012B491EFBD27047002276
:1004F000F6E710B513460A4604461946FFF7F0FF23
:10050000204610BD421C10F8011B0029FBD1801AA7
:10051000704730B505460020034600E05B1C93425F
:1005200005D2EC5CC85C201A01D1002CF6D130BD9C
:100530000246C9B200E0401C0378002BFBD102E068
:1005400003788B4203D0401E9042F9D200207047BE
:100550000FB400B58DB010A909900B9000914FF029
:10056000FF300A9000200C9005480690054807903F
:100570006A4609A80F9900F0A3FA0DB05DF814FBC4
:10058000DD0A0008FB0A00082DE9FF5F1D464FF059
:10059000FF3BD5E9014691465F464FF00008A96947
:1005A0007F1C01988847296A824688470028F6D12F
:1005B000BAF1FF3F0CD024F4C064002E19DD6006B0
:1005C00014D5BAF12B0F09D0BAF12D0F0ED103E0DB
:1005D000584604B0BDE8F09F44F48064A9697F1CCC
:1005E00001988847761E8246002E02DDBAF1300F50
:1005F00003D0B9F1000F26D032E0A969761E44F489
:1006000000747F1C019888478246002E05DDBAF1F0
:10061000780F06D0BAF1580F03D0B9F1000F10D0FF
:100620001EE0B9F1000F02D0B9F1100F18D1A9697D
:10063000761E24F400747F1C01988847824610209F
:1006400002E0082000E00A20814609E008FB0908D2
:10065000A969761E44F400747F1C0198884782467D
:10066000002E05DD4946504600F016FA0028EDDA66
:10067000E96901988847A00502D46FF00100A8E756
:10068000E00725D1600613D5600502D5C8F100004A
:1006900000E0404629680A1D2A600968220501D544
:1006A000087015E0220701D5088011E008600FE00E
:1006B0002868011D29600068210502D580F80080A6
:1006C00006E0210702D5A0F8008001E0C0F8008014
:1006D00038467EE72DE9FE4F804681EA0300C00FD1
:1006E0000C46009021F0004123F00045B8EB0200D9
:1006F000A94105D24046214690461C460B4602467B
:1007000023F00040104347D0270DC7F30A00C3F37E
:100710000A510290401A019040286BDAC3F313008B
:1007200040F4801B0098924620B10023D2EB030ACC
:1007300063EB0B0B01985946C0F14002504600F0A4
:100740007AF906460D4650465946019A00F092F94C
:1007500010EB08006141002487EA115284EAE77334
:100760001A4340D0009A62B3019A012A4FEA075215
:1007700015DC001B61EB02014FF0004202EA075258
:10078000CDE90042001C41F5801132462B4600F0B5
:10079000D4F903B0BDE8F08F40462146F9E7001BCD
:1007A00061EB0201001C41F5801300185B41201829
:1007B000A2F5001747EB030140EAD570B6196D4169
:1007C00011E06D084FEA360645EAC0754FEA075258
:1007D000001B61EB0201001C41F5801149084FEA42
:1007E00030000019514132462B4603B0BDE8F04FAE
:1007F00000F094B90098012240000023D0EB0202DF
:1008000063EBE073009821464FEAE074B8EB000018
:1008100061EB0401E9E783F000435BE781F000410D
:1008200058E72DE9FE4F81EA030404F0004421F06B
:10083000004100944FF0000B23F0004350EA010404
:100840005ED052EA03045BD0C3F30A54C1F30A55E5
:100850002C44A4F2F3340194A0FB0254C1F313011D
:1008600041F48011C3F3130343F4801301FB0244EA
:1008700000FB034E840A970A44EA815447EA8357EF
:10088000A4FB076802958D0A05FB07854FEA932CA8
:1008900004FB0C542705029D4FEA065847EA163719
:1008A000B5EB08056EEB070C870E920E47EA811731
:1008B00042EA8312A7FB0201B6EB0B0164EB0004D2
:1008C0002B0D43EA0C335E1844EB1C50DA465146BC
:1008D000E7FB0201C5F313044FEA0B3343EA145359
:1008E0004FEA0432019C43EA0603A4F10C0402948B
:1008F000009CCDE900B400F020F903B0BDE8F08F12
:1009000000200146F9E72DE9F04D81EA030404F0E7
:10091000004B21F0004514464FF0000A23F000413F
:1009200050EA050220D054EA01021DD0C5F30A574F
:100930000246C5F31303C1F31300C1F30A5640F492
:10094000801543F48013A7EB0608101BD64608F267
:10095000FD3873EB050002D308F1010801E092189D
:100960005B41B8F1000F03DA00200146BDE8F08DCD
:1009700000204FF48011064684460EE0171B73EBEF
:10098000050705D3121B63EB050306434CEA010C74
:1009900049084FEA300092185B4150EA0107EDD157
:1009A00052EA030012D082EA040083EA05010843F8
:1009B00005D0101BAB4106D20122002306E0002225
:1009C0004FF0004302E06FF0010253101AEB0600F3
:1009D0004CEB085110EB0A0041EB0B01BDE8F04D68
:1009E00000F09CB800F0004230F000400AD0C10D89
:1009F00001F56071C0F3160042EA0151C2084007D8
:100A00001143704700200146704730B50B46014640
:100A100000202022012409E021FA02F59D4205D39D
:100A200003FA02F5491B04FA02F52844151EA2F147
:100A30000102F1DC30BD202A04DB203A00FA02F189
:100A4000002070479140C2F1200320FA03F31943BC
:100A500090407047202A04DB203A21FA02F000215E
:100A6000704721FA02F3D040C2F1200291400843BE
:100A700019467047202A06DBCB17203A41FA02F0CC
:100A800043EAE07306E041FA02F3D040C2F12002EB
:100A900091400843194670473A2800D2303820F078
:100AA0002002412A01D3A2F13700884201D34FF03E
:100AB000FF30704702681144137801601846704790
:100AC000D16004495161044911620021116111464C
:100AD00000F0CAB8B50A00085D0C0008426842B1CF
:100AE000016811F8013B23B1521EC0E900121846FB
:100AF00070470121C160881E704742685AB1C368BF
:100B0000016843B983688B4205D0491E521CC0E975
:100B10000012002070474FF0FF30704710B5141ED0
:100B200073F1000408DA401C41F1000192185B41A6
:100B30001A4301D120F0010010BD2DE9F04D92467D
:100B40009B4611B1B1FA81F202E0B0FA80F2203294
:100B50009046FFF770FF04460F4640EA0A0041EA5C
:100B60000B0153465A46084313D0114653EA01007D
:100B700019D0C8F140025046FFF76CFF05460E46FB
:100B8000504659464246FFF756FF084305D001201C
:100B900004E020463946BDE8F08D0020054346EAD2
:100BA000E0762C4337430A986305E40AA0EB08007B
:100BB0000022FD0A44EA47540A3002D500200146CB
:100BC000E9E7010510196941DDE9084500196941A6
:100BD000BDE8F04DA2E7C1F30A52C1F3130140F2A0
:100BE000FF3341F480119A4202DA00200146704737
:100BF00040F233439A42A2F2334202DC5242FFF700
:100C000029BFFFF718BF000030B5041E71F10004C2
:100C100004DB4FF00044404264EB0101141E73F109
:100C2000000405DB1C464FF00043524263EB040313
:100C3000994208BF904230BD064C074D06E0E0687F
:100C400040F0010394E8070098471034AC42F6D313
:100C5000FFF79EFA988B0008B88B0008C0B24FF4DB
:100C6000F05100F097B900002DE9F34F8BB04FF031
:100C7000000801F10C000C464FF0010B46460DF147
:100C8000080A01906269012101989047051E2DD044
:100C9000252D2CD0216A8847C0B1626901210198B5
:100CA0009047216A88470028F7D1411E6269019860
:100CB000904700E0761CA1690B988847216A884715
:100CC0000028F7D1E1690B988847DBE7A1690B9809
:100CD00088470746A84201D1761CD3E7E1690B9803
:100CE00088477F1C02D1B8F1000F6FD046E1002782
:100CF00062693D463946019890472A2804D16269C5
:100D00000121019890470125DFF884926269012151
:100D100001989047A0F130010A290AD24F45E5DC3D
:100D200007EB870100EB4107303FDFD445F01005AA
:100D3000ECE7E90601D46FF000476C280AD04C2894
:100D400014D0682815D06A280DD074281CD07A28B1
:100D50001AD01DE062690121019890476C2802D0E9
:100D600045F0040514E045F002050DE045F02005CE
:100D70000AE06269012101989047682802D045F095
:100D8000080505E045F40065626901210198904776
:100D9000C4E9015765283DD019DC58287AD00CDC0D
:100DA000452837D004DC252826D0412831D131E030
:100DB00046282FD047282CD12CE05B2877D06128FB
:100DC00028D063287CD0642823D15AE0D0E06F2853
:100DD00048D008DC66281DD067281BD0692821D0A0
:100DE0006E2816D127E0702845D0732868D0752862
:100DF00047D078280DD14DE0A1690B98884705466A
:100E000025283FF469AFE1690B9888476D1C3FF4D2
:100E10006AAFB3E023466A466FF001000B99AFF367
:100E200000809EE045F040006060A80723464FF038
:100E3000000236D43EE0E8077FF447AF2068011D8A
:100E400021600068290501D506701BE7290701D537
:100E5000068017E7A90703D5F117C0E9006111E77C
:100E600006600FE745F040006060A80723464FF09A
:100E7000080216D41EE040F60E0125EA010060606B
:100E800016E045F040006060A80723464FF00A02D4
:100E900007D40FE045F040006060A80708D523465E
:100EA00010226FF001000B99AFF3008059E007E0CA
:100EB000234610226FF001000B99FFF765FB50E00D
:100EC0004FF000094F464B46632802D05B2806D0FE
:100ED00040E0E80601D40120A06001273AE0626901
:100EE0000121019890475E2805D14FF00109626900
:100EF000494601989047216939B900210A4653466D
:100F000043F82120491C0829FADBB0B3216969B9EB
:100F1000C11700EBD16253110AEB830122F01F02CB
:100F2000821A01200B68904003430B606269012123
:100F3000019890475D28E8D1B9F1000F09D0002051
:100F4000514651F82020D24341F82020401C082867
:100F5000F7DB02AB224600976FF001000B99AFF36D
:100F6000008000280CDA401C08D1BBF1000F05D02E
:100F70004FF0FF300DB0BDE8F08FFFE74046F9E7D6
:100F8000E90701D108F1010806444FF0000B79E6AA
:100F9000CCCCCC0C7F2801D9002208E0064A02EB19
:100FA0005002C007127800D1120902F00F0201208E
:100FB0009040084070470000348B000870B58C18D2
:100FC00010F8015B15F0070301D110F8013B2A115D
:100FD00006D110F8012B03E010F8016B01F8016B4A
:100FE0005B1EF9D12B0705D40023521E0DD401F846
:100FF000013BFAE710F8013BCB1A921C03E013F80F
:10100000015B01F8015B521EF9D5A142D8D3002043
:1010100070BD70B50546AC6B206C00F0500050BB45
:10102000206C40F4007020642068806800F040501C
:10103000E8B9207ED8B92068C06A00F4700020B1F9
:101040002068806800F4806088B92068406820F0DB
:10105000200021684860206C20F480702064206C9F
:1010600000F4805018B9206C40F001002064204644
:1010700000F04AFA0BE0206C00F0100018B1204696
:1010800000F044FA03E0A06BC16C2846884770BDAD
:1010900070B50546AC6B40202064606C40F00400E5
:1010A0006064204600F032FA70BD70B50446A56B4E
:1010B000284600F02AFA70BD55494A6822F44032A9
:1010C0004A604A6843681A434A600268526822F4D8
:1010D000807203685A6002685368026943EA022218
:1010E00003685A600268526822F0407203685A60CE
:1010F0000268526883681A4303685A6002689268FB
:1011000022F4006203689A6002689268C3681A4316
:1011100003689A603F4B826A9A4218D002689268CC
:1011200022F0706203689A6002689268836A1A43C8
:1011300003689A600268926822F0405203689A60DD
:1011400002689268C36A1A4303689A600BE00268F7
:10115000926822F0706203689A600268926822F0D6
:10116000405203689A600268926822F002020368A3
:101170009A6002689368027E43EA420203689A60BA
:101180002022125CA2B10268526842F40062036835
:101190005A600268526822F4604203685A6002682A
:1011A0005368426A521E43EA423203685A6005E0BD
:1011B0000268526822F4006203685A600268D26AC8
:1011C00022F470020368DA620268D36A828B521ECC
:1011D00043EA02520368DA620268926822F40072FB
:1011E00003689A600268936890F8302043EA4222CC
:1011F00003689A600268926822F4806203689A60C9
:1012000002689368426943EA822203689A607047E1
:10121000002301400100000F00BFFEE710B50F489A
:10122000008801280FD100200C4908800C48006874
:10123000006800200A49096808600A4A01210C2058
:1012400006F008F805E005480088401C00B2034994
:101250000880054800F0C8FA10BD0000A201002077
:10126000E43A00207D640008AC390020014608788B
:1012700010381823B0FBF3F20848805CC865032AD5
:1012800005D908686FF30900001D886503E0086848
:101290006FF309008865886D70470000088B0008AF
:1012A000014600208A6A8B69CBB932B1012A0DD080
:1012B000022A03D0032A10D10EE000BFCB6A03F04C
:1012C0008073B3F1807F00D1012007E0CB6AB3F1D6
:1012D000C07F00D1012001E000E000BF34E08B6955
:1012E000B3F5005F1AD132B1012A07D0022A03D028
:1012F000032A11D10AE000BF01200EE0CB6A03F0FF
:101300008073B3F1807F00D1012006E0CB6AB3F196
:10131000C07F00D1012000E000BF15E032B1012AFA
:1013200005D0022A04D0032A0CD103E000BF00BF7D
:10133000012008E0CB6A03F08073B3F1807F00D115
:10134000012000E000BF00BF704730B5046824688A
:1013500024F4802405682C60046863608468402C51
:1013600004D10468A2600468E16003E00468A1603D
:101370000468E26030BD70477047000038B502462F
:101380000020009000BF92F83C00012801D102200B
:1013900038BD012082F83C0000BF0868092816D932
:1013A0001068C0680C780A3C04EB44050724AC4084
:1013B000A0431468E0600C780A3C04EB440488689D
:1013C000A0401468E46820431468E06013E01068EB
:1013D00000690C7804EB44050724AC40A043146872
:1013E00020610C7804EB44048868A04014682469E8
:1013F0002043146820614868072817D21068406BA2
:101400000C79641E04EB84051F24AC40A0431468CF
:101410006063088880B20C79641E04EB8404A040E9
:101420001468646B20431468606331E048680D28D9
:1014300017D21068006B0C79E41F04EB84051F249D
:10144000AC40A04314682063088880B20C79E41F84
:1014500004EB8404A0401468246B204314682063C8
:1014600016E01068C06A0C790D3C04EB84051F245B
:10147000AC40A0431468E062088880B20C790D3C4F
:1014800004EB8404A0401468E46A20431468E0621A
:10149000194B1A4C1068A04206D10868122803D1D3
:1014A000586840F480005860144C1068A0421CD169
:1014B0000868102802D00868112816D1586840F42E
:1014C00000005860086810280FD10D4800680D4CC6
:1014D000B0FBF4F000EB80004000009002E00098C8
:1014E000401E009000980028F9D100BF002082F82B
:1014F0003C0000BF00BF4BE700230140002001403B
:10150000B001002040420F00704770477047000054
:1015100070B5044600250CB9012070BD1549A06ABC
:10152000884200D000BF206C30B9204600F024F87B
:101530000020606484F83C00206C00F0100088B942
:10154000206C20F4885040F0020020642046FFF711
:10155000B3FD00206064206C20F0020040F0010028
:10156000206400E0012500BF002084F83C0000BF9B
:101570002846D2E70100000F10B586B004461421BA
:1015800001A8FEF7B4FF2849206888424AD100BF6D
:10159000002000902548006840F4807023490860CE
:1015A0000846006800F48070009000BF00BF00BFD4
:1015B000002000901D481438006840F001001B49CD
:1015C000143908600846006800F00100009000BF70
:1015D00000BF07200190032002900020039001A982
:1015E000134800F0E7FA13481349086000204860E8
:1015F000002111488160C1604FF4806101614900A0
:101600004161890081614911C1610021016241622A
:1016100000F00AFA08B1FFF7AFFE00BF0648A0636A
:10162000846300BF06B010BD002001404438024072
:101630000000024010640240AC390020F8B50446B6
:101640000D4616460020009000BF94F83C0001288B
:1016500001D10220F8BD012084F83C0000BF2068C1
:10166000806800F00100A0B92068806840F00100A7
:1016700021688860494800684949B0FBF1F000EBF7
:101680004000009002E00098401E00900098002862
:10169000F9D12068806800F0010000287CD0206C1F
:1016A00040F20161884340F4807020642068406803
:1016B00000F4806028B1206C20F4005040F4805089
:1016C0002064206C00F48050B0F5805F04D1606C21
:1016D00020F00600606401E00020606400BF00208C
:1016E00084F83C0000BF2F4F2F48A16BC8632F48E0
:1016F000A16B08642E48A16BC8646FF022002168BA
:1017000008602068406840F0806021684860206878
:10171000806840F4807021688860226802F14C0182
:1017200033462A46A06B00F0F5F9786800F01F00F8
:1017300018BB20492068884213D01F49206888427E
:1017400004D1381D006800F01F0050B11B4920680B
:10175000884221D11348001D006800F01F001028A6
:101760001AD22068806800F0405028B9206880684C
:1017700040F08040216888600EE00E492068884271
:101780000AD12068806800F0405028B9206880683D
:1017900040F080402168886000205BE7B0010020B5
:1017A00040420F000023014013100008AB10000856
:1017B000911000080020014000210140002201405A
:1017C000014691F83500022803D0802048650120A9
:1017D0007047052081F835000868006820F0010096
:1017E0000A6810600020F3E7F8B504460020009076
:1017F0008C4800684FF41651B0FBF1F7A56D2E68C8
:1018000094F85C1008208840304098B12068006847
:1018100000F0040070B12068006820F00400216826
:10182000086094F85C1008208840A860606D40F063
:101830000100606594F85C1001208840304068B178
:101840002068406900F0800040B194F85C100120ED
:101850008840A860606D40F00200606594F85C10FC
:1018600004208840304068B12068006800F0020021
:1018700040B194F85C1004208840A860606D40F08E
:101880000400606594F85C1010208840304078B304
:101890002068006800F0080050B394F85C10102035
:1018A0008840A8602068006800F4802080B120682B
:1018B000006800F4002028B9206CC8B12046216CD3
:1018C000884715E0A06C98B12046A16C88470FE0CE
:1018D0002068006800F4807028B92068006820F053
:1018E000080021680860206C10B12046216C8847F0
:1018F00094F85C10202088403040002865D0206893
:10190000006800F0100000285FD094F85C102020E0
:101910008840A86094F83500052828D12068006820
:1019200020F01600216808602068406920F08000DF
:1019300021684861206C08B9A06C28B12068006853
:1019400020F008002168086094F85C103F2088406F
:10195000A86000BF002084F8340000BF012084F894
:101960003500206D10B12046216D8847F8BD2068F4
:10197000006800F4802080B12068006800F4002036
:1019800028B9606C10B12046616C88471DE0E06B9F
:10199000D8B12046E16B884717E02068006800F462
:1019A000807068B92068006820F010002168086025
:1019B00000BF002084F8340000BF012084F8350007
:1019C000E06B10B12046E16B8847606D38B3606D05
:1019D00000F00100F0B1052084F8350020680068AF
:1019E00020F001002168086000BF0098401C0090B2
:1019F000B84200D905E02068006800F00100002826
:101A0000F3D100BF00BF002084F8340000BF0120E4
:101A100084F83500E06C10B12046E16C884700BFC7
:101A2000A4E70000B00100202DE9F04104460025A4
:101A300000F0C6F9074614B90120BDE8F081606ADC
:101A400000B100BF00BF002084F8340000BF0220B6
:101A500084F835002068006820F0010021680860E3
:101A60000AE000F0ADF9C01B052805D9202060650B
:101A7000032084F83500E0E72068006800F00100EA
:101A80000028EED12068056821480540D4E901010D
:101A90000843E16808432169084361690843A16973
:101AA0000843E1690843216A08430543606A042842
:101AB00003D1D4E90B010843054320680560206881
:101AC000456925F00705606A0543606A04280DD161
:101AD000A06A0543E06A48B12046FFF7E1FB28B160
:101AE00040206065012084F83500A6E72068456144
:101AF0002046FFF7BBFB064694F85C103F20884069
:101B0000B06000206065012084F83500002094E773
:101B10003F8010F02DE9F04704460D4616461F465B
:101B20004FF00008D4F8589000BF94F83400012812
:101B300002D10220BDE8F087012084F8340000BF04
:101B400094F8350001282BD1022084F835000020BC
:101B500060653B46324629462046FFF7F6FB94F87F
:101B60005C103F208840C9F808002068006840F0F9
:101B70001600216808602068406940F080002168F4
:101B80004861206C28B12068006840F00800216896
:101B900008602068006840F001002168086006E0E5
:101BA00000BF002084F8340000BF4FF00208404618
:101BB000C0E70000F8B502460B46002500240020CF
:101BC0000021DCE0012606FA01F51E6806EA05049C
:101BD000AC4273D15E68022E02D05E68122E13D121
:101BE000CF0802F1200656F827004E07F70E0F2601
:101BF000BE40B0434F07FF0E1E69BE403043CF08C2
:101C000002F1200646F8270010684F000326BE4068
:101C1000B0431E7906F003064F00BE40304310600B
:101C20005E68012E08D05E68022E05D05E68112E17
:101C300002D05E68122E13D190684F000326BE407A
:101C4000B0434F00DE68BE403043906050680126CC
:101C50008E40B0431E79C6F300168E40304350606C
:101C6000D0684F000326BE40B0434F009E68BE4080
:101C70003043D0605E6806F08056B6F1805F7DD15B
:101C800000BF00260096404E366846F480463E4F20
:101C90003E603E46366806F48046009600BF00BFB0
:101CA0003A4E8F0856F827008E07370F0F26BE4092
:101CB000B043374EB24202D1002624E05EE0354EFA
:101CC000B24201D101261EE0334EB24201D10226BA
:101CD00019E0324EB24201D1032614E0304EB24236
:101CE00001D104260FE02F4EB24201D105260AE0B1
:101CF0002D4EB24201D1062605E02C4EB24201D152
:101D0000072600E008268F073F0FBE4030431F4ED6
:101D10008F0846F82700264E3068A0435E6806F418
:101D20008036B6F5803F00D12043214E3060361D0D
:101D30003068A0435E6806F40036B6F5003F00D177
:101D400020431B4E361D3060361D3068A0435E6850
:101D500006F48016B6F5801F00D12043144E0836D5
:101D60003060361D3068A0435E6806F40016B6F594
:101D7000001F00D120430E4E0C363060491C102944
:101D8000FFF420AFF8BD000044380240083801409D
:101D9000000002400004024000080240000C024023
:101DA000001002400014024000180240001C0240D3
:101DB000003C01400AB1816101E00B04836170477E
:101DC0000148006870470000A40100200348006833
:101DD000034909780844014908607047A4010020BC
:101DE000AC01002010B50D48006840F400700B49AC
:101DF00008600846006840F4806008600846006893
:101E000040F480700860032000F0C8F8002000F063
:101E100007F800F04BF8002010BD0000003C024025
:101E200070B588B0044600250026002221461E20F9
:101E300000F076F81E2000F063F800BF002001904B
:101E40001648006840F0040014490860084600681D
:101E500000F00400019000BF00BF02A903A800F039
:101E600071F900F097F945000D48B5FBF0F0461EFA
:101E70000C480D49086040F2E7310B48C1604660EC
:101E800000210161816000F0D7FC20B9064800F014
:101E900095FD08B070BD0120FBE70000403802400E
:101EA00040420F0000080040E43B002008B500BF9E
:101EB000002000901148006840F480400F490860FD
:101EC0000846006800F48040009000BF00BF00BFDB
:101ED00000200090081F006840F08050091F086033
:101EE0000846006800F08050009000BF00BF00224C
:101EF0000F21901E00F014F808BD00004438024085
:101F000001460846002809DB00F01F0301229A4021
:101F100043099B0003F1E023C3F8002100BF704791
:101F20002DE9F05F80460D461646002702F0D2F9F3
:101F3000074639462A46334601F00700C0F1070A32
:101F4000BAF1040F02D94FF0040A01E0C0F1070A08
:101F5000D14600F1040ABAF1070F02D24FF0000A8D
:101F600001E0A0F1030AD4464FF0010A0AFA09FA87
:101F7000AAF1010A0AEA020A0AFA0CFA4FF0010B66
:101F80000BFA0CFBABF1010B0BEA030B4AEA0B0457
:101F90002146404602F0A6F9BDE8F09F00BF00F0E0
:101FA0000702064B19684FF6FF031940044B0B4319
:101FB00043EA0221014B196000BF70470CED00E0BD
:101FC0000000FA0570B504460D460CB9012070BD3D
:101FD0005848006800F00F00A84209D255490D701A
:101FE0000846006800F00F00A84201D00120EEE78B
:101FF000207800F0020002281DD1207800F00400B3
:10200000042805D14C48006840F4E0504A49086073
:10201000207800F00800082805D14748006840F4FF
:102020006040454908604448006820F0F000A1681D
:10203000084341490860207800F00100A8B36068B7
:10204000012807D13C4808380068C0F34040B8B9BF
:102050000120BCE76068022802D06068032807D12D
:10206000354808380068C0F3406048B90120AEE741
:10207000314808380068C0F3400008B90120A6E7DD
:102080002D48006820F00300616808432A49086071
:10209000FFF796FE064609E0FFF792FE801B41F22D
:1020A0008831884202D9032091E707E0224800687E
:1020B00000F00C006168B0EB810FEDD11D480068A5
:1020C00000F00F00A84209D91A490D7008460068AF
:1020D00000F00F00A84201D0012078E7207800F03E
:1020E0000400042807D11448006820F4E050E16897
:1020F000084311490860207800F00800082808D13A
:102100000D48006820F46040216940EAC1000A4996
:10211000086000F05FF808490968C1F30311074A35
:10212000515CC840064908600020FFF779FE002096
:102130004DE70000003C024008380240108B0008C8
:10214000B00100200F2202600D4A126802F0030263
:1021500042600B4A126802F0F0028260084A12687C
:1021600002F4E052C260064A126802F46042D208E9
:102170000261044A126802F00F020A607047000010
:1021800008380240003C02400148006870470000E7
:10219000B001002000B5FFF7F7FF04490968C1F35B
:1021A0008221034A515CC84000BD0000083802404B
:1021B000208B000800B5FFF7E7FF04490968C1F369
:1021C0004231034A515CC84000BD0000083802405B
:1021D000208B00082DE9F047002400250026A146A9
:1021E0002548006800F00C0020B1042805D008281C
:1021F0003AD105E0DFF8849039E0DFF8849036E0EA
:102200001D48001F006800F03F041B48001F0068C5
:1022100000F4800078B11A481749091F0968C1F312
:102220008811A0FB01700146224600233846FEF7C4
:10223000C9F805460EE011480F49091F0968C1F3A6
:102240008811A0FB01700146224600233846FEF7A4
:10225000B9F805460848001F0068C0F30140401C5B
:102260004600B5FBF6F902E0DFF8109000BF00BFB2
:102270004846BDE8F0870000083802400024F4001A
:1022800040787D01F8B504460CB90120F8BD2078EE
:1022900000F00100002874D0F948006800F00C003C
:1022A00004280DD0F648006800F00C00082813D16F
:1022B000F348001F006800F48000B0F5800F0BD1D8
:1022C000EF4808380068C0F34040002859D06068E3
:1022D000002856D10120D9E700BF6068B0F5803FE3
:1022E00008D1E7480838006840F48030E4490839EC
:1022F00008601EE06068B0F5A02F0DD1E0480838F6
:10230000006840F48020DE4908390860084600680B
:1023100040F4803008600CE0D9480838006820F4A8
:102320008030D749083908600846006820F48020CA
:10233000086000BF606890B1FFF742FD054606E007
:10234000FFF73EFD401B642801D903209EE7CC48DF
:1023500008380068C0F340400028F1D011E0FFF7D2
:102360002FFD054606E0FFF72BFD401B642801D931
:1023700003208BE7C24808380068C0F340400028BB
:10238000F1D1207800F0020002285FD1BC4800683B
:1023900000F00C0058B1BA48006800F00C000828A2
:1023A0001CD1B748001F006800F48000B0B9B448E1
:1023B00008380068C0F3400020B1E068012801D06F
:1023C000012063E7AE480838006820F0F800216972
:1023D00040EAC100AA490839086037E0E06800B364
:1023E0000120A8490860FFF7EBFC054606E0FFF76F
:1023F000E7FC401B022801D9032047E7A048083822
:102400000068C0F340000028F1D09D4808380068FB
:1024100020F0F800216940EAC100994908390860B4
:1024200014E0002097490860FFF7CAFC054606E063
:10243000FFF7C6FC401B022801D9032026E790487D
:1024400008380068C0F340000028F1D1207800F07F
:10245000080008282CD16069A8B101208A490860C9
:10246000FFF7AEFC054606E0FFF7AAFC401B02287A
:1024700001D903200AE782486C300068C0F34000AD
:102480000028F1D014E000207F490860FFF798FC95
:10249000054606E0FFF794FC401B022801D9032003
:1024A000F4E677486C300068C0F340000028F1D1B2
:1024B000207800F00400042870D1002670483830DD
:1024C000006800F0805090B900BF002000906C4878
:1024D0003830006840F0805069493831086008465B
:1024E000006800F08050009000BF00BF01266748E0
:1024F000006800F48070B0B96448006840F48070EF
:1025000062490860FFF75CFC054606E0FFF758FCEF
:10251000401B022801D90320B8E65C48006800F49B
:1025200080700028F2D000BFA068012808D154486C
:102530006830006840F001005149683108601DE0D2
:10254000A06805280DD14E486830006840F00400AE
:102550004B49683108600846006840F00100086097
:102560000CE047486830006820F0010044496831B9
:1025700008600846006820F00400086000BFA068FA
:10258000A8B1FFF71DFC054609E0FFF719FC401B49
:1025900041F28831884202D9032077E626E03848A4
:1025A00068300068C0F340000028EED013E0FFF769
:1025B00007FC054608E0FFF703FC401B41F28831A9
:1025C000884201D9032061E62D4868300068C0F3D5
:1025D00040000028EFD1012E07D12948383000688B
:1025E00020F0805026493831086000BFA069B8B398
:1025F0002348006800F00C0008285ED0A06902287B
:1026000046D100201F490866FFF7DAFB054606E0C1
:10261000FFF7D6FB401B022801D9032036E61848F5
:1026200008380068C0F340600028F1D1D4E9070100
:102630000843616A40EA81110122A06AC2EB50009E
:1026400041EA00412C20005D41EA00600C49091F6D
:10265000086001200B490866FFF7B2FB054607E05A
:102660002DE0FFF7ADFB401B022801D903200DE64A
:10267000034808380068C0F340600028F1D01EE02D
:102680000838024000004742800E47420070004078
:1026900000200C490866FFF793FB054606E0FFF7AC
:1026A0008FFB401B022801D90320EFE50648006894
:1026B000C0F340600028F2D101E00120E6E50020EF
:1026C000E4E50000000047420038024010B504462F
:1026D0000CB9012010BD606A00B900BF0021A162E1
:1026E00094F8510028B9002084F85000204600F0EA
:1026F00033F8022084F851002068006820F0400080
:1027000021680860D4E901010843E16808432169B0
:10271000084361690843218B01F400710843E169B2
:102720000843216A0843A16A08432168086004211C
:10273000A06901EA1040616A084321684860206886
:10274000C06920F400602168C86100206065012034
:1027500084F851000020BDE710B586B0044614216E
:1027600001A8FDF7C4FE1B49206888422FD100BF95
:10277000002000901848006840F480501649086016
:102780000846006800F48050009000BF00BF00BF02
:102790000020009010481438006840F001000E49F5
:1027A000143908600846006800F00100009000BF7E
:1027B00000BFE0200190022002900020039003203F
:1027C00004900520059001A90448FFF7F3F906B02D
:1027D00010BD0000003001404438024000000240BB
:1027E0007047704710B5024600BF92F83C000128C0
:1027F00001D1022010BD012082F83C0000BF022060
:1028000082F83D00106843681068846823F0700304
:102810000868034324F08004486804431068436058
:1028200010688460012082F83D0000BF002082F81B
:102830003C0000BF00BFDDE710B504460CB9012025
:1028400010BD94F83D0028B9002084F83C002046D3
:1028500000F00CF8022084F83D00211D206801F0F2
:10286000F3F8012084F83D000020E9E710B586B0B8
:102870000446142101A8FDF73AFE4A49206888421F
:1028800018D100BF002000904748006840F00100C8
:10289000454908600846006800F00100009000BF4C
:1028A00000BF002205211920FFF73AFB1920FFF78E
:1028B00027FB75E03D492068884255D100BF0020C4
:1028C00000903948001F006840F002003649091F97
:1028D00008600846006800F00200009000BF00BFDA
:1028E00000BF0020009030481438006840F002001B
:1028F0002D49143908600846006800F00200009075
:1029000000BF00BF00BF002000900846006840F0F4
:10291000040008600846006800F00400009000BF52
:1029200000BF01200190022002900390002004903B
:102930000220059001A91E48FFF73CF9C020019034
:10294000022002900390002004900220059001A92B
:102950001848FFF72FF9002205211D20FFF7E0FAA4
:102960001D20FFF7CDFA1BE013492068884217D1DC
:1029700000BF002000900C48006840F002000A49A7
:1029800008600846006800F00200009000BF00BF29
:10299000002205212C20FFF7C3FA2C20FFF7B0FA04
:1029A00006B010BD00000140443802400004004061
:1029B000000402400008024000040140014608688B
:1029C000C06840F001000B68D8600868806800F0BB
:1029D0000702062A05D00868006840F001000B686D
:1029E0001860002070472DE9F04104460D4600BFF5
:1029F00094F83C00012802D10220BDE8F0810120BA
:102A000084F83C0000BF022084F83D0020688668FE
:102A100026F0770626F47F462068866028685028CE
:102A200033D00CDC202850D004DC00284BD01028F8
:102A300051D149E0302849D040284CD139E06028B4
:102A40002DD0702807D0B0F5805F03D0B0F5005FBF
:102A500041D10DE040E0D5E902136A68206801F039
:102A600070F82068866846F077062068866033E054
:102A7000D5E902136A68206801F063F8206880686D
:102A800040F480402168886026E0EA686968206830
:102A900001F06BF85021206801F05EF81CE0EA6854
:102AA0006968206801F0BCF86021206801F054F8E2
:102AB00012E0EA686968206801F057F84021206850
:102AC00001F04AF808E000BF00BF00BF2968206895
:102AD00001F042F800E000BF00BF012084F83D0093
:102AE00000BF002084F83C0000BF00BF85E7000065
:102AF00010B504462068406A40B92848007828B9D3
:102B00002068006840F0010021680860207F0128EB
:102B10000DD12248007800F0010040B92068406BD8
:102B200000B21F4908801FA003F036F820E0207F84
:102B300002280DD11948007800F0020040B9206841
:102B4000806B00B2164948801AA003F025F80FE008
:102B5000207F04280CD11148007800F0040038B917
:102B60002068C06B00B20E49888016A003F014F8EC
:102B7000207F0A4909780843084908700846007808
:102B800007280AD100220C21206800F0C9FF114A51
:102B90004FF47A71092004F05DFB10BD7201002032
:102BA0006C0100204343523120436170747572659B
:102BB000640D0A004343523220436170747572659C
:102BC000640D0A004343523320436170747572658B
:102BD000640D0A00556500082DE9F04104460D46D4
:102BE000164600BF94F83C00012802D10220BDE83F
:102BF000F081012084F83C0000BF022084F83D00F1
:102C000096B9EB68D5E90012206800F0C1FF206892
:102C1000806920F00C002168886120688069A968BB
:102C20000843216888613DE0042E13D1EB68D5E9A3
:102C30000012206801F008F82068806920F44060E4
:102C40002168886120688069A96840EA01202168BC
:102C5000886127E0082E12D1EB68D5E900122068C0
:102C600001F00FF82068C06920F00C002168C861ED
:102C70002068C069A96808432168C86112E0EB6850
:102C8000D5E90012206801F018F82068C06920F426
:102C900040602168C8612068C069A96840EA0120D5
:102CA0002168C861012084F83D0000BF002084F83D
:102CB0003C0000BF00BF9AE710B504460CB90120E4
:102CC00010BD94F83D0028B9002084F83C0020464F
:102CD00000F00CF8022084F83D00211D206800F06F
:102CE000B3FE012084F83D000020E9E7704770B58D
:102CF00004460D4635B1042D0BD0082D10D00C2DF7
:102D00001CD114E02068C06840F002002168C8604F
:102D100015E02068C06840F004002168C8600EE03B
:102D20002068C06840F008002168C86007E020689B
:102D3000C06840F010002168C86000E000BF00BF1C
:102D400001222946206800F0EBFE2068806800F030
:102D50000706062E05D02068006840F001002168B3
:102D60000860002070BD10B5044620680069C0F3FB
:102D70004000D8B12068C068C0F34000B0B16FF027
:102D8000020021680861012020772068806900F036
:102D9000030018B12046FFF7ABFE05E0204600F027
:102DA000ADF8204600F0ABF80020207720680069DD
:102DB000C0F38000D8B12068C068C0F38000B0B113
:102DC0006FF0040021680861022020772068806984
:102DD00000F4407018B12046FFF78AFE05E0204657
:102DE00000F08CF8204600F08AF800202077206858
:102DF0000069C0F3C000D8B12068C068C0F3C0004B
:102E0000B0B16FF0080021680861042020772068C5
:102E1000C06900F0030018B12046FFF769FE05E025
:102E2000204600F06BF8204600F069F8002020777B
:102E300020680069C0F30010D8B12068C068C0F3F2
:102E40000010B0B16FF010002168086108202077F1
:102E50002068C06900F4407018B12046FFF748FEB2
:102E600005E0204600F04AF8204600F048F800202F
:102E700020772068006900F0010058B12068C06820
:102E800000F0010030B16FF00100216808612046B8
:102E900000F036F820680069C0F3C01058B120680F
:102EA000C068C0F3C01030B16FF0800021680861C5
:102EB0002046FFF795FC20680069C0F3801058B1E8
:102EC0002068C068C0F3801030B16FF04000216806
:102ED0000861204600F020F820680069C0F3401027
:102EE00058B12068C068C0F3401030B16FF02000C6
:102EF000216808612046FFF774FC10BD70477047D9
:102F000010B5044603492068884201D1FEF75EFFF0
:102F100010BD0000000800407047704710B504461F
:102F20002068C06820F490702168C86020684069FB
:102F300020F00100216848612068406900F04000ED
:102F400040281BD12068406920F04000216848617A
:102F5000606B50B10E48616B0865606BFEF730FC2A
:102F6000A0B1606B016D884710E00020E085202053
:102F700084F83A002046FFF7D0FF07E00020E08504
:102F8000202084F83A002046FFF7C7FF002010BD3C
:102F90000B3D0008704700002DE9F047044620680B
:102FA00005682068C668206847694FF00008C14678
:102FB00005F00F08B8F1000F0AD105F0200038B174
:102FC00006F0200020B1204600F0CBFEBDE8F087DF
:102FD000B8F1000F6ED007F0010018B906F4907038
:102FE000002867D005F0010030B106F4807018B1F8
:102FF000E06B40F00100E06305F0040030B107F041
:10300000010018B1E06B40F00200E06305F002003F
:1030100030B107F0010018B1E06B40F00400E0634C
:1030200005F0080030B107F0010018B1E06B40F086
:103030000800E063E06B70B305F0200028B106F0F3
:10304000200010B1204600F08CFE20684069C0F3DB
:103050008019E06B00F0080010B9B9F1000F23D01F
:10306000204600F05EFE2068406900F040004028E5
:1030700016D12068406920F0400021684861606BEB
:1030800050B11748616B0865606BFEF799FB10B192
:10309000606B016D88470CE02046FFF77BFF08E07E
:1030A0002046FFF777FF04E02046FFF773FF00207C
:1030B000E0638BE705F0800030B106F0800018B1C6
:1030C000204601F055F881E705F0400030B106F0E8
:1030D000400018B1204600F034FE77E700BF75E7E6
:1030E000F73C000810B504460CB9012010BDA069DA
:1030F00000B100E000BF94F8390028B9002084F83E
:103100003800204600F028F8242084F83900206890
:10311000C06820F400502168C860204600F074FEAA
:103120002068006920F490402168086120684069A7
:1031300020F02A00216848612068C06840F40050EF
:103140002168C8600020E063202084F8390084F8FA
:103150003A000020CAE7000010B586B004461421EA
:1031600001A8FDF7C4F95F492068884239D100BF42
:10317000002000905C48006840F010005A49086048
:103180000846006800F01000009000BF00BF00BFBC
:103190000020009054481438006840F00100524963
:1031A000143908600846006800F00100009000BF74
:1031B00000BF4FF4C06001900220029001200390F4
:1031C000032004900720059001A94848FEF7F2FC6F
:1031D000002205212520FEF7A3FE2520FEF790FE04
:1031E0007DE04349206888423AD100BF002000902A
:1031F0003D48001F006840F400303B49091F08604B
:103200000846006800F40030009000BF00BF00BF17
:103210000020009034481438006840F0080032491B
:10322000143908600846006800F00800009000BFEC
:1032300000BF602001900220029001200390032033
:1032400004900720059001A92A48FEF7B3FC00224C
:1032500005212620FEF764FE2620FEF751FE3EE003
:103260002549206888423AD100BF002000901E48BE
:10327000001F006840F480201B49091F08600846B1
:10328000006800F48020009000BF00BF00BF002055
:10329000009015481438006840F0020012491439B3
:1032A00008600846006800F00200009000BF00BF00
:1032B0004FF440600190022002900120039003200F
:1032C00004900720059001A90C48FEF773FC00222A
:1032D00005212720FEF724FE2720FEF711FE06B069
:1032E00010BD0000001001404438024000000240C0
:1032F00000440040000C024000480040000402402E
:1033000010B5034693F83A0020282FD101B10AB92D
:10331000012010BD00BF93F83800012801D1022020
:10332000F7E7012083F8380000BF99629A85DA85B3
:103330000020D863222083F83A0000BF002083F8E1
:10334000380000BF1868C06840F480701C68E060F6
:103350001868406940F001001C6860611868C06826
:1033600040F020001C68E0600020D2E70220D0E797
:1033700070472DE9F84304460D4616461F464FF0A8
:10338000000994F8390020285CD105B116B9012054
:10339000BDE8F88300BF94F83800012801D102206D
:1033A000F6E7012084F8380000BF0020E063212008
:1033B00084F83900FEF704FD8146A684E6842BE0FC
:1033C000E08C401EE084A068B0F5805F16D14B46CB
:1033D000002280212046009700F0FEFE08B1032065
:1033E000D6E7A846B8F80000C0F308002168486096
:1033F000206908B9AD1C0FE06D1C0DE04B460022A2
:1034000080212046009700F0E7FE08B10320BFE7C7
:1034100015F8010B21684860E08C0028D0D14B469C
:10342000002240212046009700F0D6FE08B103207C
:10343000AEE7202084F8390000BF002084F838006F
:1034400000BFA5E70220A3E7704700BFFEE700002A
:103450001FB500200090019002900390224823495C
:1034600008604FF4803048600021204881600121CD
:1034700001610021017680F820104FF08051C16277
:103480004FF0606181620021C1600321C1610121AF
:1034900080F830104161FEF73BF808B1FDF76CFF92
:1034A00000200090012001900520029069460F48FD
:1034B000FDF764FF08B1FDF75FFF012000900220D7
:1034C000019069460948FDF759FF08B1FDF754FF1F
:1034D000022000900320019069460448FDF74EFF4A
:1034E00008B1FDF749FF1FBD0020014064390020ED
:1034F00008B500BF002000900A48006840F4800032
:10350000084908600846006800F48000009000BF89
:1035100000BF002205213820FEF702FD3820FEF70B
:10352000EFFC08BD3038024000B587B0142102A876
:10353000FCF7DDFF00BF002001903648006840F036
:103540002000344908600846006800F0200001901F
:1035500000BF00BF00BF002001900846006840F097
:10356000800008600846006800F08000019000BFFD
:1035700000BF00BF002001900846006840F0010035
:1035800008600846006800F00100019000BF00BF1D
:1035900000BF002001900846006840F0020008606B
:1035A0000846006800F00200019000BF00BF00BFA5
:1035B000002001900846006840F0040008600846BA
:1035C000006800F00400019000BF00BF00BF0020B1
:1035D00001900846006840F008000860084600684E
:1035E00000F00800019000BF00BF00224FF4C0614E
:1035F0000948FEF7DFFB4FF4C06002900120039002
:1036000000200490059002A90348FEF7D3FA07B002
:1036100000BD0000303802400014024010B50E48D2
:103620000E4908604FF48270486000210B488160A9
:10363000C160016141614FF4007181611021C1617C
:1036400000210162416281620A21C162FFF73EF8F6
:1036500008B1FDF791FE10BD003001400C3A00208A
:1036600000B587B00020039004900590069001906B
:1036700002901548154908604FF416604860002113
:10368000124881604FF6FF71C16000210161416104
:103690008161FFF7D1F808B1FDF76EFE4FF480505D
:1036A000039003A90948FFF79EF908B1FDF764FEEE
:1036B00000200190029001A90448FFF793F808B197
:1036C000FDF75AFE07B000BD00000140643A00203B
:1036D00000B58BB000200790089009900A900590E3
:1036E00006900190029003900490284828490860B1
:1036F00040F22B1048600021254881604FF6FF7191
:10370000C160002101618161FFF796F808B1FDF702
:1037100033FE4FF48050079007A91D48FFF763F967
:1037200008B1FDF729FE1A48FFF7C6FA08B1FDF700
:1037300023FE00200590069005A91548FFF752F8D2
:1037400008B1FDF719FE0020019001200290002031
:10375000039002200490002201A90D48FFF73CFAD3
:1037600008B1FDF709FE042201A90948FFF734FA60
:1037700008B1FDF701FE082201A90548FFF72CFA60
:1037800008B1FDF7F9FD0BB000BD000000040040DA
:10379000A43A002000B587B0002003900490059063
:1037A0000690019002901648164908601D20486056
:1037B00000211448816040F22F21C1600021016185
:1037C000416180218161FFF737F808B1FDF7D4FD31
:1037D0004FF48050039003A90A48FFF704F908B199
:1037E000FDF7CAFD202001900020029001A90548A4
:1037F000FEF7F8FF08B1FDF7BFFD07B000BD000000
:1038000000040140E43A002010B50B480B49086061
:103810004FF4E1304860002108488160C1600161D7
:103820000C21416100218161C161FFF75BFC08B19E
:10383000FDF7A2FD10BD000000100140243B002058
:1038400010B50A480A4908600A484860002108483B
:103850008160C16001610C21416100218161C16110
:10386000FFF740FC08B1FDF787FD10BD00440040A4
:10387000643B002020A1070010B50B480B490860ED
:103880004FF4E1304860002108488160C160016167
:103890000C21416100218161C161FFF723FC08B166
:1038A000FDF76AFD10BD000000480040A43B002069
:1038B00000BFFEE77047000010B500BF502080F346
:1038C0001188BFF34F8FBFF36F8F00BF04F008FC68
:1038D00018B14FF080500449086000BF002080F309
:1038E000118800BF10BD000004ED00E000B593B0EA
:1038F000302107A8FCF7FBFD142102A8FCF7F7FD17
:1039000000BF002001902548006840F08050234906
:1039100008600846006800F08050019000BF00BFBA
:1039200000BF002001901E48006840F480401C4900
:1039300008600846006800F48040019000BF00BFA6
:103940000220079001200A9010200B9002200D9079
:1039500000210E9108210F91A821109102211191AF
:103960000421129107A8FEF78DFC08B1FDF704FDB4
:103970000F20029002200390002004904FF4A050EA
:1039800005904FF480500690052102A8FEF71AFB1F
:1039900008B1FDF7F1FC13B000BD00004038024053
:1039A000007000401448006840F47000124908603C
:1039B0001248006840F001001049086000200F49DB
:1039C000083108600D4800680D4908400B4908603F
:1039D0000C48091D0860081F006820F48020091F9A
:1039E0000860002005490C3108604FF00060024972
:1039F000803908607047000088ED00E00038024020
:103A0000FFFFF6FE1030002410B50248FFF7ABF9B7
:103A100010BD0000643A002010B50248FFF7A3F97A
:103A200010BD0000A43A002010B50248FFF79BF932
:103A300010BD0000E43B002010B50248FFF793F9E9
:103A400010BD0000E43A002010B50268294B9842EE
:103A50000ED0B0F1804F0BD0274B984208D0274BA7
:103A6000984205D0264B984202D0264B984203D16B
:103A700022F070024B681A431E4B984220D0B0F1DE
:103A8000804F1DD01C4B98421AD01C4B984217D027
:103A90001B4B984214D01B4B984211D01A4B9842A2
:103AA0000ED01A4B98420BD0194B984208D0194BA4
:103AB000984205D0184B984202D0184B984203D137
:103AC00022F44072CB681A4322F080034C6943EA27
:103AD000040202608B68C3620B688362054B9842E4
:103AE00002D0084B984201D10B6903630123436163
:103AF00010BD00000000014000040040000800402C
:103B0000000C00400004014000400140004401401E
:103B10000048014000180040001C00400020004008
:103B200030B501F01F05012404FA05F3046A9C4333
:103B30000462046A01F01F0502FA05F52C430462D1
:103B400030BD30B50C46816821F47F4142EA03253F
:103B500025432943816030BD0A46816821F0700108
:103B600042F0070319438160704730B50B46144695
:103B7000026A056A25F001050562816921F0F001FC
:103B800041EA041122F00A021A438161026230BD47
:103B900070B50C461546066A26F001060662816974
:103BA000026A184EB04214D0B0F1804F11D0164EB8
:103BB000B0420ED0154EB0420BD0154EB04208D0D8
:103BC000144EB04205D0144EB04202D0134EB04253
:103BD00001D1012600E000261EB121F00301294396
:103BE00001E041F0010121F0F001F02606EA0316A0
:103BF000314322F00A0204F00A0632438161026274
:103C000070BD0000000001400004004000080040BA
:103C1000000C00400004014000400140001800403A
:103C200030B50B461446056A25F01005056281691A
:103C3000026A21F4704141EA043122F0A00242EA12
:103C400003128161026230BD70B50C461546066AEA
:103C500026F0100606628169026A21F4407141EA89
:103C6000052121F470414FF4704606EA03363143D2
:103C700022F0A002A02606EA041632438161026205
:103C800070BD70B50C461546066A26F4807606624D
:103C9000C169026A21F00301294321F0F001F026F5
:103CA00006EA0316314322F420624FF4206606EA46
:103CB00004263243C161026270BD70B50C461546E0
:103CC000066A26F480560662C169026A21F44071D0
:103CD00041EA052121F470414FF4704606EA0336AB
:103CE000314322F420424FF4204606EA04363243A0
:103CF000C161026270BD70B50546AC6B0020E08505
:103D0000E0842046FFF746F970BD70B50546AC6B00
:103D10000020E085202084F83A002046FFF7FDF8D7
:103D200070BD0168C96821F490710268D1600168B2
:103D3000496921F0010102685161202180F83A109F
:103D4000704710B504462068C06820F04000216824
:103D5000C860202084F839002046FFF775FB00205A
:103D600010BD70B5044694F83A0022284AD1A068E4
:103D7000B0F5805F13D1A56A206940B9206840681A
:103D8000C0F308002880A06A801CA06219E02068A7
:103D90004068C0B22880A06A401CA06211E020697F
:103DA00038B920684068C1B2A26A501CA062117084
:103DB00007E02068406800F07F01A26A501CA06202
:103DC0001170E08D401E80B2E085C8B92068C068DF
:103DD00020F020002168C8602068C06820F480704E
:103DE0002168C8602068406920F0010021684861AE
:103DF000202084F83A002046FFF7BAFA002070BD70
:103E00000020FCE70220FAE72DE9F0410446206893
:103E1000006920F44050E168084321680861216985
:103E2000A068084361690843E16940EA0105206828
:103E3000C06849F20C61884328432168C860206843
:103E4000406920F44070A169084321684861E06935
:103E5000B0F5004F7ED1C4492068884203D0C349E1
:103E6000206888425DD1FEF7A5F900EBC00101EBA7
:103E7000001061684900B0FBF1F06421B0FBF1F083
:103E80000601FEF797F900EBC00101EB0010616835
:103E90004900B0FBF1F7FEF78DF900EBC00101EB33
:103EA000001061684900B0FBF1F06421B0FBF1F053
:103EB00000EBC00101EB0010A7EB8000322101EB09
:103EC000C0006421B0FBF1F000F0F80006EB400602
:103ED000FEF770F900EBC00101EB001061684900CA
:103EE000B0FBF1F7FEF766F900EBC00101EB001043
:103EF00061684900B0FBF1F06421B0FBF1F000EB28
:103F0000C00101EB0010A7EB8000322101EBC000E3
:103F10006421B0FBF1F000F00700304421688860B4
:103F200020E1FEF737F900EBC00101EB00106168FA
:103F30004900B0FBF1F06421B0FBF1F00601FEF79F
:103F400029F900EBC00101EB001061684900B0FBEA
:103F5000F1F700E045E0FEF71DF900EBC00101EBD1
:103F6000001061684900B0FBF1F06421B0FBF1F092
:103F700000EBC00101EB0010A7EB8000322101EB48
:103F8000C0006421B0FBF1F000F0F80006EB400641
:103F9000FEF700F900EBC00101EB00106168490079
:103FA000B0FBF1F7FEF7F6F800EBC00101EB0010F3
:103FB00061684900B0FBF1F06421B0FBF1F000EB67
:103FC000C00101EB0010A7EB8000322101EBC00023
:103FD0006421B0FBF1F000F00700304421688860F4
:103FE000C0E061492068884203D060492068884267
:103FF0005CD1FEF7DFF800EBC00101EB0010616857
:104000008900B0FBF1F6FEF7D5F800EBC00101EB3B
:10401000001061688900B0FBF1F06421B0FBF1F0A1
:1040200000EBC00101EB0010A6EB8000322101EB98
:1040300000106421B0FBF1F000F0F006FEF7BAF8D2
:1040400000EBC00101EB001061688900B0FBF1F0EA
:104050006421B0FBF1F006EB0016FEF7ABF800EBC5
:10406000C00101EB001061688900B0FBF1F7FEF7B9
:10407000A1F800EBC00101EB001061688900B0FB02
:10408000F1F06421B0FBF1F000EBC00101EB001096
:10409000A7EB8000322101EB00106421B0FBF1F0AE
:1040A00000F00F003044216888605BE0FEF772F892
:1040B00000EBC00101EB001061688900B0FBF1F674
:1040C000FEF768F800EBC00101EB001061688900A1
:1040D000B0FBF1F06421B0FBF1F000EBC00101EBAB
:1040E0000010A6EB8000322101EB00106421B0FB30
:1040F000F1F000F0F006FEF74DF800EBC00101EB27
:10410000001061688900B0FBF1F06421B0FBF1F0B0
:1041100006EB0016FEF73EF800EBC00101EB0010C5
:1041200061688900B0FBF1F7FEF734F800EBC001DD
:1041300001EB001061688900B0FBF1F06421B0FB75
:10414000F1F000EBC00101EB0010A7EB8000322181
:1041500001EB00106421B0FBF1F000F00F003044DF
:1041600021688860BDE8F081001001400014014022
:10417000014691F8390021282CD18868B0F5805F7C
:104180000FD10A6A1088C0F308000B6858600869EC
:1041900018B9086A801C086209E0086A401C0862B5
:1041A00005E00B6A581C086218780B685860C88CC8
:1041B000401E80B2C88458B90868C06820F08000EA
:1041C0000B68D8600868C06840F040000B68D86091
:1041D000002070470220FCE72DE9F04104460D461F
:1041E00017469846069E21E0701CF8B12EB1FDF7E7
:1041F000E7FDA0EB0800B04218D92068C06820F4A1
:10420000D0702168C8602068406920F001002168F2
:104210004861202084F8390084F83A0000BF00206B
:1042200084F8380000BF0320BDE8F08120680068F2
:104230002840A84201D1012000E00020B842D3D09C
:104240000020F1E710B5064800680068C0F3401090
:1042500010B1002002F004F90148FEF79DFE10BDE8
:10426000243B002010B5064800680068C0F34010E9
:1042700010B1012002F0F4F80148FEF78DFE10BDE8
:10428000643B002010B5064800680068C0F3401089
:1042900010B1022002F0E4F80148FEF77DFE10BDE7
:1042A000A43B002000BFFEE77CB5044600201D466D
:1042B000164600290BD0491ECDE90041044B6A4641
:1042C0002946304600F0F4F8009A002111707CBDB8
:1042D000DF4B000802480068C0F30220704700006E
:1042E0000CED00E010B5002804DB0A07130E054AA8
:1042F000135406E00A07140E034A00F00F031B1FB5
:10430000D45410BD00E400E018ED00E002E008C85D
:10431000121F08C1002AFAD170477047002001E03F
:1043200001C1121F002AFBD1704700002DE9FF5F79
:1043300082B00021DDE90430020DDDF840B0034316
:1043400018D044F61050A2F2FF32424315141198CF
:1043500001281FD0A5EB0B00401C5FEA000A4FF0BC
:1043600000064E4FDFF83891B046504615D5CAF1D9
:10437000000413E0119801244AA3012801D16FEA37
:104380000B010298119AC0E90031C0E9024206B05F
:10439000BDE8F09FCBF10000DFE704460021404A72
:1043A000491842EB0450CDE9001012E0E00707D0B5
:1043B00032463B4640464946FCF733FA804689463A
:1043C00032463B4610461946FCF72BFA06460F4686
:1043D0006410002CEAD1DDE90401DDE90023BAF123
:1043E000000F06DAFCF71DFA42464B46FCF719FAB5
:1043F00005E0FCF788FA42464B46FCF784FA04468F
:104400000E460022284BFCF7FFFB03D84FF0FF308D
:10441000014607E00022254B20463146FCF75AF9B9
:10442000FCF7D9FB102409E0002C0ADB0A22002348
:10443000FBF7C8FF039B30321A55641E50EA010295
:10444000F2D1641C039AC4F111031444119A012A95
:1044500003D0012208430DD10AE0084304D0002014
:104460004FF0110B119072E7A3EB0B056D1E0DE0E1
:104470005B4504DD4FF0000205F1010504E003DABD
:104480004FF00002A5F10105002AECD00298119925
:10449000C0E90231C0E9004579E70000000014409E
:1044A0000000F03F300000000000F0430000E03F5B
:1044B0002DE9FF4F95B09B468946064600250FE241
:1044C000252877D100242746F84A0121059400E0E9
:1044D000044316F8013F203B01FA03F01042F7D1E4
:1044E00030782A2811D06FF02F033078A0F13002F5
:1044F000092A16D8059A44F0020402EB820203EB63
:1045000042021044761C0590EFE759F8042B0592FF
:10451000002A03DA504244F40054059044F00204A7
:10452000761C30782E2816D116F8010F44F00404BA
:104530002A280DD06FF02F023078A0F13003092B1C
:1045400009D807EB870302EB4303C718761CF3E790
:1045500059F8047B761C30786C280FD006DC4C2888
:1045600017D068280DD06A2814D104E0742810D020
:104570007A280FD10DE044F400140AE044F48014CA
:1045800001E044F440147278824202D104F58014B0
:10459000761C761C307866280BD013DC582877D030
:1045A00009DC002875D04528F6D04628F4D04728E5
:1045B0001AD19DE118E0632835D0642879D06528A8
:1045C00012D195E1702873D008DC6728F1D06928F2
:1045D0006FD06E280DD06F2806D1B5E073282CD08F
:1045E000752875D0782874D05A46179990476D1C55
:1045F00075E1C4F30250022809D003280DD0D9F880
:10460000001004280DD00D6009F1040967E1D9F804
:104610000010EA17C1E90052F6E7D9F800100D8042
:10462000F2E70D70F0E719F8041B8DF80010002078
:104630008DF80100EA46012003E059F804AB4FF081
:10464000FF3061074FF0000102D40DE008F10101D5
:104650008846B9420FDA8045F8DB1AF808100029BD
:10466000F4D108E008F1010188468142FADB1AF82A
:1046700008100029F6D105985B46A0EB08072146F3
:104680003846179A00F094FA284400EB080507E032
:104690004DE029E10DE01AF8010B5A4617999047B1
:1046A000B8F10108F7D25B4621463846179A13E164
:1046B00042E00A220092C4F302524FF0000A022A9A
:1046C00008D059F804CB032A4FEAEC710AD00DE068
:1046D00029E02AE009F1070121F00702F2E802C10E
:1046E000914609E00FFA8CFC4FEAEC71042A03D1E1
:1046F0004FFA8CFC4FEAEC71002907DA0A460021D8
:10470000DCF1000C61EB02012D2202E0220504D550
:104710002B228DF80420012203E0E20701D02022A1
:10472000F7E7904659E00A2102E010220DE010213F
:104730004FF0000A00910BE010224FF0000A44F005
:1047400004040827009203E008224FF0000A0092B8
:10475000C4F30252022A05D059F804CB0021032ADF
:1047600008D009E009F1070121F00702F2E802C1CF
:10477000914605E01FFA8CFC042A01D10CF0FF0CD5
:104780004FF00008220728D5702806D0009B83F040
:10479000100353EA0A0305D00EE040228DF80420EE
:1047A000012208E05CEA010206D030228DF80420E4
:1047B0008DF8050002229046009B83F0080353EA1F
:1047C0000A030AD15CEA010201D1620705D5302251
:1047D0008DF804204FF001087F1E582804D034A023
:1047E00003900EA802900DE036A0F9E7534660460C
:1047F000009AFBF7E7FD84460398825C0298401E0E
:10480000029002705CEA0100F0D1029806A9081A31
:1048100000F1200A600702D524F4803400E001276B
:10482000574502DDA7EB0A0000E0002000EB0A017B
:10483000009005984144401A0590E00306D45B4679
:104840002146179A059800F0B3F90544002706E0C1
:1048500001A85A46C05D179990476D1C7F1C4745BB
:10486000F6DBE0030CD55B462146179A059800F06D
:104870009FF9054404E030205A46179990476D1C73
:104880000099481E00900029F5DC08E00298029982
:104890005A460078491C0291179990476D1CBAF14D
:1048A0000001AAF1010AF1DC65E10000092801001C
:1048B0003031323334353637383961626364656696
:1048C0000000000030313233343536373839414258
:1048D000434445460000000000F058F90544761CAA
:1048E000307800287FF4ECAD19B02846BDE8F08F91
:1048F000620700D4062709F1070222F0070CFCE842
:104900000223E14603F000485FEA080C02D00FF2F0
:10491000702C0DE05FEA045C02D50FF2682C07E012
:104920005FEAC47C02D00FF2602C01E0AFF2700CA1
:104930004FF0FF3823F00043CDF850C065280CD06D
:1049400006DC452809D046281DD047283DD13DE04A
:10495000662818D067287ED138E00021112F01DBAE
:10496000112000E0781CCDE9000106A90EA8FFF790
:10497000DDFCDDE90F010E9A03910021009207F1A1
:10498000010A04914DE04FF000400097CDE901107D
:1049900006A90EA8FFF7CAFCDDE90F0203920E9BE1
:1049A00011990022DDF80CA00093049211B9791C32
:1049B00000EB010AB7EB0A0004D4C0F1FF3007F1A5
:1049C000010A0490AAEB0700019044E0012F00DAED
:1049D00001270021112F01DD112000E03846CDE92B
:1049E000000106A90EA8FFF7A1FCDDE90F010E9A50
:1049F0000391002104910092BA4621070CD4039937
:104A0000514500DA8A46BAF1010F05DD009AAAF194
:104A10000101515C302908D0B84202DA10F1040FCC
:104A200006DA0121CDE9011015E0AAF10101E9E75B
:104A3000002805DC049901440491AAEB000102E07E
:104A4000411C514500DD8A460499401A401C0190E2
:104A50004FF000400290200704D40198504501DB3C
:104A6000CDF8048000208DF84F0002980DF14F071B
:104A7000B0F1004F25D02B200E9002984FF0020885
:104A800000280CDA404202902D200E9007E00A2107
:104A90000298FBF7BAFF3031029007F8011DB8F118
:104AA0000001A8F10108F2DC02980028EFD1791E7C
:104AB0000E980870307800F0200040F0450007F8AC
:104AC000020D12A8C01B00F107081498007800B16D
:104AD000012000EB0A01019801EBE07105984144C7
:104AE000401A401E0590E00306D45B462146179A03
:104AF000059800F05DF805441498007818B15A46FE
:104B0000179990476D1CE00324D55B462146179A00
:104B1000059800F04DF805441CE00498002807DBD8
:104B2000DDE90301884203DD0098405C179901E04C
:104B3000179930205A469047049805F10105401C0A
:104B400004900198401E019004D12E205A461799D6
:104B500090476D1CBAF10001AAF1010ADDDC05E005
:104B600017F8010B5A46179990476D1CB8F10001D0
:104B7000A8F10108F4DC5B462146179A0598ABE6DC
:104B80002D0000002B000000200000002DE9F04166
:104B9000044600251E461746880404D405E039461D
:104BA0002020B0476D1C641EF9D52846BDE8F08171
:104BB0002DE9F041044600251E469046C80301D564
:104BC000302700E02027880404D505E04146384618
:104BD000B0476D1C641EF9D52846BDE8F0814A68CF
:104BE000002A06D00A68531C0B6010704868401EEB
:104BF0004860704708B50020009000F025FF0DA028
:104C000002F0F0FA0446104B562221460FA000F0A5
:104C1000C3FF15A000F0C0FF0AE04FF0FF32694665
:104C20001248006803F016F99DF8000000F036FB0A
:104C3000F3E700002E2E5C5372635C6170705F635B
:104C40006F72652E63000000D48500085B25733AFF
:104C500025642025735D207461736B20636F72651A
:104C600020737461727400000D0A00008C01002032
:104C700008B50020009000F0E7FE0DA002F0B2FAA7
:104C80000446104B912221460FA000F085FF15A08D
:104C900000F082FF0BE04FF0FF32694612480068D7
:104CA00003F0D8F807221149009801F003FBF2E75E
:104CB0002E2E5C5372635C6170705F6D61696E2E45
:104CC00063000000298600085B25733A25642025CF
:104CD000735D207461736B206D61696E2073746104
:104CE000727400000D0A0000900100202C000020CA
:104CF00008B50020009000F0A7FE0DA002F072FAA7
:104D00000446104B1D2221460FA000F045FF15A0C0
:104D100000F042FF0BE04FF0FF3269461248006896
:104D200003F098F801221149009801F0C3FAF2E764
:104D30002E2E5C5372635C6170705F6D6F64656D85
:104D40002E630000328600085B25733A2564202517
:104D5000735D207461736B206D6F64656D20737477
:104D6000617274000D0A00009401002070000020A0
:104D700070B504460D462A462146044802F090FBD1
:104D8000204602F02FFC002070BD0000A43B002054
:104D900070B505460E46002000F056FE07A002F052
:104DA00021FA0446094B2822214609A000F0F4FE0E
:104DB0000BA000F0F1FE002070BD00002E2E5C5311
:104DC00072635C64656275672E6300003C86000850
:104DD0005B25733A25642025735D204F4B0000004E
:104DE0000D0A000002464FF0FF30704770B50546CF
:104DF0000E46002412A000F0CFFE17A000F0CCFE5B
:104E000000BF10E004EB8400144B03EB8000026948
:104E100004EB840003EB800111A000F0BDFE0EA0A6
:104E200000F0BAFE641C0C2C07D204EB84000B4982
:104E300001EB800000690028E4D1002070BD000073
:104E40005B44454255475D3E737570706F727420C8
:104E5000636D643A000000000D0A00007C00002031
:104E60005B44454255475D3E0925730925700000A6
:104E700002464FF0FF307047F8B504460E46002555
:104E80006A460BA12046FBF763FB0546012D0CD1BA
:104E9000009800B20949088009A0009900F07CFE42
:104EA0000CA000F079FE0020F8BD4FF0FF30FBE7CA
:104EB000667265714469763A2564000074010020C9
:104EC0004672657120646976206973206F6E2025B3
:104ED000640000000D0A000002464FF0FF307047EA
:104EE0002DE9F8430446884600256A4615A1204668
:104EF000FBF72EFB0546012D10D1009800B200F003
:104F000083F90646009810B100F046FD01E000F07C
:104F100053FD07213046FFF72BFF0FE0032000F081
:104F200093FD0AA002F05EF907460C4BCD223946EC
:104F30000BA000F031FE11A000F02EFE4FF0FF306C
:104F4000BDE8F8836779726F3A2564002E2E5C53B2
:104F500072635C64656275672E6300006486000896
:104F60005B25733A25642025735D20504152414DE5
:104F7000455445204552524F520D0A000D0A00007B
:104F800002464FF0FF3070472DE9F0472DED028BC0
:104F9000A0B081468A46344BD3E901021968DB6828
:104FA0001DAC0DC41C91304B1033D3E90020D3E964
:104FB000021319AC0BC41892042604273A461CAB02
:104FC000012104A8FBF75CF9314618AB012206A8C1
:104FD000FBF756F93A46314608AB02A8FBF750F901
:104FE00002AA04A906A8FBF74FF9804641461FA074
:104FF00000F0D2FD20A000F0CFFD002422E000252B
:105000001BE0BDF80A006843039A02EB800000EB46
:10501000840090ED000A10EE101A0846FBF7E2FC3F
:1050200041EC180B8DED008B2A46214613A000F0B1
:10503000B3FD11A000F0B0FD6D1CBDF80A00A84240
:10504000DFDC641CBDF80800A042D8DC10A000F032
:10505000A3FD09A000F0A0FD4FF0FF3020B0BDEC93
:10506000028BBDE8F0870000448600087374617409
:105070007573203D202564000D0A000058595B25FA
:10508000645D5B25645D203D2025346600000000E2
:105090006D756C7469706C65206F6B002DE9F04163
:1050A00086B004468846002502A803A904AB05AAD9
:1050B000CDE900101EA12046FBF74AFA0546042D53
:1050C00023D101201F49087000F066FCBDF90830AB
:1050D000BDF90C20BDF91010BDF9140000F05DF809
:1050E00006460F213046FFF743FE174ABDF9081068
:1050F0000B2002F0AFF8154ABDF908100A2002F0A3
:10510000A9F8002006B0BDE8F081032000F09CFC67
:105110000FA002F067F80746114BE322394611A0B1
:1051200000F03AFD18A000F037FD0120EAE700008A
:105130006D6F76653A25642C25642C25642C2564D6
:105140000000000078000020D95900088D62000896
:105150002E2E5C5372635C64656275672E6300007B
:105160006D8600085B25733A25642025735D204D0C
:105170004F564520504152414D45544552204552CD
:10518000524F520D0A0000000D0A000002464FF077
:10519000FF3070470246002070472DE9F047054672
:1051A0000E46174698464FF0000A0F2001F066FFA2
:1051B0000446F52020705F2060700820A070022057
:1051C000E070082020716571280AA071E671300A2C
:1051D00020726772380AA07284F80B804FEA182098
:1051E00020734FF0020906E014F80900504400F063
:1051F000FF0A09F10109B9F10D0FF5DB6FEA0A00A9
:1052000060732046BDE8F0872DE9F041064600278F
:105210000F2001F033FF0446F52020705F206070FE
:105220000820A0700120E070207156B1012E11D12C
:105230000220607113A000F0AFFC14A000F0ACFCE1
:1052400011E00020607112A000F0A6FC0FA000F099
:10525000A3FC08E00EA000F09FFC0CA000F09CFC5A
:105260000020607100BF00BF022503E0605D38448C
:10527000C7B26D1C062DF9DBF843A0712046BDE8CE
:10528000F08100004759524F204F4E000D0A000098
:105290004759524F204F46460000000070B5054662
:1052A000002400BF22E01C4810F83400A8421CD1A2
:1052B000194800EBC400406828B1174901EBC4014C
:1052C0004868804770BD002000F0BEFB13A001F0CD
:1052D00089FF0646164B4522314616A000F05CFCBD
:1052E0001EA000F059FC0020ECE7641C052CDAD36A
:1052F000032000F0A9FB09A001F074FF06460C4B47
:105300004B22314616A000F047FC14A000F044FCEC
:105310004FF0FF30D6E70000040000202E2E5C5333
:1053200072635C6170705F636F72652E6300000072
:10533000C48500085B25733A25642025735D2063CE
:105340006F7265206D73672028256429206861735A
:10535000206E6F2068616E646C6572000D0A00003B
:105360005B25733A25642025735D20756E6B6E6F27
:10537000776E20636F7265206D736720282564291E
:105380000000000010B501F0D3FF002010BD10B5E3
:1053900001F0F4FF002010BD10B502F015F8002058
:1053A00010BD002070470020704700002DE9F0413B
:1053B00005460E4600242F4600BF1DE004EB840185
:1053C0001C4A02EB8100FBF79DF8804604EB840049
:1053D000184A02EB800142463846FBF79AF850B96A
:1053E00004EB8400134901EB800031460269284632
:1053F0009047BDE8F081641C0C2C07D204EB8400BC
:105400000C4901EB800000690028D7D1022000F090
:105410001BFB09A001F0E6FE80460B4B40F2151283
:1054200041460AA000F0B8FB10A000F0B5FB4FF019
:10543000FF30DEE77C0000202E2E5C5372635C643C
:10544000656275672E630000768600085B25733AF7
:1054500025642025735D20434D44206E6F742070B9
:10546000726F636573736564000000000D0A0000CD
:105470001EB502460020009001900290154B186066
:1054800058609860002118E0009801EB4103124C2D
:1054900034F9133018440090019B01EB4100401C8B
:1054A00034F9100018440190029B01EB4100801C6C
:1054B00034F9100018440290491CFF29E4DD0098DB
:1054C000000A044B18600198000A58600298000A0C
:1054D00098601EBD543500205405002000B50246DA
:1054E000002001460EE002EB8100D0ED000AB0EE94
:1054F000600A00F00DF8054800EB810080ED000A1D
:10550000481C0146FF29EEDD00BD000054230020A9
:10551000F0EE400A124890ED000A30EE200AB0EE9C
:10552000401A104890ED000AF0EE001A00EEA10AB1
:10553000DFED0D1A01EE610A094880ED000AB7EEB1
:10554000000A20EE800ADFED091A01EE610A054823
:1055500080ED000A9FED060A21EE000A7047000068
:10556000780100207C0100206150FABF0BE0743FFD
:105570007A057D3970B52DED028B05460E4600206B
:10558000044621E005EB840090ED000A10EE101AAD
:105590000846FBF727FA41EC180B53EC182B0DA02B
:1055A00000F01EFB06EB840090ED000A10EE101ACE
:1055B0000846FBF717FA41EC180B53EC182B06A022
:1055C00000F00EFB601C0446FF2CDBDDBDEC028B03
:1055D00070BD000025662C0025660A0030B5024625
:1055E00000240023002000EE100A00212FE002EB2F
:1055F0008105D5ED000AFDEEE00A10EE900A0028C4
:1056000001DB054600E0454200EE105A53B9F8EEC2
:10561000C00A9FED111AF4EEC10AF1EE10FA01D2A0
:10562000012312E0012B0ED1F8EEC00A9FED0A1AF9
:10563000F4EEC10AF1EE10FA05DD601C04B2052C8F
:1056400003D1084630BD00230024481C01B2FF29C5
:10565000CDDD0020F6E7000000BADB487CB5002075
:105660000090019000259048FFF702FF002435E0EC
:1056700004EB44008C4931F910008C490968401A48
:1056800000EE100AB8EEC00A894800EB840080EDF5
:10569000000A04EB4400401C834931F9100083499F
:1056A0004968401A00EE100AB8EEC00A814800EBC3
:1056B000840080ED000A04EB4400801C7A4931F933
:1056C00010007A498968401A00EE100AB8EEC00A44
:1056D000794800EB840080ED000A641CFF2CC7DDD4
:1056E00076480068006840F0010074490968086065
:1056F000002490E07248B0F9000094FBF0F100FB48
:10570000114000EE100AB8EEC00ADFED6E0A60EE3E
:10571000200A6B48B0F9000000EE100AB8EEC00A8B
:1057200080EE801ABDEEC10A10EE100A00B2664982
:1057300031F9100000EE100AB8EEC00A5C4800EB28
:105740008400D0ED000A20EE200A604800EB8400BF
:1057500080ED000A5A48B0F9000094FBF0F100FB1C
:10576000114000EE100AB8EEC00ADFED560A60EEF6
:10577000200A5348B0F9000000EE100AB8EEC00A43
:1057800080EE801ABDEEC10A10EE100A00B24E493A
:1057900031F9100000EE100AB8EEC00A454800EBDF
:1057A0008400D0ED000A20EE200A494800EB840076
:1057B00080ED000A4248B0F9000094FBF0F100FBD4
:1057C000114000EE100AB8EEC00ADFED3E0A60EEAE
:1057D000200A3B48B0F9000000EE100AB8EEC00AFB
:1057E00080EE801ABDEEC10A10EE100A00B23649F2
:1057F00031F9100000EE100AB8EEC00A2E4800EB96
:105800008400D0ED000A20EE200A324800EB84002C
:1058100080ED000A641CFF2C7FF76CAF2B48FFF76C
:105820005DFE2D492948FFF7A5FE2B48FFF7D6FE60
:1058300000B2ADF800002948FFF7D0FE00B2ADF885
:1058400002002748FFF7CAFE00B2ADF80400BDF819
:10585000000018B9BDF80200002823D0642D01D241
:105860006D1C03E01FA000F097F90025BDF80000B3
:10587000C0B1BDF80200A8B1002000F0E5F81CA0FE
:1058800001F0B0FC06461F4B40F2672231461EA0D5
:1058900000F082F928A000F07FF90020ADF80000A8
:1058A000ADF802007CBD00005405002054350020F6
:1058B000540B0020540F002054130020E43A002021
:1058C0007401002000000044848600085417002062
:1058D000541B0020541F0020542300205427002074
:1058E000542B002074696D65206F757421000000D1
:1058F0002E2E5C5372635C6473705F66696C7465B2
:10590000722E6300A08A00085B25733A2564202567
:10591000735D206C6162656C5B305D203D202564A9
:105920002C6C6162656C5B315D203D2025642C63CD
:105930006E74203D202564000D0A000001460529F3
:105940000ED2DFE801F0030507090B0005A0704740
:1059500005A0FCE705A0FAE705A0F8E705A0F6E733
:1059600005A0F4E7440000005700000049000000D3
:1059700045000000460000000000000010B502F0E5
:1059800093FB04461CB1204600F074FE10BD01A03C
:10599000FCE700006F73000010B501200549087096
:1059A000FFF732FC044607212046FFF7E1F900200B
:1059B00010BD00007900002010B5002005490870D6
:1059C000FFF722FC044607212046FFF7D1F900200B
:1059D00010BD00007900002010B510480078A8B96B
:1059E0000F48007801280BD141F2883303220021AF
:1059F0000846FFF7D2FB04460F212046FFF7B8F90F
:105A000008A000F0C9F80AA000F0C6F8094A41F25F
:105A100088310B2001F01EFC002010BD7800002012
:105A200079000020484541525F4245415400000042
:105A30000D0A0000D959000800BFEFF3058008B136
:105A4000012070470020FCE770B5044600F02AFEF4
:105A50002046FFF773FF0546FFF790FF06462A46EC
:105A6000314602A000F098F870BD0000205B25735D
:105A70005D5B25735D0000002DE9F04780460D4613
:105A800000240026474637A000F086F800BF04E057
:105A9000214636A000F080F8641C102CF8DB31A001
:105AA00000F07AF8002404E0214632A000F074F8F7
:105AB000641C102CF8DB30A000F06EF800244CE0E1
:105AC000A146E01704EB10700011411C2BA000F060
:105AD00063F8264604E0B95D2AA000F05DF8761C64
