:020000040800F2
:10000000E8CF00205D020008DD2F0008C32C0008A7
:10001000D92F000841100008AD3900080000000089
:100020000000000000000000000000009D0100082A
:100030004510000800000000F9010008E12F000849
:1000400077020008770200087702000877020008AC
:10005000770200087702000877020008770200089C
:10006000770200087702000877020008770200088C
:10007000770200087702000877020008770200087C
:100080007702000877020008D10E00087702000806
:10009000770200087702000877020008770200085C
:1000A000770200087702000877020008770200084C
:1000B000770200083131000841310008770200085A
:1000C000770200087702000877020008770200082C
:1000D000770200084D3900086D3900088D39000895
:1000E000770200087702000877020008770200080C
:1000F00077020008770200087702000877020008FC
:1001000077020008770200087702000877020008EB
:1001100077020008770200087702000877020008DB
:1001200077020008770200087702000877020008CB
:1001300077020008770200087702000877020008BB
:1001400077020008770200087702000877020008AB
:10015000770200087702000877020008770200089B
:10016000770200087702000877020008770200088B
:1001700077020008770200087702000800000000FC
:100180007702000877020008DFF80CD000F0A0FC2E
:1001900000480047114B0008E8CF00202C4B19689D
:1001A0000868B0E8F04F80F30988BFF36F8F4FF015
:1001B000000080F3118870470000000008480068C4
:1001C000006880F308884FF0000080F3148862B65E
:1001D00061B6BFF34F8FBFF36F8F00DF00BF00BF6B
:1001E00008ED00E0DFF80C00016841F470010160E7
:1001F000704700BF88ED00E0EFF30980BFF36F8F19
:10020000134B1A681EF0100F08BF20ED108A20E96A
:10021000F04F106009B44FF0500080F31188BFF325
:100220004F8FBFF36F8F06F02DF94FF0000080F372
:10023000118809BC19680868B0E8F04F1EF0100F6B
:1002400008BFB0EC108A80F30988BFF36F8F704746
:10025000A0010020EFF305807047000006488047AA
:1002600006480047FEE7FEE7FEE7FEE7FEE7FEE79B
:10027000FEE7FEE7FEE7FEE7CD3000088901000853
:100280002DE9F05F0546002092469B4688460646CB
:10029000814640241BE0284641464746224600F05E
:1002A0001EFA53465A46C01A914110D311461846B9
:1002B000224600F005FA2D1A67EB01084F46224648
:1002C0000120002100F0FCF917EB00094E41201E2F
:1002D000A4F10104DFDC484631462A464346BDE826
:1002E000F09F0000014610B509683C22B1FBF2F313
:1002F00002FB1313B1FBF2F11D480360B1FBF2F3F3
:1003000002FB1313B1FBF2F118224360B1FBF2F3CD
:1003100002FB1313B1FBF2F183600A1D0723B2FB4A
:10032000F3F403FB142282618A0040F2B55102F615
:100330006C32B2FBF1F344334361B2FBF1F301FBE6
:1003400013218908C1613B2903D3027D920700D0A4
:10035000491C0022074C13460261E25C8A4203D822
:10036000891A5B1C0361F8E7491CC16010BD0000DD
:10037000B8CB00208472000840EA01039B0703D039
:1003800009E008C9121F08C0042AFAD203E011F8D4
:10039000013B00F8013B521EF9D27047D2B201E096
:1003A00000F8012B491EFBD270470022F6E710B57A
:1003B00013460A4604461946FFF7F0FF204610BDD3
:1003C000421C10F8011B0029FBD1801A704730B580
:1003D00005460020034600E05B1C934205D2EC5C1E
:1003E000C85C201A01D1002CF6D130BD0246C9B23A
:1003F00000E0401C0378002BFBD102E003788B4225
:1004000003D0401E9042F9D2002070470FB400B5CF
:100410008DB010A909900B9000914FF0FF300A9019
:1004200000200C9005480690054807906A4609A8E8
:100430000F9900F079F90DB05DF814FB450700083D
:10044000630700082DE9FF5F1D464FF0FF3BD5E92C
:10045000014691465F464FF00008A9697F1C01984C
:100460008847296A824688470028F6D1BAF1FF3FBB
:100470000CD024F4C064002E19DD600614D5BAF146
:100480002B0F09D0BAF12D0F0ED103E0584604B05E
:10049000BDE8F09F44F48064A9697F1C01988847F7
:1004A000761E8246002E02DDBAF1300F03D0B9F17C
:1004B000000F26D032E0A969761E44F400747F1C38
:1004C000019888478246002E05DDBAF1780F06D0E4
:1004D000BAF1580F03D0B9F1000F10D01EE0B9F1F6
:1004E000000F02D0B9F1100F18D1A969761E24F4BB
:1004F00000747F1C019888478246102002E0082083
:1005000000E00A20814609E008FB0908A969761E77
:1005100044F400747F1C019888478246002E05DD54
:100520004946504600F0EBF80028EDDAE9690198F9
:100530008847A00502D46FF00100A8E7E00725D1A5
:10054000600613D5600502D5C8F1000000E0404602
:1005500029680A1D2A600968220501D5087015E07E
:10056000220701D5088011E008600FE02868011D0E
:1005700029600068210502D580F8008006E0210787
:1005800002D5A0F8008001E0C0F8008038467EE780
:100590002DE9F04D81EA030404F0004B21F0004501
:1005A00014464FF0000A23F0004150EA050220D023
:1005B00054EA01021DD0C5F30A570246C5F31303DE
:1005C000C1F31300C1F30A5640F4801543F48013BD
:1005D000A7EB0608101BD64608F2FD3873EB0500A2
:1005E00002D308F1010801E092185B41B8F1000F55
:1005F00003DA00200146BDE8F08D00204FF48011A1
:10060000064684460EE0171B73EB050705D3121B45
:1006100063EB050306434CEA010C49084FEA30003E
:1006200092185B4150EA0107EDD152EA030012D063
:1006300082EA040083EA0501084305D0101BAB41A0
:1006400006D20122002306E000224FF0004302E020
:100650006FF0010253101AEB06004CEB085110EB3F
:100660000A0041EB0B01BDE8F04D00F08BB800F043
:10067000004230F000400AD0C10D01F56071C0F3B6
:10068000160042EA0151C20840071143704700209A
:100690000146704730B50B46014600202022012458
:1006A00009E021FA02F59D4205D303FA02F5491B40
:1006B00004FA02F52844151EA2F10102F1DC30BD56
:1006C000202A04DB203A00FA02F100207047914012
:1006D000C2F1200320FA03F3194390407047202A07
:1006E00004DB203A21FA02F00021704721FA02F3DC
:1006F000D040C2F1200291400843194670473A2881
:1007000000D2303820F02002412A01D3A2F1370074
:10071000884201D34FF0FF30704700000268114457
:100720001378016018467047D1600449516104494B
:10073000116200211161114600F0F4B91D07000893
:10074000190B0008426842B1016811F8013B23B15E
:10075000521EC0E90012184670470121C160881E70
:10076000704742685AB1C368016843B983688B42D5
:1007700005D0491E521CC0E90012002070474FF0FE
:10078000FF30704710B5141E73F1000408DA401CE6
:1007900041F1000192185B411A4301D120F00100A0
:1007A00010BD2DE9F04D92469B4611B1B1FA81F290
:1007B00002E0B0FA80F220329046FFF781FF044653
:1007C0000F4640EA0A0041EA0B0153465A460843E5
:1007D00013D0114653EA010019D0C8F14002504627
:1007E000FFF77DFF05460E46504659464246FFF745
:1007F00067FF084305D0012004E020463946BDE8E4
:10080000F08D0020054346EAE0762C4337430A98F2
:100810006305E40AA0EB08000022FD0A44EA4754FD
:100820000A3002D500200146E9E7010510196941A7
:10083000DDE9084500196941BDE8F04DA2E72DE961
:10084000FE4F804681EA0300C00F0C46009021F065
:10085000004123F00045B8EB0200A94105D2404613
:10086000214690461C460B46024623F000401043AA
:1008700047D0270DC7F30A00C3F30A510290401A6C
:10088000019040286BDAC3F3130040F4801B0098FA
:10089000924620B10023D2EB030A63EB0B0B0198C5
:1008A0005946C0F140025046FFF70AFF06460D4682
:1008B00050465946019A00F01DF910EB08006141BD
:1008C000002487EA115284EAE7731A4340D0009A61
:1008D00062B3019A012A4FEA075215DC001B61EB53
:1008E00002014FF0004202EA0752CDE90042001C2B
:1008F00041F5801132462B46FFF753FF03B0BDE8A8
:10090000F08F40462146F9E7001B61EB0201001C15
:1009100041F5801300185B412018A2F5001747EB42
:10092000030140EAD570B6196D4111E06D084FEA38
:10093000360645EAC0754FEA0752001B61EB02011B
:10094000001C41F5801149084FEA3000001951415F
:1009500032462B4603B0BDE8F04FFFF713BF0098B7
:10096000012240000023D0EB020263EBE073009809
:1009700021464FEAE074B8EB000061EB0401E9E7BF
:1009800083F000435BE781F0004158E72DE9FE4F1B
:1009900081EA030404F0004421F0004100944FF088
:1009A000000B23F0004350EA01045ED052EA030436
:1009B0005BD0C3F30A54C1F30A552C44A4F2F334B8
:1009C0000194A0FB0254C1F3130141F48011C3F35D
:1009D000130343F4801301FB024400FB034E840A1B
:1009E000970A44EA815447EA8357A4FB07680295B3
:1009F0008D0A05FB07854FEA932C04FB0C54270551
:100A0000029D4FEA065847EA1637B5EB08056EEB2C
:100A1000070C870E920E47EA811742EA8312A7FB62
:100A20000201B6EB0B0164EB00042B0D43EA0C331F
:100A30005E1844EB1C50DA465146E7FB0201C5F351
:100A400013044FEA0B3343EA14534FEA0432019C78
:100A500043EA0603A4F10C040294009CCDE900B41F
:100A6000FFF79FFE03B0BDE8F08F00200146F9E7D5
:100A7000C1F30A52C1F3130140F2FF3341F4801174
:100A80009A4202DA00200146704740F233439A420C
:100A9000A2F2334202DC5242FFF721BEFFF710BE42
:100AA00030B5041E71F1000404DB4FF000444042F5
:100AB00064EB0101141E73F1000405DB1C464FF0CA
:100AC0000043524263EB0403994208BF904230BD99
:100AD000064C074D06E0E06840F0010394E807008B
:100AE00098471034AC42F6D3FFF752FBF47200087B
:100AF00014730008202A06DBCB17203A41FA02F0D3
:100B000043EAE07306E041FA02F3D040C2F120026A
:100B10009140084319467047C0B24FF4F05100F0BD
:100B200097B900002DE9F34F8BB04FF0000801F1A9
:100B30000C000C464FF0010B46460DF1080A0190DF
:100B40006269012101989047051E2DD0252D2CD0DA
:100B5000216A8847C0B16269012101989047216AE2
:100B600088470028F7D1411E62690198904700E04C
:100B7000761CA1690B988847216A88470028F7D11D
:100B8000E1690B988847DBE7A1690B98884707461E
:100B9000A84201D1761CD3E7E1690B9888477F1CF6
:100BA00002D1B8F1000F6FD046E1002762693D46DF
:100BB0003946019890472A2804D162690121019899
:100BC00090470125DFF884926269012101989047DE
:100BD000A0F130010A290AD24F45E5DC07EB870175
:100BE00000EB4107303FDFD445F01005ECE7E906A4
:100BF00001D46FF000476C280AD04C2814D0682824
:100C000015D06A280DD074281CD07A281AD01DE07F
:100C100062690121019890476C2802D045F00405D3
:100C200014E045F002050DE045F020050AE0626998
:100C3000012101989047682802D045F0080505E099
:100C400045F400656269012101989047C4E90157A4
:100C500065283DD019DC58287AD00CDC452837D0DF
:100C600004DC252826D0412831D131E046282FD078
:100C700047282CD12CE05B2877D0612828D0632826
:100C80007CD0642823D15AE0D0E06F2848D008DC1B
:100C900066281DD067281BD0692821D06E2816D160
:100CA00027E0702845D0732868D0752847D0782869
:100CB0000DD14DE0A1690B988847054625283FF4E2
:100CC00069AFE1690B9888476D1C3FF46AAFB3E0E8
:100CD00023466A466FF001000B99AFF300809EE057
:100CE00045F040006060A80723464FF0000236D46C
:100CF0003EE0E8077FF447AF2068011D21600068EF
:100D0000290501D506701BE7290701D5068017E7DD
:100D1000A90703D5F117C0E9006111E706600FE7E5
:100D200045F040006060A80723464FF0080216D443
:100D30001EE040F60E0125EA0100606016E045F075
:100D400040006060A80723464FF00A0207D40FE076
:100D500045F040006060A80708D5234610226FF0D8
:100D600001000B99AFF3008059E007E02346102201
:100D70006FF001000B99FFF765FB50E04FF00009A1
:100D80004F464B46632802D05B2806D040E0E80679
:100D900001D40120A06001273AE062690121019895
:100DA00090475E2805D14FF00109626949460198D4
:100DB0009047216939B900210A46534643F821205A
:100DC000491C0829FADBB0B3216969B9C11700EBE6
:100DD000D16253110AEB830122F01F02821A012013
:100DE0000B68904003430B606269012101989047B2
:100DF0005D28E8D1B9F1000F09D00020514651F823
:100E00002020D24341F82020401C0828F7DB02AB09
:100E1000224600976FF001000B99AFF30080002885
:100E20000CDA401C08D1BBF1000F05D04FF0FF30A9
:100E30000DB0BDE8F08FFFE74046F9E7E90701D1C3
:100E400008F1010806444FF0000B79E6CCCCCC0C3D
:100E50007F2801D9002208E0064A02EB5002C007B1
:100E6000127800D1120902F00F02012090400840D0
:100E7000704700009072000870B58C1810F8015B84
:100E800015F0070301D110F8013B2A1106D110F823
:100E9000012B03E010F8016B01F8016B5B1EF9D127
:100EA0002B0705D40023521E0DD401F8013BFAE7AD
:100EB00010F8013BCB1A921C03E013F8015B01F818
:100EC000015B521EF9D5A142D8D3002070BD0000AD
:100ED00010B5024800F082F910BD00003005002076
:100EE00055494A6822F440324A604A6843681A43C6
:100EF0004A600268526822F4807203685A6002688D
:100F00005368026943EA022203685A600268526821
:100F100022F0407203685A600268526883681A437C
:100F200003685A600268926822F4006203689A605B
:100F300002689268C3681A4303689A603F4B826AEA
:100F40009A4218D00268926822F0706203689A6030
:100F500002689268836A1A4303689A60026892681A
:100F600022F0405203689A6002689268C36A1A438A
:100F700003689A600BE00268926822F0706203686E
:100F80009A600268926822F0405203689A60026890
:100F9000926822F0020203689A6002689368027EF7
:100FA00043EA420203689A602022125CA2B10268FE
:100FB000526842F4006203685A600268526822F480
:100FC000604203685A6002685368426A521E43EAEC
:100FD000423203685A6005E00268526822F40062F7
:100FE00003685A600268D26A22F470020368DA6207
:100FF0000268D36A828B521E43EA02520368DA62A5
:101000000268926822F4007203689A60026893682A
:1010100090F8302043EA422203689A60026892689E
:1010200022F4806203689A6002689368426943EA26
:10103000822203689A607047002301400100000F7C
:1010400000BFFEE7704770477047000038B50246A2
:101050000020009000BF92F83C00012801D102203E
:1010600038BD012082F83C0000BF0868092816D965
:101070001068C0680C780A3C04EB44050724AC40B7
:10108000A0431468E0600C780A3C04EB44048868D0
:10109000A0401468E46820431468E06013E010681E
:1010A00000690C7804EB44050724AC40A0431468A5
:1010B00020610C7804EB44048868A040146824691B
:1010C0002043146820614868072817D21068406BD5
:1010D0000C79641E04EB84051F24AC40A043146803
:1010E0006063088880B20C79641E04EB8404A0401D
:1010F0001468646B20431468606331E048680D280D
:1011000017D21068006B0C79E41F04EB84051F24D0
:10111000AC40A04314682063088880B20C79E41FB7
:1011200004EB8404A0401468246B204314682063FB
:1011300016E01068C06A0C790D3C04EB84051F248E
:10114000AC40A0431468E062088880B20C790D3C82
:1011500004EB8404A0401468E46A20431468E0624D
:10116000194B1A4C1068A04206D10868122803D106
:10117000586840F480005860144C1068A0421CD19C
:101180000868102802D00868112816D1586840F461
:1011900000005860086810280FD10D4800680D4CF9
:1011A000B0FBF4F000EB80004000009002E00098FB
:1011B000401E009000980028F9D100BF002082F85E
:1011C0003C0000BF00BF4BE700230140002001406E
:1011D0009C01002040420F007047704770B50446E4
:1011E0000025002620680068C0F34005206840689C
:1011F000C0F3401695B38EB3206C00F0100018B900
:10120000206C40F4007020642068806800F040503A
:10121000E8B9207ED8B92068C06A00F4700020B117
:101220002068806800F4806088B92068406820F0F9
:10123000200021684860206C20F480702064206CBD
:1012400000F4805018B9206C40F001002064204662
:10125000FFF7C2FF6FF01200216808602068006885
:10126000C0F3800520684068C0F3C016E5B3DEB364
:10127000206C00F0100018B9206C40F4005020647D
:101280002068806800F4401038BB2068806B00F450
:10129000401020B12068806800F48060E8B92068C0
:1012A000406800F48060C0B92068806800F0405059
:1012B00098B9207E88B92068406820F080002168B5
:1012C0004860206C20F480502064206C00F4807012
:1012D00018B9206C40F0010020642046FFF7B4FEEE
:1012E0006FF00C00216808602068006800F00105BC
:1012F00020684068C0F3801685B17EB12068006820
:1013000000F0010050B1206C40F480302064204691
:1013100000F052F86FF00100216808602068006852
:10132000C0F3401520684068C0F380667DB176B197
:10133000606C40F0020060646FF02000216808607B
:101340002046FFF74AFF6FF020002168086070BD5B
:1013500070B5044600250CB9012070BD1549A06A7E
:10136000884200D000BF206C30B9204600F026F83B
:101370000020606484F83C00206C00F0100088B904
:10138000206C20F4885040F0020020642046FFF7D3
:10139000A7FD00206064206C20F0020040F00100F6
:1013A000206400E0012500BF002084F83C0000BF5D
:1013B0002846D2E70100000F7047000010B586B044
:1013C0000446142101A8FEF7F0FF1D492068884259
:1013D00033D100BF002000901A48006840F48070AC
:1013E000184908600846006800F48070009000BF4B
:1013F00000BF00BF0020009012481438006840F081
:1014000001001049143908600846006800F0010026
:10141000009000BF00BF0720019003200290002031
:10142000039001A9084800F025F8002205211220A8
:1014300000F0D6F9122000F0C3F906B010BD00008C
:10144000002001404438024000000240014691F86B
:101450003500022803D08020486501207047052010
:1014600081F835000868006820F001000A68106003
:101470000020F3E7F8B502460B46002500240020C3
:101480000021DCE0012606FA01F51E6806EA0504E3
:10149000AC4273D15E68022E02D05E68122E13D168
:1014A000CF0802F1200656F827004E07F70E0F2648
:1014B000BE40B0434F07FF0E1E69BE403043CF0809
:1014C00002F1200646F8270010684F000326BE40B0
:1014D000B0431E7906F003064F00BE403043106053
:1014E0005E68012E08D05E68022E05D05E68112E5F
:1014F00002D05E68122E13D190684F000326BE40C2
:10150000B0434F00DE68BE40304390605068012613
:101510008E40B0431E79C6F300168E4030435060B3
:10152000D0684F000326BE40B0434F009E68BE40C7
:101530003043D0605E6806F08056B6F1805F7DD1A2
:1015400000BF00260096404E366846F480463E4F67
:101550003E603E46366806F48046009600BF00BFF7
:101560003A4E8F0856F827008E07370F0F26BE40D9
:10157000B043374EB24202D1002624E05EE0354E41
:10158000B24201D101261EE0334EB24201D1022601
:1015900019E0324EB24201D1032614E0304EB2427D
:1015A00001D104260FE02F4EB24201D105260AE0F8
:1015B0002D4EB24201D1062605E02C4EB24201D199
:1015C000072600E008268F073F0FBE4030431F4E1E
:1015D0008F0846F82700264E3068A0435E6806F460
:1015E0008036B6F5803F00D12043214E3060361D55
:1015F0003068A0435E6806F40036B6F5003F00D1BF
:1016000020431B4E361D3060361D3068A0435E6897
:1016100006F48016B6F5801F00D12043144E08361C
:101620003060361D3068A0435E6806F40016B6F5DB
:10163000001F00D120430E4E0C363060491C10298B
:10164000FFF420AFF8BD00004438024008380140E4
:10165000000002400004024000080240000C02406A
:10166000001002400014024000180240001C02401A
:10167000003C01400AB1816101E00B0483617047C5
:10168000014800687047000090010020034800688E
:101690000349097808440149086070479001002017
:1016A0009801002010B50D48006840F400700B4907
:1016B00008600846006840F48060086008460068DA
:1016C00040F480700860032000F0C8F8002000F0AB
:1016D00007F800F04BF8002010BD0000003C02406D
:1016E00070B588B0044600250026002221461E2041
:1016F00000F076F81E2000F063F800BF0020019093
:101700001648006840F00400144908600846006864
:1017100000F00400019000BF00BF02A903A800F080
:1017200071F900F097F945000D48B5FBF0F0461E41
:101730000C480D49086040F2E7310B48C160466033
:1017400000210161816000F0D7FC20B9064800F05B
:1017500055FD08B070BD0120FBE700004038024095
:1017600040420F0000080040D006002008B500BF2E
:10177000002000901148006840F480400F49086044
:101780000846006800F48040009000BF00BF00BF22
:1017900000200090081F006840F08050091F08607A
:1017A0000846006800F08050009000BF00BF002293
:1017B0000F21901E00F014F808BD000044380240CC
:1017C00001460846002809DB00F01F0301229A4069
:1017D00043099B0003F1E023C3F8002100BF7047D9
:1017E0002DE9F05F80460D461646002702F0F6F818
:1017F000074639462A46334601F00700C0F1070A7A
:10180000BAF1040F02D94FF0040A01E0C0F1070A4F
:10181000D14600F1040ABAF1070F02D24FF0000AD4
:1018200001E0A0F1030AD4464FF0010A0AFA09FACE
:10183000AAF1010A0AEA020A0AFA0CFA4FF0010BAD
:101840000BFA0CFBABF1010B0BEA030B4AEA0B049E
:101850002146404602F0CAF8BDE8F09F00BF00F004
:101860000702064B19684FF6FF031940044B0B4360
:1018700043EA0221014B196000BF70470CED00E004
:101880000000FA0570B504460D460CB9012070BD84
:101890005848006800F00F00A84209D255490D7061
:1018A0000846006800F00F00A84201D00120EEE7D2
:1018B000207800F0020002281DD1207800F00400FA
:1018C000042805D14C48006840F4E0504A490860BB
:1018D000207800F00800082805D14748006840F447
:1018E0006040454908604448006820F0F000A16865
:1018F000084341490860207800F00100A8B36068FF
:10190000012807D13C4808380068C0F34040B8B906
:101910000120BCE76068022802D06068032807D174
:10192000354808380068C0F3406048B90120AEE788
:10193000314808380068C0F3400008B90120A6E724
:101940002D48006820F00300616808432A490860B8
:10195000FFF796FE064609E0FFF792FE801B41F274
:101960008831884202D9032091E707E022480068C5
:1019700000F00C006168B0EB810FEDD11D480068EC
:1019800000F00F00A84209D91A490D7008460068F6
:1019900000F00F00A84201D0012078E7207800F085
:1019A0000400042807D11448006820F4E050E168DE
:1019B000084311490860207800F00800082808D181
:1019C0000D48006820F46040216940EAC1000A49DE
:1019D000086000F05FF808490968C1F30311074A7D
:1019E000515CC840064908600020FFF779FE0020DE
:1019F0004DE70000003C0240083802406C720008CD
:101A00009C0100200F2202600D4A126802F00302BE
:101A100042600B4A126802F0F0028260084A1268C3
:101A200002F4E052C260064A126802F46042D20830
:101A30000261044A126802F00F020A607047000057
:101A400008380240003C024001480068704700002E
:101A50009C01002000B5FFF7F7FF04490968C1F3B6
:101A60008221034A515CC84000BD00000838024092
:101A70007C72000800B5FFF7E7FF04490968C1F36D
:101A80004231034A515CC84000BD000008380240A2
:101A90007C7200082DE9F047002400250026A146AD
:101AA0002548006800F00C0020B1042805D0082863
:101AB0003AD105E0DFF8849039E0DFF8849036E031
:101AC0001D48001F006800F03F041B48001F00680D
:101AD00000F4800078B11A481749091F0968C1F35A
:101AE0008811A0FB01700146224600233846FEF70C
:101AF000C7FB05460EE011480F49091F0968C1F3ED
:101B00008811A0FB01700146224600233846FEF7EB
:101B1000B7FB05460848001F0068C0F30140401CA1
:101B20004600B5FBF6F902E0DFF8109000BF00BFF9
:101B30004846BDE8F0870000083802400024F40061
:101B400040787D01F8B504460CB90120F8BD207835
:101B500000F00100002874D0F948006800F00C0083
:101B600004280DD0F648006800F00C00082813D1B6
:101B7000F348001F006800F48000B0F5800F0BD11F
:101B8000EF4808380068C0F34040002859D060682A
:101B9000002856D10120D9E700BF6068B0F5803F2A
:101BA00008D1E7480838006840F48030E449083933
:101BB00008601EE06068B0F5A02F0DD1E04808383D
:101BC000006840F48020DE49083908600846006853
:101BD00040F4803008600CE0D9480838006820F4F0
:101BE0008030D749083908600846006820F4802012
:101BF000086000BF606890B1FFF742FD054606E04F
:101C0000FFF73EFD401B642801D903209EE7CC4826
:101C100008380068C0F340400028F1D011E0FFF719
:101C20002FFD054606E0FFF72BFD401B642801D978
:101C300003208BE7C24808380068C0F34040002802
:101C4000F1D1207800F0020002285FD1BC48006882
:101C500000F00C0058B1BA48006800F00C000828E9
:101C60001CD1B748001F006800F48000B0B9B44828
:101C700008380068C0F3400020B1E068012801D0B6
:101C8000012063E7AE480838006820F0F8002169B9
:101C900040EAC100AA490839086037E0E06800B3AB
:101CA0000120A8490860FFF7EBFC054606E0FFF7B6
:101CB000E7FC401B022801D9032047E7A048083869
:101CC0000068C0F340000028F1D09D480838006843
:101CD00020F0F800216940EAC100994908390860FC
:101CE00014E0002097490860FFF7CAFC054606E0AB
:101CF000FFF7C6FC401B022801D9032026E79048C5
:101D000008380068C0F340000028F1D1207800F0C6
:101D1000080008282CD16069A8B101208A49086010
:101D2000FFF7AEFC054606E0FFF7AAFC401B0228C1
:101D300001D903200AE782486C300068C0F34000F4
:101D40000028F1D014E000207F490860FFF798FCDC
:101D5000054606E0FFF794FC401B022801D903204A
:101D6000F4E677486C300068C0F340000028F1D1F9
:101D7000207800F00400042870D100267048383024
:101D8000006800F0805090B900BF002000906C48BF
:101D90003830006840F080506949383108600846A2
:101DA000006800F08050009000BF00BF0126674827
:101DB000006800F48070B0B96448006840F4807036
:101DC00062490860FFF75CFC054606E0FFF758FC37
:101DD000401B022801D90320B8E65C48006800F4E3
:101DE00080700028F2D000BFA068012808D15448B4
:101DF0006830006840F001005149683108601DE01A
:101E0000A06805280DD14E486830006840F00400F5
:101E10004B49683108600846006840F001000860DE
:101E20000CE047486830006820F001004449683100
:101E300008600846006820F00400086000BFA06841
:101E4000A8B1FFF71DFC054609E0FFF719FC401B90
:101E500041F28831884202D9032077E626E03848EB
:101E600068300068C0F340000028EED013E0FFF7B0
:101E700007FC054608E0FFF703FC401B41F28831F0
:101E8000884201D9032061E62D4868300068C0F31C
:101E900040000028EFD1012E07D1294838300068D2
:101EA00020F0805026493831086000BFA069B8B3DF
:101EB0002348006800F00C0008285ED0A0690228C2
:101EC00046D100201F490866FFF7DAFB054606E009
:101ED000FFF7D6FB401B022801D9032036E618483D
:101EE00008380068C0F340600028F1D1D4E9070148
:101EF0000843616A40EA81110122A06AC2EB5000E6
:101F000041EA00412C20005D41EA00600C49091FB4
:101F1000086001200B490866FFF7B2FB054607E0A1
:101F20002DE0FFF7ADFB401B022801D903200DE691
:101F3000034808380068C0F340600028F1D01EE074
:101F40000838024000004742800E474200700040BF
:101F500000200C490866FFF793FB054606E0FFF7F3
:101F60008FFB401B022801D90320EFE506480068DB
:101F7000C0F340600028F2D101E00120E6E5002036
:101F8000E4E50000000047420038024010B5044676
:101F90000CB9012010BD606A00B900BF0021A16228
:101FA00094F8510028B9002084F85000204600F031
:101FB00033F8022084F851002068006820F04000C7
:101FC00021680860D4E901010843E16808432169F8
:101FD000084361690843218B01F400710843E169FA
:101FE0000843216A0843A16A084321680860042164
:101FF000A06901EA1040616A0843216848602068CE
:10200000C06920F400602168C8610020606501207B
:1020100084F851000020BDE710B586B004461421B5
:1020200001A8FEF7C2F91B49206888422FD100BFE2
:10203000002000901848006840F48050164908605D
:102040000846006800F48050009000BF00BF00BF49
:102050000020009010481438006840F001000E493C
:10206000143908600846006800F00100009000BFC5
:1020700000BFE02001900220029000200390032086
:1020800004900520059001A90448FFF7F3F906B074
:1020900010BD000000300140443802400000024002
:1020A0007047704710B5024600BF92F83C00012807
:1020B00001D1022010BD012082F83C0000BF0220A7
:1020C00082F83D00106843681068846823F070034C
:1020D0000868034324F080044868044310684360A0
:1020E00010688460012082F83D0000BF002082F863
:1020F0003C0000BF00BFDDE710B504460CB901206D
:1021000010BD94F83D0028B9002084F83C0020461A
:1021100000F00CF8022084F83D00211D206801F039
:1021200017F8012084F83D000020E9E710B586B0DB
:102130000446142101A8FEF738F92C49206888428A
:1021400052D100BF002000902948006840F00200F2
:10215000274908600846006800F00200009000BFB0
:1021600000BF00BF0020009021481038006840F0F8
:1021700002001F49103908600846006800F002009C
:10218000009000BF00BF00BF00200090084600681C
:1021900040F0040008600846006800F00400009069
:1021A00000BF00BF01200190022002900390002098
:1021B00004900220059001A90E48FFF75BF9C020AA
:1021C00001900220029003900020049002200590CC
:1021D00001A90948FFF74EF9002205211D20FFF74C
:1021E000FFFA1D20FFF7ECFA06B010BD0004004016
:1021F00040380240000402400008024001460868DE
:10220000C06840F001000B68D8600868806800F082
:102210000702062A05D00868006840F001000B6834
:102220001860002070472DE9F04104460D4600BFBC
:1022300094F83C00012802D10220BDE8F081012081
:1022400084F83C0000BF022084F83D0020688668C6
:1022500026F0770626F47F46206886602868502896
:1022600033D00CDC202850D004DC00284BD01028C0
:1022700051D149E0302849D040284CD139E060287C
:102280002DD0702807D0B0F5805F03D0B0F5005F87
:1022900041D10DE040E0D5E902136A68206800F002
:1022A000D4FF2068866846F077062068866033E0B1
:1022B000D5E902136A68206800F0C7FF20688068CB
:1022C00040F480402168886026E0EA6869682068F8
:1022D00000F0CFFF5021206800F0C2FF1CE0EA6848
:1022E0006968206801F020F86021206800F0B8FFDC
:1022F00012E0EA686968206800F0BBFF40212068AE
:1023000000F0AEFF08E000BF00BF00BF29682068F2
:1023100000F0A6FF00E000BF00BF012084F83D00F0
:1023200000BF002084F83C0000BF00BF85E700002C
:1023300010B504462068406A40B92848007828B99A
:102340002068006840F0010021680860207F0128B3
:102350000DD12248007800F0010040B92068406BA0
:1023600000B21F4908801FA002F0AEFB20E0207FD2
:1023700002280DD11948007800F0020040B9206809
:10238000806B00B2164948801AA002F09DFB0FE056
:10239000207F04280CD11148007800F0040038B9DF
:1023A0002068C06B00B20E49888016A002F08CFB3A
:1023B000207F0A49097808430849087008460078D0
:1023C00007280AD100220C21206800F02DFF114AB5
:1023D0004FF47A71092003F017FD10BD6E01002043
:1023E0006801002043435231204361707475726567
:1023F000640D0A0043435232204361707475726564
:10240000640D0A0043435233204361707475726552
:10241000640D0A00095100082DE9F04104460D46FB
:10242000164600BF94F83C00012802D10220BDE806
:10243000F081012084F83C0000BF022084F83D00B8
:1024400096B9EB68D5E90012206800F025FF2068F6
:10245000806920F00C002168886120688069A96883
:102460000843216888613DE0042E13D1EB68D5E96B
:102470000012206800F06CFF2068806920F4406042
:102480002168886120688069A96840EA0120216884
:10249000886127E0082E12D1EB68D5E90012206888
:1024A00000F073FF2068C06920F00C002168C8614B
:1024B0002068C069A96808432168C86112E0EB6818
:1024C000D5E90012206800F07CFF2068C06920F484
:1024D00040602168C8612068C069A96840EA01209D
:1024E0002168C861012084F83D0000BF002084F805
:1024F0003C0000BF00BF9AE710B504460CB90120AC
:1025000010BD94F83D0028B9002084F83C00204616
:1025100000F00CF8022084F83D00211D206800F036
:1025200017FE012084F83D000020E9E7704770B5F0
:1025300004460D4635B1042D0BD0082D10D00C2DBE
:102540001CD114E02068C06840F002002168C86017
:1025500015E02068C06840F004002168C8600EE003
:102560002068C06840F008002168C86007E0206863
:10257000C06840F010002168C86000E000BF00BFE4
:1025800001222946206800F04FFE2068806800F094
:102590000706062E05D02068006840F0010021687B
:1025A0000860002070BD10B5044620680069C0F3C3
:1025B0004000D8B12068C068C0F34000B0B16FF0EF
:1025C000020021680861012020772068806900F0FE
:1025D000030018B12046FFF7ABFE05E0204600F0EF
:1025E000ADF8204600F0ABF80020207720680069A5
:1025F000C0F38000D8B12068C068C0F38000B0B1DB
:102600006FF004002168086102202077206880694B
:1026100000F4407018B12046FFF78AFE05E020461E
:1026200000F08CF8204600F08AF80020207720681F
:102630000069C0F3C000D8B12068C068C0F3C00012
:10264000B0B16FF00800216808610420207720688D
:10265000C06900F0030018B12046FFF769FE05E0ED
:10266000204600F06BF8204600F069F80020207743
:1026700020680069C0F30010D8B12068C068C0F3BA
:102680000010B0B16FF010002168086108202077B9
:102690002068C06900F4407018B12046FFF748FE7A
:1026A00005E0204600F04AF8204600F048F80020F7
:1026B00020772068006900F0010058B12068C068E8
:1026C00000F0010030B16FF0010021680861204680
:1026D00000F036F820680069C0F3C01058B12068D7
:1026E000C068C0F3C01030B16FF08000216808618D
:1026F0002046FFF7D5FC20680069C0F3801058B170
:102700002068C068C0F3801030B16FF040002168CD
:102710000861204600F020F820680069C0F34010EE
:1027200058B12068C068C0F3401030B16FF020008D
:10273000216808612046FFF7B4FC10BD7047704760
:1027400010B5044603492068884201D1FEF79EFF78
:1027500010BD0000000800407047704710B50446E7
:102760002068C06820F490702168C86020684069C3
:1027700020F00100216848612068406900F04000B5
:1027800040281BD12068406920F040002168486142
:10279000606B50B10E48616B0865606BFEF756FECA
:1027A000A0B1606B016D884710E00020E08520201B
:1027B00084F83A002046FFF7D0FF07E00020E085CC
:1027C000202084F83A002046FFF7C7FF002010BD04
:1027D00013340008704700002DE9F04704462068D4
:1027E00005682068C668206847694FF00008C14640
:1027F00005F00F08B8F1000F0AD105F0200038B13C
:1028000006F0200020B1204600F02FFEBDE8F08742
:10281000B8F1000F6ED007F0010018B906F49070FF
:10282000002867D005F0010030B106F4807018B1BF
:10283000E06B40F00100E06305F0040030B107F008
:10284000010018B1E06B40F00200E06305F0020007
:1028500030B107F0010018B1E06B40F00400E06314
:1028600005F0080030B107F0010018B1E06B40F04E
:102870000800E063E06B70B305F0200028B106F0BB
:10288000200010B1204600F0F0FD20684069C0F340
:102890008019E06B00F0080010B9B9F1000F23D0E7
:1028A000204600F0C2FD2068406900F0400040284A
:1028B00016D12068406920F0400021684861606BB3
:1028C00050B11748616B0865606BFEF7BFFD10B132
:1028D000606B016D88470CE02046FFF77BFF08E046
:1028E0002046FFF777FF04E02046FFF773FF002044
:1028F000E0638BE705F0800030B106F0800018B18E
:10290000204600F0B9FF81E705F0400030B106F045
:10291000400018B1204600F098FD77E700BF75E74A
:10292000FF33000810B504460CB9012010BDA069A2
:1029300000B100E000BF94F8390028B9002084F805
:102940003800204600F028F8242084F83900206858
:10295000C06820F400502168C860204600F0D8FD0F
:102960002068006920F4904021680861206840696F
:1029700020F02A00216848612068C06840F40050B7
:102980002168C8600020E063202084F8390084F8C2
:102990003A000020CAE7000010B586B004461421B2
:1029A00001A8FDF702FD6D492068884239D100BFBA
:1029B000002000906A48006840F0100068490860F4
:1029C0000846006800F01000009000BF00BF00BF84
:1029D0000020009062481438006840F0010060490F
:1029E000143908600846006800F00100009000BF3C
:1029F00000BF4FF4C06001900220029001200390BC
:102A0000032004900720059001A95648FEF732FDE7
:102A1000002205212520FEF7E3FE2520FEF7D0FE4B
:102A20009AE051492068884257D100BF00200090A9
:102A30004B48001F006840F400304949091F0860F6
:102A40000846006800F40030009000BF00BF00BFDF
:102A50000020009042481438006840F001004049CE
:102A6000143908600846006800F00100009000BFBB
:102A700000BF00BF002000900846006840F008003A
:102A800008600846006800F00800009000BF00BF22
:102A9000082001900220029001200390032004905E
:102AA0000720059001A92F48FEF7E4FC20200190A3
:102AB000022002900120039003200490072005903B
:102AC00001A92A48FEF7D6FC002205212620FEF7A0
:102AD00087FE2620FEF774FE3EE0254920688842E6
:102AE0003AD100BF002000901D48001F006840F44C
:102AF00080201B49091F08600846006800F48020F8
:102B0000009000BF00BF00BF0020009014481438A0
:102B1000006840F002001249143908600846006855
:102B200000F00200009000BF00BF4FF44060019031
:102B300002200290012003900320049007200590BA
:102B400001A90C48FEF796FC002205212720FEF77C
:102B500047FE2720FEF734FE06B010BD00100140EE
:102B6000443802400000024000440040000C024093
:102B7000004800400004024010B5034693F83A00B4
:102B800020282FD101B10AB9012010BD00BF93F850
:102B90003800012801D10220F7E7012083F838002E
:102BA00000BF99629A85DA850020D863222083F8D5
:102BB0003A0000BF002083F8380000BF1868C068E2
:102BC00040F480701C68E0601868406940F00100C3
:102BD0001C6860611868C06840F020001C68E060F4
:102BE0000020D2E70220D0E770472DE9F8430446E1
:102BF0000D4616461F464FF0000994F8390020286C
:102C00005CD105B116B90120BDE8F88300BF94F886
:102C10003800012801D10220F6E7012084F83800AD
:102C200000BF0020E063212084F83900FEF728FD72
:102C30008146A684E6842BE0E08C401EE084A068F8
:102C4000B0F5805F16D14B460022802120460097C8
:102C500000F046FE08B10320D6E7A846B8F8000009
:102C6000C0F3080021684860206908B9AD1C0FE076
:102C70006D1C0DE04B46002280212046009700F09D
:102C80002FFE08B10320BFE715F8010B216848604B
:102C9000E08C0028D0D14B460022402120460097EE
:102CA00000F01EFE08B10320AEE7202084F83900B2
:102CB00000BF002084F8380000BFA5E70220A3E78A
:102CC000704700BFFEE700001FB500200090019094
:102CD000029003901548164908604FF48030486010
:102CE0000021134881600161017680F82010C162E3
:102CF000104981620021C1600121C161002180F879
:102D0000301001214161FEF723FB08B1FEF79BF96A
:102D100000200090012001900020029069460448A4
:102D2000FEF794F908B1FEF78EF91FBD00200140AF
:102D3000300500200100000F00B587B0142102A863
:102D4000FDF733FB00BF002001903648006840F0DB
:102D50002000344908600846006800F02000019017
:102D600000BF00BF00BF002001900846006840F08F
:102D7000800008600846006800F08000019000BFF5
:102D800000BF00BF002001900846006840F001002D
:102D900008600846006800F00100019000BF00BF15
:102DA00000BF002001900846006840F00200086063
:102DB0000846006800F00200019000BF00BF00BF9D
:102DC000002001900846006840F0040008600846B2
:102DD000006800F00400019000BF00BF00BF0020A9
:102DE00001900846006840F0080008600846006846
:102DF00000F00800019000BF00BF00224FF4C06146
:102E00000948FEF737FC4FF4C060029001200390A0
:102E100000200490059002A90348FEF72BFB07B0A1
:102E200000BD0000303802400014024010B50E48CA
:102E30000E4908604FF48270486000210B488160A1
:102E4000C160016141614FF4007181611021C16174
:102E500000210162416281620A21C162FFF796F896
:102E600008B1FEF7F0F810BD0030014078050020F1
:102E700000B58BB000200790089009900A9005904B
:102E8000069001900290039004902748274908601B
:102E900047F2305048600021244881604FF6FF71AE
:102EA000C160002101618161FFF726F908B1FEF7D9
:102EB000CAF84FF48050079007A91C48FFF7B3F9F0
:102EC00008B1FEF7C0F81948FFF716FB08B1FEF786
:102ED000BAF800200590069005A91448FFF7E2F81B
:102EE00008B1FEF7B0F80020019001200290002008
:102EF00003900490002201A90C48FFF78DFA08B155
:102F0000FEF7A1F8042201A90848FFF785FA08B1E5
:102F1000FEF799F8082201A90448FFF77DFA08B1E5
:102F2000FEF791F80BB000BD00040040D005002072
:102F300010B50B480B4908604FF4E13048600021A0
:102F400008488160C16001610C21416100218161FB
:102F5000C161FFF7E7FC08B1FEF775F810BD00008E
:102F6000001001401006002010B50B480B49086006
:102F70004FF4E1304860002108488160C160016180
:102F80000C21416100218161C161FFF7CBFC08B1D7
:102F9000FEF759F810BD0000004400405006002024
:102FA00010B50B480B4908604FF4E1304860002130
:102FB00008488160C16001610C214161002181618B
:102FC000C161FFF7AFFC08B1FEF73DF810BD00008E
:102FD000004800409006002000BFFEE77047000058
:102FE00010B500BF502080F31188BFF34F8FBFF39F
:102FF0006F8F00BF03F04EFE18B14FF080500449B0
:10300000086000BF002080F3118800BF10BD0000E1
:1030100004ED00E000B593B0302107A8FDF7C5F935
:10302000142102A8FDF7C1F900BF00200190254836
:10303000006840F08050234908600846006800F0AE
:103040008050019000BF00BF00BF002001901E48CB
:10305000006840F480401C4908600846006800F49D
:103060008040019000BF00BF0220079001200A901D
:1030700010200B9002200D9000210E9108210F913D
:10308000A8211091022111910421129107A8FEF7A5
:1030900059FD08B1FDF7D7FF0F20029002200390E1
:1030A000002004904FF4A05005904FF480500690FB
:1030B000052102A8FEF7E6FB08B1FDF7C4FF13B037
:1030C00000BD000040380240007000401448006815
:1030D00040F47000124908601248006840F0010096
:1030E0001049086000200F49083108600D48006849
:1030F0000D4908400B4908600C48091D0860081F6D
:10310000006820F48020091F0860002005490C3168
:1031100008604FF000600249803908607047000085
:1031200088ED00E000380240FFFFF6FE103000247A
:1031300010B50248FFF737FA10BD0000D005002097
:1031400010B50248FFF72FFA10BD0000D00600208E
:1031500010B50268294B98420ED0B0F1804F0BD0C9
:10316000274B984208D0274B984205D0264B9842CF
:1031700002D0264B984203D122F070024B681A43CA
:103180001E4B984220D0B0F1804F1DD01C4B98426E
:103190001AD01C4B984217D01B4B984214D01B4B93
:1031A000984211D01A4B98420ED01A4B98420BD02D
:1031B000194B984208D0194B984205D0184B9842A9
:1031C00002D0184B984203D122F44072CB681A43C4
:1031D00022F080034C6943EA040202608B68C362F8
:1031E0000B688362054B984202D0084B984201D18C
:1031F0000B6903630123436110BD0000000001401F
:103200000004004000080040000C004000040140A1
:1032100000400140004401400048014000180040C7
:10322000001C00400020004030B501F01F050124C3
:1032300004FA05F3046A9C430462046A01F01F0562
:1032400002FA05F52C43046230BD30B50C468168A6
:1032500021F47F4142EA032525432943816030BDA3
:103260000A46816821F0700142F00703194381602A
:10327000704730B50B461446026A056A25F0010511
:103280000562816921F0F00141EA041122F00A028D
:103290001A438161026230BD70B50C461546066A5C
:1032A00026F0010606628169026A184EB04214D007
:1032B000B0F1804F11D0164EB0420ED0154EB04234
:1032C0000BD0154EB04208D0144EB04205D0144E6B
:1032D000B04202D0134EB04201D1012600E00026D8
:1032E0001EB121F00301294301E041F0010121F069
:1032F000F001F02606EA0316314322F00A0204F038
:103300000A0632438161026270BD00000000014084
:103310000004004000080040000C00400004014090
:10332000004001400018004030B50B461446056AC5
:1033300025F0100505628169026A21F4704141EAB5
:10334000043122F0A00242EA03128161026230BD20
:1033500070B50C461546066A26F0100606628169AD
:10336000026A21F4407141EA052121F470414FF4D1
:10337000704606EA0336314322F0A002A02606EA90
:10338000041632438161026270BD70B50C46154669
:10339000066A26F480760662C169026A21F003019A
:1033A000294321F0F001F02606EA0316314322F406
:1033B00020624FF4206606EA04263243C1610262AD
:1033C00070BD70B50C461546066A26F48056066236
:1033D000C169026A21F4407141EA052121F470417A
:1033E0004FF4704606EA0336314322F420424FF48C
:1033F000204606EA04363243C161026270BD70B5F0
:103400000546AC6B0020E085E0842046FFF7E2F93A
:1034100070BD70B50546AC6B0020E085202084F8B7
:103420003A002046FFF799F970BD0168C96821F498
:1034300090710268D1600168496921F00101026858
:103440005161202180F83A10704710B50446206879
:10345000C06820F040002168C860202084F839004E
:103460002046FFF72DFC002010BD70B5044694F8EF
:103470003A0022284AD1A068B0F5805F13D1A56A2E
:10348000206940B920684068C0F308002880A06A1D
:10349000801CA06219E020684068C0B22880A06A41
:1034A000401CA06211E0206938B920684068C1B2B0
:1034B000A26A501CA062117007E02068406800F00A
:1034C0007F01A26A501CA0621170E08D401E80B284
:1034D000E085C8B92068C06820F020002168C86075
:1034E0002068C06820F480702168C8602068406946
:1034F00020F0010021684861202084F83A0020462D
:10350000FFF772FB002070BD0020FCE70220FAE705
:103510002DE9F04104462068006920F44050E1683C
:103520000843216808612169A0680843616908436C
:10353000E16940EA01052068C06849F20C618843EE
:1035400028432168C8602068406920F44070A16960
:10355000084321684861E069B0F5004F7ED1C44955
:103560002068884203D0C349206888425DD1FEF7B5
:1035700081FA00EBC00101EB001061684900B0FB6B
:10358000F1F06421B0FBF1F00601FEF773FA00EBF5
:10359000C00101EB001061684900B0FBF1F7FEF7D4
:1035A00069FA00EBC00101EB001061684900B0FB53
:1035B000F1F06421B0FBF1F000EBC00101EB001071
:1035C000A7EB8000322101EBC0006421B0FBF1F0D9
:1035D00000F0F80006EB4006FEF74CFA00EBC001E5
:1035E00001EB001061684900B0FBF1F7FEF742FA09
:1035F00000EBC00101EB001061684900B0FBF1F085
:103600006421B0FBF1F000EBC00101EB0010A7EB6F
:103610008000322101EBC0006421B0FBF1F000F02A
:10362000070030442168886020E1FEF713FA00EBC0
:10363000C00101EB001061684900B0FBF1F06421AA
:10364000B0FBF1F00601FEF705FA00EBC00101EB5B
:10365000001061684900B0FBF1F700E045E0FEF7BB
:10366000F9F900EBC00101EB001061684900B0FB03
:10367000F1F06421B0FBF1F000EBC00101EB0010B0
:10368000A7EB8000322101EBC0006421B0FBF1F018
:1036900000F0F80006EB4006FEF7DCF900EBC00195
:1036A00001EB001061684900B0FBF1F7FEF7D2F9B9
:1036B00000EBC00101EB001061684900B0FBF1F0C4
:1036C0006421B0FBF1F000EBC00101EB0010A7EBAF
:1036D0008000322101EBC0006421B0FBF1F000F06A
:1036E0000700304421688860C0E061492068884252
:1036F00003D06049206888425CD1FEF7BBF900EB3B
:10370000C00101EB001061688900B0FBF1F6FEF723
:10371000B1F900EBC00101EB001061688900B0FB5A
:10372000F1F06421B0FBF1F000EBC00101EB0010FF
:10373000A6EB8000322101EB00106421B0FBF1F018
:1037400000F0F006FEF796F900EBC00101EB001067
:1037500061688900B0FBF1F06421B0FBF1F006EB89
:103760000016FEF787F900EBC00101EB001061685D
:103770008900B0FBF1F7FEF77DF900EBC00101EB2A
:10378000001061688900B0FBF1F06421B0FBF1F03A
:1037900000EBC00101EB0010A7EB8000322101EB30
:1037A00000106421B0FBF1F000F00F0030442168FC
:1037B00088605BE0FEF74EF900EBC00101EB001002
:1037C00061688900B0FBF1F6FEF744F900EBC00137
:1037D00001EB001061688900B0FBF1F06421B0FBDF
:1037E000F1F000EBC00101EB0010A6EB80003221EC
:1037F00001EB00106421B0FBF1F000F0F006FEF7E1
:1038000029F900EBC00101EB001061688900B0FBF1
:10381000F1F06421B0FBF1F006EB0016FEF71AF9A7
:1038200000EBC00101EB001061688900B0FBF1F70B
:10383000FEF710F900EBC00101EB00106168890090
:10384000B0FBF1F06421B0FBF1F000EBC00101EB43
:103850000010A7EB8000322101EB00106421B0FBC7
:10386000F1F000F00F00304421688860BDE8F0817D
:103870000010014000140140014691F83900212850
:103880002CD18868B0F5805F0FD10A6A1088C0F328
:1038900008000B685860086918B9086A801C08623B
:1038A00009E0086A401C086205E00B6A581C0862BF
:1038B00018780B685860C88C401E80B2C88458B90C
:1038C0000868C06820F080000B68D8600868C0688D
:1038D00040F040000B68D860002070470220FCE7F1
:1038E0002DE9F04104460D4617469846069E21E014
:1038F000701CF8B12EB1FDF7C3FEA0EB0800B0427A
:1039000018D92068C06820F4D0702168C860206889
:10391000406920F0010021684861202084F83900C6
:1039200084F83A0000BF002084F8380000BF03206C
:10393000BDE8F081206800682840A84201D101203C
:1039400000E00020B842D3D00020F1E710B50648CF
:1039500000680068C0F3401010B1002001F060FB67
:103960000148FEF739FF10BD1006002010B50648CB
:1039700000680068C0F3401010B1012001F050FB56
:103980000148FEF729FF10BD5006002010B506487B
:1039900000680068C0F3401010B1022001F040FB45
:1039A0000148FEF719FF10BD9006002000BFFEE79A
:1039B0007CB5044600201D46164600290BD0491E42
:1039C000CDE90041044B6A462946304600F0F4F840
:1039D000009A002111707CBDE7420008024800688F
:1039E000C0F30220704700000CED00E010B5002885
:1039F00004DB0A07130E054A135406E00A07140EE7
:103A0000034A00F00F031B1FD45410BD00E400E074
:103A100018ED00E002E008C8121F08C1002AFAD120
:103A200070477047002001E001C1121F002AFBD13E
:103A3000704700002DE9FF5F82B00021DDE904300E
:103A4000020DDDF840B0034318D044F61050A2F246
:103A5000FF3242431514119801281FD0A5EB0B002B
:103A6000401C5FEA000A4FF000064E4FDFF8389125
:103A7000B046504615D5CAF1000413E01198012450
:103A80004AA3012801D16FEA0B010298119AC0E9FB
:103A90000031C0E9024206B0BDE8F09FCBF1000062
:103AA000DFE704460021404A491842EB0450CDE9C3
:103AB000001012E0E00707D032463B464046494638
:103AC000FCF764FF8046894632463B46104619465D
:103AD000FCF75CFF06460F466410002CEAD1DDE9D6
:103AE0000401DDE90023BAF1000F06DAFCF74EFF0E
:103AF00042464B46FCF74AFF05E0FCF749FD4246CB
:103B00004B46FCF745FD04460E460022284BFCF7C9
:103B1000C7FF03D84FF0FF30014607E00022254BD6
:103B200020463146FCF78BFEFCF7A2FF102409E08B
:103B3000002C0ADB0A220023FCF7A2FB039B303295
:103B40001A55641E50EA0102F2D1641C039AC4F1B2
:103B500011031444119A012A03D0012208430DD104
:103B60000AE0084304D000204FF0110B119072E7D7
:103B7000A3EB0B056D1E0DE05B4504DD4FF000026D
:103B800005F1010504E003DA4FF00002A5F101059B
:103B9000002AECD002981199C0E90231C0E9004531
:103BA00079E70000000014400000F03F3000000002
:103BB0000000F0430000E03F2DE9FF4F95B09B4629
:103BC0008946064600250FE2252877D1002427469E
:103BD000F84A0121059400E0044316F8013F203B18
:103BE00001FA03F01042F7D130782A2811D06FF093
:103BF0002F033078A0F13002092A16D8059A44F034
:103C0000020402EB820203EB42021044761C059090
:103C1000EFE759F8042B0592002A03DA504244F4E6
:103C20000054059044F00204761C30782E2816D1FA
:103C300016F8010F44F004042A280DD06FF02F026B
:103C40003078A0F13003092B09D807EB870302EB8A
:103C50004303C718761CF3E759F8047B761C3078C9
:103C60006C280FD006DC4C2817D068280DD06A28A5
:103C700014D104E0742810D07A280FD10DE044F458
:103C800000140AE044F4801401E044F44014727813
:103C9000824202D104F58014761C761C30786628A6
:103CA0000BD013DC582877D009DC002875D04528C4
:103CB000F6D04628F4D047281AD19DE118E06328B1
:103CC00035D0642879D0652812D195E1702873D059
:103CD00008DC6728F1D069286FD06E280DD06F28D6
:103CE00006D1B5E073282CD0752875D0782874D00B
:103CF0005A46179990476D1C75E1C4F3025002288B
:103D000009D003280DD0D9F8001004280DD00D607B
:103D100009F1040967E1D9F80010EA17C1E9005276
:103D2000F6E7D9F800100D80F2E70D70F0E719F80A
:103D3000041B8DF8001000208DF80100EA460120D8
:103D400003E059F804AB4FF0FF3061074FF000017A
:103D500002D40DE008F101018846B9420FDA80452E
:103D6000F8DB1AF808100029F4D108E008F1010185
:103D700088468142FADB1AF808100029F6D1059826
:103D80005B46A0EB080721463846179A00F094FAE4
:103D9000284400EB080507E04DE029E10DE01AF8A2
:103DA000010B5A4617999047B8F10108F7D25B46C4
:103DB00021463846179A13E142E00A220092C4F3E2
:103DC00002524FF0000A022A08D059F804CB032A05
:103DD0004FEAEC710AD00DE029E02AE009F1070171
:103DE00021F00702F2E802C1914609E00FFA8CFCCB
:103DF0004FEAEC71042A03D14FFA8CFC4FEAEC71C4
:103E0000002907DA0A460021DCF1000C61EB02010F
:103E10002D2202E0220504D52B228DF80420012258
:103E200003E0E20701D02022F7E7904659E00A219B
:103E300002E010220DE010214FF0000A00910BE08B
:103E400010224FF0000A44F004040827009203E017
:103E500008224FF0000A0092C4F30252022A05D051
:103E600059F804CB0021032A08D009E009F1070121
:103E700021F00702F2E802C1914605E01FFA8CFC2E
:103E8000042A01D10CF0FF0C4FF00008220728D5BE
:103E9000702806D0009B83F0100353EA0A0305D074
:103EA0000EE040228DF80420012208E05CEA0102C5
:103EB00006D030228DF804208DF8050002229046AD
:103EC000009B83F0080353EA0A030AD15CEA01026B
:103ED00001D1620705D530228DF804204FF001088A
:103EE0007F1E582804D034A003900EA802900DE045
:103EF00036A0F9E753466046009AFCF7C1F98446BC
:103F00000398825C0298401E029002705CEA0100F5
:103F1000F0D1029806A9081A00F1200A600702D51C
:103F200024F4803400E00127574502DDA7EB0A00A6
:103F300000E0002000EB0A01009005984144401A7F
:103F40000590E00306D45B462146179A059800F0D9
:103F5000B3F90544002706E001A85A46C05D179949
:103F600090476D1C7F1C4745F6DBE0030CD55B4694
:103F70002146179A059800F09FF9054404E0302087
:103F80005A46179990476D1C0099481E00900029C9
:103F9000F5DC08E0029802995A460078491C029123
:103FA000179990476D1CBAF10001AAF1010AF1DCE2
:103FB00065E10000092801003031323334353637ED
:103FC0003839616263646566000000003031323365
:103FD0003435363738394142434445460000000005
:103FE00000F058F90544761C307800287FF4ECADD9
:103FF00019B02846BDE8F08F620700D4062709F102
:10400000070222F0070CFCE80223E14603F0004817
:104010005FEA080C02D00FF2702C0DE05FEA045C3E
:1040200002D50FF2682C07E05FEAC47C02D00FF2E1
:10403000602C01E0AFF2700C4FF0FF3823F000432A
:10404000CDF850C065280CD006DC452809D046289C
:104050001DD047283DD13DE0662818D067287ED185
:1040600038E00021112F01DB112000E0781CCDE9A0
:10407000000106A90EA8FFF7DDFCDDE90F010E9A8D
:1040800003910021009207F1010A04914DE04FF0E5
:1040900000400097CDE9011006A90EA8FFF7CAFC61
:1040A000DDE90F0203920E9B11990022DDF80CA0AE
:1040B0000093049211B9791C00EB010AB7EB0A00D6
:1040C00004D4C0F1FF3007F1010A0490AAEB070005
:1040D000019044E0012F00DA01270021112F01DDBA
:1040E000112000E03846CDE9000106A90EA8FFF72F
:1040F000A1FCDDE90F010E9A0391002104910092C9
:10410000BA4621070CD40399514500DA8A46BAF120
:10411000010F05DD009AAAF10101515C302908D098
:10412000B84202DA10F1040F06DA0121CDE90110DC
:1041300015E0AAF10101E9E7002805DC0499014432
:104140000491AAEB000102E0411C514500DD8A46C2
:104150000499401A401C01904FF000400290200743
:1041600004D40198504501DBCDF8048000208DF87F
:104170004F0002980DF14F07B0F1004F25D02B20D2
:104180000E9002984FF0020800280CDA404202908C
:104190002D200E9007E00A210298FCF77BFA3031BF
:1041A000029007F8011DB8F10001A8F10108F2DC46
:1041B00002980028EFD1791E0E980870307800F030
:1041C000200040F0450007F8020D12A8C01B00F1C6
:1041D00007081498007800B1012000EB0A0101984B
:1041E00001EBE07105984144401A401E0590E00340
:1041F00006D45B462146179A059800F05DF8054401
:104200001498007818B15A46179990476D1CE0032E
:1042100024D55B462146179A059800F04DF80544D1
:104220001CE00498002807DBDDE90301884203DD78
:104230000098405C179901E0179930205A46904742
:10424000049805F10105401C04900198401E01905E
:1042500004D12E205A46179990476D1CBAF10001DF
:10426000AAF1010ADDDC05E017F8010B5A4617999F
:1042700090476D1CB8F10001A8F10108F4DC5B4621
:104280002146179A0598ABE62D0000002B00000090
:10429000200000002DE9F041044600251E46174687
:1042A000880404D405E039462020B0476D1C641E04
:1042B000F9D52846BDE8F0812DE9F04104460025F6
:1042C0001E469046C80301D5302700E02027880409
:1042D00004D505E041463846B0476D1C641EF9D54B
:1042E0002846BDE8F0814A68002A06D00A68531CB7
:1042F0000B6010704868401E4860704708B5002089
:10430000009000F039FB0DA001F046FD0446104B73
:10431000562221460FA000F0D7FB15A000F0D4FBD9
:104320000AE04FF0FF3269461248006802F06CFB69
:104330009DF8000000F000FAF3E700002E2E5C5319
:1043400072635C6170705F636F72652E6300000062
:10435000887100085B25733A25642025735D2074FD
:1043600061736B20636F72652073746172740000F7
:104370000D0A00007C01002008B50020009000F02C
:10438000FBFA0DA001F008FD0446104B6422214603
:104390000FA000F099FB15A000F096FB0BE04FF08A
:1043A000FF3269461248006802F02EFB06221149CE
:1043B000009800F0B7FDF2E72E2E5C5372635C614B
:1043C00070705F6D61696E2E63000000CE71000831
:1043D0005B25733A25642025735D207461736B201F
:1043E0006D61696E20737461727400000D0A0000C3
:1043F000800100202C00002008B50020009000F073
:10440000BBFA0DA001F0C8FC0446104BCE22214699
:104410000FA000F059FB15A000F056FB0BE04FF089
:10442000FF3269461248006802F0EEFA0122114993
:10443000009800F077FDF2E72E2E5C5372635C610A
:1044400070705F6D6F64656D2E630000D77100083A
:104450005B25733A25642025735D207461736B209E
:104460006D6F64656D207374617274000D0A0000D5
:10447000840100205C00002010B504460F22214674
:10448000034801F0E7FD204601F086FE10BD000064
:104490009006002070B505460E46002000F06CFA2C
:1044A00007A001F079FC0446094B2522214609A00A
:1044B00000F00AFB0BA000F007FB002070BD00001D
:1044C0002E2E5C5372635C64656275672E63000018
:1044D000E17100085B25733A25642025735D204F48
:1044E0004B0000000D0A000002464FF0FF307047FD
:1044F0000246704770B505460E46002412A000F033
:10450000E3FA17A000F0E0FA00BF10E004EB84002B
:10451000144B03EB8000026904EB840003EB800181
:1045200011A000F0D1FA0EA000F0CEFA641C0D2C00
:1045300007D204EB84000B4901EB800000690028DE
:10454000E4D1002070BD00005B44454255475D3E0C
:10455000737570706F727420636D643A00000000B0
:104560000D0A0000640000205B44454255475D3E53
:10457000092573092570000002464FF0FF3070478F
:1045800002464FF0FF30704702464FF0FF30704751
:1045900002464FF0FF3070472DE9F04186B00446E7
:1045A0008846002502A803A904AB05AACDE900109E
:1045B00015A12046FBF72AFF0546042D11D1BDF9B0
:1045C0000830BDF90C20BDF91010BDF9140000F041
:1045D0007CF806463046FFF74FFF002006B0BDE8E6
:1045E000F081032000F0C8F90CA001F0D5FB0746CC
:1045F0000E4B792239460EA000F066FA15A000F0A5
:1046000063FA0120EAE700006D6F76653A25642CB5
:1046100025642C25642C2564000000002E2E5C539C
:1046200072635C64656275672E630000F97100084F
:104630005B25733A25642025735D204D4F56452038
:10464000504152414D45544552204552524F520D12
:104650000A0000000D0A000002464FF0FF307047CC
:1046600070B505460E46032000F086F907A001F05C
:1046700093FB0446094B5122214609A000F024FA7D
:104680000DA000F021FA4FF0FF3070BD2E2E5C53CC
:1046900072635C64656275672E630000E8710008F0
:1046A0005B25733A25642025735D20434D442065C6
:1046B00072726F72000000000D0A000002464FF097
:1046C000FF3070470246002070472DE9F04705464D
:1046D0000E46174698464FF0000A0F2001F0A8FA40
:1046E0000446F52020705F2060700820A070022032
:1046F000E070082020716571280AA071E671300A07
:1047000020726772380AA07284F80B804FEA182072
:1047100020734FF0020906E014F80900504400F03D
:10472000FF0A09F10109B9F10D0FF5DB6FEA0A0083
:1047300060732046BDE8F08770B50546002400BFD1
:1047400022E01C4810F83400A8421CD1194800EBA4
:10475000C400406828B1174901EBC401486880478C
:1047600070BD002000F008F913A001F015FB06460B
:10477000164B4522314616A000F0A6F91EA000F007
:10478000A3F90020ECE7641C052CDAD3032000F029
:10479000F3F809A001F000FB06460C4B4B22314612
:1047A00016A000F091F914A000F08EF94FF0FF3040
:1047B000D6E70000040000202E2E5C5372635C617B
:1047C00070705F636F72652E63000000787100087F
:1047D0005B25733A25642025735D20636F72652025
:1047E0006D7367202825642920686173206E6F200F
:1047F00068616E646C6572000D0A00005B25733A97
:1048000025642025735D20756E6B6E6F776E206357
:104810006F7265206D7367202825642900000000F1
:1048200010B501F05FFB002010BD10B501F080FB5A
:10483000002010BD10B501F0A1FB002010BD00202C
:1048400070470020704700002DE9F04105460E46F4
:1048500000242F4600BF1DE004EB84011C4A02EB3C
:104860008100FBF7ADFD804604EB8400184A02EBA3
:10487000800142463846FBF7AAFD50B904EB84009C
:10488000134901EB80003146026928469047BDE894
:10489000F081641C0D2C07D204EB84000C4901EB61
:1048A000800000690028D7D1022000F065F809A037
:1048B00001F072FA80460B4BAB2241460AA000F091
:1048C00003F911A000F000F94FF0FF30DFE700001E
:1048D000640000202E2E5C5372635C646562756711
:1048E0002E630000027200085B25733A25642025C0
:1048F000735D20434D44206E6F742070726F63654A
:1049000073736564000000000D0A0000014605296C
:104910000ED2DFE801F0030507090B0005A0704780
:1049200005A0FCE705A0FAE705A0F8E705A0F6E773
:1049300005A0F4E744000000570000004900000013
:1049400045000000460000000000000010B502F025
:1049500085F904461CB1204600F066FC10BD01A09C
:10496000FCE700006F73000000BFEFF3058008B1A3
:10497000012070470020FCE770B5044600F06CFC95
:104980002046FFF7C3FF0546FFF7E0FF06462A462D
:10499000314602A000F098F870BD0000205B25733E
:1049A0005D5B25735D0000002DE9F04780460D46F4
:1049B00000240026474637A000F086F800BF04E038
:1049C000214636A000F080F8641C102CF8DB31A0E2
:1049D00000F07AF8002404E0214632A000F074F8D8
:1049E000641C102CF8DB30A000F06EF800244CE0C2
:1049F000A146E01704EB10700011411C2BA000F041
:104A000063F8264604E0B95D2AA000F05DF8761C44
:104A100004F11000864201DAAE42F4DBAE4216D158
:104A2000E91705EB11710911A5EB011179B1002608
:104A300003E022A000F048F8761CE91705EB11719D
:104A40000911A5EB0111C1F11001B142F1DC11A076
:104A500000F03AF826460EE0B85D202802DBB85D8B
:104A60007F2803DB16A000F02FF803E0B95D15A046
:104A700000F02AF8761C04F11000864201DAAE42FA
:104A8000EADB09A000F020F81034AC42B0DBBDE84E
:104A9000F087000020202020000000002558202062
:104AA00000000000255800000D0A00002530326487
:104AB0002020000025303278200000002020200037
:104AC0002E000000256300000FB410B5FEB00024D6
:104AD0004FF4FA716846FBF768FC81A87D904FF4AB
:104AE000FA7168467D9B809AFEF762FF00207D90F8
:104AF0006846FBF765FC84B222466946034801F02C
:104B0000A9FA7EB010BC5DF814FB0000100600206E
:104B100098B0FCF7C7FDFEF77DFAFEF70DF9FEF73A
:104B2000D3F8FEF783F9FEF703FAFEF71DFAFEF756
:104B300037FAFEF79DF901F04DF93E4800681790ED
:104B40000022012117A800F027FB3B4908603948E3
:104B5000001D006816900022012116A800F01CFB21
:104B60003649086001213448006800F029FB002123
:104B70003348FDF7DCFC04213148FDF7D8FC08215F
:104B80002F48FDF7D4FC2E48FDF738FB2C48006871
:104B9000006800202A4909680860294909684862B4
:104BA0002449083103C9CDE91401002114A800F0FB
:104BB000D2FA244908601F49103103C9CDE9120116
:104BC000002112A800F0C7FA1F49086019491831DE
:104BD00003C9CDE91001002110A800F0BCFA1B495F
:104BE00008601422134920310BA8FBF7C5FB0021F4
:104BF0000BA800F0B9FA1649086014220D493431A7
:104C000006A8FBF7B9FB002106A800F0ADFA114990
:104C1000086014220749483101A8FBF7ADFB0021C9
:104C200001A800F0A1FA0C49086000F08FFA00BF5B
:104C3000FEE7000010720008880100208C010020AF
:104C4000D00500207C01002080010020840100208C
:104C50007001002074010020780100202DE9F0434C
:104C60002DED088B87B00446A178E07801EB002099
:104C700005B22179607901EB002006B2A179E079D3
:104C800001EB002007B20020FFF776FEE81B00EEE4
:104C9000100AB8EEC00A10EE101A0846FBF7E7FC3F
:104CA00041EC1B0B9FED220B53EC102BFBF770FC20
:104CB00041EC180BF01B00EE100AB8EEC00A10EE23
:104CC000101A0846FBF7D3FC41EC1B0B9FED180BA9
:104CD00053EC102BFBF75CFC41EC190BA81B00EE0E
:104CE000100AB8EEC00ADFED140A80EE201A11EEA9
:104CF000108A4046FBF7BBFC41EC1A0B0FA001F0F9
:104D00004BF881468DED048B8DED029B8DED00AB54
:104D10000F4B3E2249460FA0FFF7D6FE1CA0FFF71F
:104D2000D3FE002007B0BDEC088BBDE8F083000087
:104D30006666666666660640333333402E2E5C53E5
:104D400072635C6170705F6D61696E2E630000005C
:104D5000C17100085B25733A25642025735D2064CA
:104D6000656C74613132203D202566206D732C20E6
:104D700064656C74613233203D202566206D732C90
:104D80002064656C74613133203D202566206D738D
:104D90000D0A00007CB504460020FFF7EDFD0BA0D6
:104DA00000F0FAFF0546A01C61780D4B1622CDE9F4
:104DB000001029460BA0FFF787FE16A0FFF784FE20
:104DC0006178A01CFFF740FD00207CBD2E2E5C53B7
:104DD00072635C6170705F6D61696E2E63000000CC
:104DE000917100085B25733A25642025735D207559
:104DF000736172743120726563696576652025641C
:104E00002062797465732C20646174613A20257383
:104E1000000000000D0A000038B504460020FFF72E
:104E2000ABFD0AA000F0B8FF054660780C4B1F22CE
:104E3000294600900BA0FFF747FE16A0FFF744FE9F
:104E40006178A01CFFF7B0FD002038BD2E2E5C530A
:104E500072635C6170705F6D61696E2E630000004B
:104E6000A17100085B25733A25642025735D2062DB
:104E70006C7565746F6F74682072656369657665BB
:104E80002025642062797465732C20646174613A12
:104E9000200000000D0A000038B504460020FFF78E
:104EA0006BFD08A000F078FF054660780A4B2822C9
:104EB0002946009009A0FFF707FE11A0FFF704FEA6
:104EC000002038BD2E2E5C5372635C6170705F6D84
:104ED00061696E2E63000000B17100085B25733AB2
:104EE00025642025735D20757361727433207265AB
:104EF00063696576652025642062797465730000B6
:104F00000D0A00000146002070470146002070474E
:104F100001460020842901D0CA1C10447047014674
:104F2000002070472DE9F84305460E461746002439
:104F3000A04600BF2DE0287816F83410884227D10B
:104F400006EBC400406858B106EBC400416828462F
:104F500088478046284601F01FF94046BDE8F8839F
:104F60000020FFF709FD18A000F016FF8146287801
:104F7000194B5F224946009018A0FFF7A5FD20A01D
:104F8000FFF7A2FD284601F007F94FF0FF30E5E7F3
:104F9000641CBC42CFDB0320FFF7EEFC0AA000F04C
:104FA000FBFE814628780C4B66224946009015A0EE
:104FB000FFF78AFD12A0FFF787FD284601F0ECF805
:104FC0004FF0FF30CAE700002E2E5C5372635C6D19
:104FD00073672E6300000000617100085B25733A5F
:104FE00025642025735D20636D642025642068613D
:104FF00073206E6F2068616E646C65720000000043
:105000000D0A00005B25733A25642025735D207529
:105010006E6B6E6F776E20636D64202564000000F8
:1050200038B50446009400231A46694602480068D1
:1050300001F06EFC38BD00007C0100202DE9F84332
:1050400005460E4617461C46E01C00F0F1FD009098
:10505000009898B90320FFF78FFC1BA000F09CFE7E
:1050600080461D4B2F2241461CA0FFF72DFD23A09B
:10507000FFF72AFD4FF0FF30BDE8F8830098067077
:1050800000984470224639460098801CFBF774F95A
:1050900000210098801C015515B1022D10D107E0A8
:1050A00000231A4669461648006801F05DFBE3E7F5
:1050B00000231A4669461348006801F055FBDBE7F8
:1050C0004FF0FF30D8E700002E2E5C5372635C6D0A
:1050D00073672E6300000000547100085B25733A6B
:1050E00025642025735D206D7367206D616C6C6F86
:1050F00063206661696C6564000000000D0A0000B1
:10510000800100208401002010B500200C490968AE
:1051100048620B4800680068002009490968086077
:10512000084908700623084A0921FFF787FF044948
:10513000012208680C21FEF777F8002010BD00005E
:10514000D00500206E0100206801002010B501F09C
:1051500047F9002010BD70B504460D460022D4E981
:10516000000101F089FA70BDFEB504460D46B4F9A0
:105170000800FFF7CDFE064602A8CDE90060238AAD
:105180009AB22B46D4E9001001F038FD012801D075
:105190000020FEBD0298FCE7F8B504460D46164611
:1051A00020680090012D01D1012000E0002002467E
:1051B0003346012101A001F043FFF8BD00000000CB
:1051C0002DE9FC4106460C460027002001902546AB
:1051D00005B90125FFF7C8FBB0B1002001AB2A4695
:1051E00009210090304601F06DFF012801D0FF2712
:1051F00015E0019898B14FF080500A490860BFF35C
:105200004F8FBFF36F8F0AE0002003462A46042128
:105210000090304601F056FF012800D0FF273846A5
:10522000BDE8FC8104ED00E0014611B909480068C1
:1052300000E00846024652B900BF502080F31188B2
:10524000BFF34F8FBFF36F8F00BF00BFFEE702F1C8
:1052500034007047A001002038B501F015FD4FF46F
:105260007A71B0FBF1F000906846FBF73BF804461A
:1052700003A0D4E90032A168FFF726FC38BD000086
:10528000253032643A253032643A253032640000E9
:105290002DE9F04105460E461C4807681C48006889
:1052A000001D00F0E7FE50B91948006890F82C1076
:1052B0000120884017490968814316480160681C2D
:1052C00038B936B112480168091D134800F010FFC3
:1052D0001AE07C190E4800684460BC4207D20C48B2
:1052E0000168091D0D48006800F0E8FE0CE0084860
:1052F0000168091D0A48006800F0E0FE09480068DE
:10530000844201D207480460BDE8F081B401002066
:10531000A0010020B80100202C080020A8010020D6
:10532000A4010020D001002010B5044600F0ECFEDE
:1053300023480068401C224908602248006840B9A0
:10534000204804600846006801280DD100F0EEF9FD
:105350000AE01D48006838B91A480068C06AE16A66
:10536000884201D81748046018480068401C174953
:10537000086094F82C1001208840154909680843FA
:1053800013490860E16A01EB8101124A02EB8100D6
:10539000211D00F0ADFE00F0E1FE0B48006868B191
:1053A00008480068C06AE16A884207D24FF080501E
:1053B00009490860BFF34F8FBFF36F8F10BD000026
:1053C000B0010020A0010020BC010020CC01002081
:1053D000B80100205007002004ED00E010B500F0F7
:1053E00093FE10480068D0B90F4800F057FE0F48F0
:1053F00000F054FE0C480E4908600C480D49086046
:1054000000220C210A2001F037F9064908600846FD
:10541000006820B108A10348006800F057FF00F0C1
:105420009DFE10BDE401002040080020540800202B
:10543000DC010020E0010020546D725100000000EA
:1054400010B516E000F060FE0C48C068C468201D6E
:1054500000F010FE0A480068401E0949086009482B
:105460000068401E0749086000F078FE204600F002
:105470005EF8044800680028E4D110BD1808002038
:10548000B0010020AC01002070B504460D46206C30
:1054900070B1216CE0680844E0606168E0688842AF
:1054A00001D32068E0602846226CE168FAF764FFC7
:1054B00070BD2DE9F04104460F4615464FF0000837
:1054C000A66B206C40B9206860BB606801F086FC68
:1054D00080460020606025E07DB93946226CA068D6
:1054E000FAF74AFF216CA0680844A060D4E90110D3
:1054F000884217D32068A06014E03946226CE06827
:10550000FAF73AFF216CE068401AE0602168E06831
:10551000884203D2216C6068401AE060022D01D1FC
:1055200006B1761E701CA0634046BDE8F08110B540
:105530000446206B00F030FE204600F02DFE10BD2A
:105540000146084A126812680AB9012200E00022E6
:105550000A600A6822B9034A1268D268106800E03B
:1055600000207047DC01002030B54CF25033174862
:1055700000F007042CB1C01D20F00700134C041BE1
:105580001B1B0246124C22600024114D6C60D01887
:10559000083820F007000F4C206000240D4D2D68C6
:1055A0006C600C4D2D682C601146441A4C60094CFF
:1055B00024680C60084D4C682C60084D4C682C60C9
:1055C0004FF00044064D2C6030BD000068080020FC
:1055D000F0010020F801002000020020FC01002062
:1055E0000402002000BFFFF72BFF064800680128D7
:1055F000F9D94FF0805004490860BFF34F8FBFF3D3
:105600006F8FF0E75007002004ED00E02DE9F04136
:1056100006460D4617469846069C0DB9246000E0E4
:105620002760E66325640121204601F051F8BDE8BA
:10563000F0812DE9FF5F81460F469246DDE90E6B52
:10564000109CAAF10100216B01EB800828F00708EB
:1056500008F0070008B9012000E0002050B900BFA1
:10566000502080F31188BFF34F8FBFF36F8F00BFBF
:1056700000BFFEE7002507E0795D04F134004155E5
:10568000785D00B902E06D1C102DF5D300BF00213C
:1056900043200155072E00D30626E66266640020EB
:1056A000A064201D00F007FD04F1180000F003FDC8
:1056B0002461C6F10700A06164620020E06484F800
:1056C000500049464046039A00F050FB2060BBF171
:1056D000000F01D0CBF80040BDE8FF9F2DE9F04757
:1056E00006460D4617469846DDE908940DB101209F
:1056F00000E0002050B900BF502080F31188BFF3B4
:105700004F8FBFF36F8F00BF00BFFEE75CB1FFF7A5
:1057100065FE2660A561E761C4F82080C4F8249086
:10572000201D00F0C8FCBDE8F087000010B5002483
:1057300007E004EB84010F4A02EB810000F0AEFCAD
:10574000641C072CF5D30C4800F0A8FC0B4800F0B3
:10575000A5FC0B4800F0A2FC0A4800F09FFC0A4898
:1057600000F09CFC044809490860044808490860A6
:1057700010BD000050070020DC070020F0070020CB
:1057800004080020180800202C080020A401002094
:10579000A801002010B50146164800E00068036823
:1057A0008B42FBD30246436813448B4204D14368C7
:1057B0004C682344436001460A464B68134404681E
:1057C000A34211D10C4C03682468A34208D04B6853
:1057D0000468646823444B6003681B680B6005E041
:1057E000054B1B680B6001E003680B60884200D02A
:1057F000016010BDF0010020F80100202DE9F0410A
:1058000004460D4616461F464FF0000865602461A9
:10581000B5420CD8F01BA169884202D34FF00108B1
:1058200011E0211D0948006800F048FC0BE0BE4271
:1058300004D2BD4202D34FF0010804E0211D044808
:10584000006800F03BFC4046BDE8F081E00100202C
:10585000DC01002070B5054600F056FCA86B08B9C5
:10586000012400E0002400F079FC204670BD70B5F2
:10587000054600F049FCA86BE96B884201D1012480
:1058800000E0002400F06AFC204670BDF8B5054633
:105890000F4616480068C068C468201D00F0EAFB87
:1058A000E06901281DD1A06941192B463A462046DE
:1058B000FFF7A4FFA8B1002003462A460146009046
:1058C000204601F0FFFB064656B900BF502080F38A
:1058D0001188BFF34F8FBFF36F8F00BF00BFFEE78C
:1058E00000BF2046616A8847F8BD0000DC01002047
:1058F00070B586B06AE00398002867DB059C606994
:1059000008B9012000E0002010B9201D00F0B2FB12
:1059100002A800F0BBF8054603980A2854D2DFE835
:1059200000F009050731334F0608323400BF00BFCD
:1059300000BF00BF0498A269811803462A4620468A
:10594000FFF75CFFE8B12046616A8847E0690128FB
:1059500017D1002000900498A1694218002319462D
:10596000204601F0AFFB064656B900BF502080F339
:105970001188BFF34F8FBFF36F8F00BF00BFFEE7EB
:1059800000BF22E000BF20E000BF0498A061A06932
:1059900008B1012000E0002050B900BF502080F382
:1059A0001188BFF34F8FBFF36F8F00BF00BFFEE7BB
:1059B000A06941192B462A462046FFF71FFF04E045
:1059C000204600F0E9FB00E000BF00BF002203A971
:1059D0000348006801F018F800288CD106B070BDAB
:1059E000E4010020F8B505460C4600F043FD68468A
:1059F00000F04CF80646009820BB44B9B54206D8E2
:105A000001F09CFA31462846FFF740FF1CE03CB10C
:105A10000E480068006808B9012000E00020044634
:105A2000A91B22460A48006800F066FC01F086FACD
:105A300050B94FF0805007490860BFF34F8FBFF354
:105A40006F8F01E001F07AFAF8BD0000E00100205C
:105A5000E401002004ED00E00A490968096809B979
:105A6000012100E0002121B14FF0FF31064A116011
:105A700006E004490968C968C868034A41681160BA
:105A800070470000A4010020D001002070B504463A
:105A900001F0FAF8054607480068854204D200F094
:105AA0000BF80120206001E0002020600148056023
:105AB000284670BDEC0100202DE9F84332E024486F
:105AC0000068C068056822480068C068C468201D76
:105AD00000F0D0FA2046616A8847E069012821D1A8
